:020000040800F2
:20000000E01C00200D2E0008312E0008352E0008392E00083D2E0008412E00080000000056
:20002000000000000000000000000000452E0008492E0008000000004D2E0008512E0008BC
:20004000552E0008592E00085D2E0008612E0008652E0008692E00086D2E0008712E0008D8
:20006000752E0008792E00087D2E0008812E0008852E0008892E00088D2E0008912E0008B8
:20008000952E0008992E00089D2E0008152D0008192D0008A92E0008AD2E0008B12E0008B2
:2000A000B52E0008B92E0008BD2E00081D2D0008C52E0008C92E0008CD2E0008D12E00081D
:2000C000D52E0008D92E0008DD2E0008E12E0008E52E0008E92E0008ED2E0008F12E000858
:2000E000F52E0008F92E0008FD2E0008FFFFFFFFFFFFFFFFFFFFFFFFFFFFFFFFFFFFFFFF87
:20010000153CA54700000021772A000810B5DFF8204700B92EE0DFF81C070068006880477D
:2001200020680A3010BD80B5DFF80407DFF8082700685278C1788A420DD38278002A04BF15
:200140008288002A07D18172DFF8E806006840688047002002BD022002BD10B5DFF8D04692
:2001600000B907E0DFF8CC0600688068804720680C3010BD206801210182002010BD10B5AF
:20018000DFF8AC46DFF8B42620681268C17840799269904721688A7A9AB1002804BF0879DB
:2001A00000280ED1887860B9DFF888060068C068804720684179C1722068C1780173002099
:2001C00010BD022010BD10B5DFF86416096818B902200882002010BD0020DFF86446208031
:2001E0007F220878104215D1487A810603D5002141F0020121704006217854BF01F0FE00BE
:2002000041F001002070DFF82C06006800698047204610BD00F07F02012AF9D000F07F0074
:200220000228D7D14879DFF81C2600F00F01000652F8210007D500F030001028E3D1002099
:2002400040F00100DEE700F44050B0F5805FDAD1002040F00100D5E770B5DFF8D4050068AB
:20026000017811F07F0104D1417A01F0DF01417251E0022901BF41880029017900294CD1A2
:200280004179DFF8C04521F080050A0654F825204CBF02F0300202F44052DFF89C351B789F
:2002A0009D423AD2002A1CBF807A002835D0080654F825000BD500F03000102826D128460B
:2002C00000F045FB3021284600F0F6FA1EE000F44050B0F5805F19D14BF68F7665B9DFF824
:2002E000680590F82C10002000F05EFB2068304080F44050206009E0284600F018FB54F842
:200300002500304080F4405044F82500DFF82405006840698047002070BD022070BD38B582
:20032000DFF80C05DFF81C150268537923F080001C0651F820404CBF04F0300404F440547A
:20034000DFF8F4542D78A84206D2558825B9002C1CBF927A002A01D1022032BD1A0651F8D3
:20036000202005D548F6BF731A4082F0100204E04BF68F731A4082F4805241F82020DFF8FC
:20038000B404006880698047002032BDDFF8A0241268538A20B98888C01A10820020704760
:2003A0000868181870472DE9F041DFF88444206800F110052988002904BF007A042802D15C
:2003C0000726102025E0AF888F4205D30426B94288BF39460F4600E00226A9683846884735
:2003E0008046002000F0D1FA01463A46404600F02AFB3946002000F0D0FA2888DFF84C14BA
:20040000C01B28804FF440526888381868800A803020DFF83C14088020680672BDE8F081BD
:2004200038B5DFF80C442068457801787F22114241D1092D02D1FFF776FE50E0052D1BD123
:20044000C178802959DA8178002901BF81880029807A002851D1DFF8FC13DFF8FC230968E2
:2004600089B2002342F811300620DFF8E41330220A802168087231BD032D11D1C17801296D
:2004800004BF818800292CD1417A8A0629D541F020014172DFF89C030068C0698047DAE78D
:2004A000012D04BFC17801291BD18188C9B9407A80060DD415E001F07F00012804D10B2DB5
:2004C0000FD1FFF75CFE0AE002280AD1012D02D1FFF7C2FE03E0032D03D1FFF720FF002822
:2004E000B9D0DFF858130968496928468847032808BF0920BDD00028ADD00820B9E710B5F7
:20050000CB4C20684178062916D101787F22114231D18078012803D1C8480068C16975E012
:20052000022803D1C5480068016A6FE0032822D1C2480068416A69E0002944D141880029DA
:2005400004BFC188022916D10179A1B901787F22114204BF8288002A33D001F07F02012AA5
:2005600015D1B64A4079126892690021904710B92068807A28BBB149206809684078096924
:20058000884703284BD120680921017210BD01F07F010229EFD14079AA4B00F00F0100F059
:2005A0007002000653F821004CBF00F0300000F44050A14B1B789942DDD2002ADBD10028A1
:2005C000D9D0A64922E0082905D100787F210842D1D1A3491AE00A2902BF017801F07F01B2
:2005E0000129C8D1817A0029C5D04188002901BF01790029C1880129BDD1904A407912681C
:200600009269002190470028B5D196490800B2D020680022428281610020884700202168E8
:200620000A8A4FF6FF739A4208BF092004D0022818BF002A02D10820087210BD08780006DC
:200640000BD5C888904238BF08827C48006890F82C008882BDE81040A5E6032008724FF4CD
:2006600040517A48018010BD38B57A487E4900686F4C80B231F8100021680A7A400000F197
:20068000804000F5C040092A14D010F8012B0A70216810F8012B4A70851C35F8040B00F09C
:2006A000CDF921684880288800F0C8F921688880A888C8800121206801722068C08810B903
:2006C000FFF7AEFE01E0FFF71AFFBDE831407DE010B5574C2068017A022918BF042904D1A6
:2006E000FFF761FE2068007A14E0062911D14178052902BF01787F22114206D1C07800F08A
:200700007FF84C480068006A80474C48006880688047082021680872BDE8104056E0F8B587
:20072000434C2068017A032918BF052943D100F11005A9682E88080018BF002E14D0A888F4
:20074000864288BF06463046884707462888801B2880688830186880002000F017F9014632
:200760003246384600F085F9288850B137484FF4405101800020002100F00FF9344830218A
:2007800001802888AA882168904228BF032001D210B1052008720BE00620087200222D483C
:2007A0002D49006880B241F810203021284801802068007A06E0072903D120480068C0689A
:2007C0008047082021680872BDE8F14080B51E4890F82C10002000F0E7F815480068017AC3
:2007E000082906D119494FF480520A80102218490A80007A092801D1012002BD002002BD97
:20080000F0B40D490F4B0978002259B11C4648F68F7526682E40D7B23E43521C44F8046B14
:200820008A42F6D340F08000D864F0BC70470000841400208C140020480300208814002035
:20084000C4140020005C004034020020C8140020CA140020505C004004600040C701000854
:200860000D0100085B01000808600040704710B450F8041B81B102681218001D50F8043B0A
:20088000DC0744BFA9F10104E31852F8044B43F8044B091FF9D1EBE710BC70474FF6F871C0
:2008A0000840DFF8801108607047DFF87C2152F8203048F68F1C5AE0DFF86C2152F820303A
:2008C00048F6BF7C0CEA03035FEAC16C48BF83F01003890648BF83F0200310E0DFF8482144
:2008E00052F820304BF68F7C0CEA03035FEAC14C48BF83F48053890448BF83F4005342F8D7
:2009000020307047DFF8201151F820204BF68F731A4082F4405207E0DFF80C1151F8202036
:2009200048F68F63FFE71A4041F820207047DFF8F81051F82020520408D551F8202048F6B5
:200940008F731A4042F4804241F820207047DFF8D81051F82020520608D551F8202048F6CF
:200960008F731A4042F0400241F8202070470CEA0303194342F82010704738E0294A1268F9
:2009800092B202EBC000294A37E03BE02549096889B201EBC00025493AE0224A126892B249
:2009A00002EBC000224A2AE01E4A126892B202EBC000204A02EB40003F2909DB4A091F23C9
:2009C000194208BF521E1204910941F4004105E04A08C90748BF521C12049109016070471B
:2009E0001049096889B201EBC000124914E00D4A126892B202EBC0000F4A4908490042F808
:200A0000101070470749096889B201EBC0000A4951F8100080B2704751F810008005800D57
:200A200070470000505C0040005C004008600040046000400C600040006000400106090CC3
:200A400041EA10207047490001F18041521C01F5C04152100AD1704710F8013B10F801CB17
:200A600043EA0C2321F8023B891C521E002AF3D17047490001F18041521C01F5C041521047
:200A800005D1704751F8043B20F8023B521E002AF8D17047F0B5046842688368C068DFF82D
:200AA0000C56DFF80C760C604A608B60C8600A26C0F3072EC0F3074C1EF807E01CF807C05C
:200AC0004FEA0E4E4EEA0C6C5FFA80FE1EF807E04CEA0E2C4FEA106E1EF807E04EEA0C0C89
:200AE00055F804EB8EEA0C0C8CEA0404624041F8104F53404A6058408B60C860761ED7D14E
:200B0000F0BDC7E72DE9F04F036852F8A04F84EA030E4368546884EA030883689468C06813
:200B200084EA0309D368DFF88C4583EA000CA2F1200009221B23CCF307464FEA1E65365D68
:200B40002D5D360446EA0565C9F30726CEF30747365D3F5D45EA06255FFA88F63F04365D09
:200B60003543066975404FEA1866C8F3074A365D1AF804A047EA0666CCF307274FEA0A4AB6
:200B80003F5D46EA07265FFA89F7C8F307283F5D18F804803E4347697E404FEA1967C9F305
:200BA00007493F5D19F804904AEA0767CEF3072A5FFA8EFE1AF804A01EF804E047EA0A2719
:200BC0005FFA8CFA4FEA1C6C4FEA09491CF804C01AF804A049EA0C6C4CEA082C4EEA0C0CF7
:200BE000D0F81CE04FEAD5188EEA0C0C08F0013805F07F3E03FB08F888EA4E0E4AEA07078A
:200C00004FEADE19D0F818A009F001390EF07F3803FB09F98AEA070789EA48084FEAD81ACC
:200C20000AF0013A08F07F3903FB0AFA8AEA490989EA050585EA0E0B88EA0E0E89EA0E0EE5
:200C400085EA080A8EEA3B6E8EEA3A4E4FEAD6188EEA352E08F0013806F07F3503FB08F817
:200C600088EA45054FEAD51909F0013905F07F3803FB09F989EA48084FEAD81A0AF0013A8F
:200C800008F07F3903FB0AFA8AEA490989EA060686EA050B88EA050589EA050586EA080A62
:200CA00085EA3B6585EA3A4585EA3628FE0906F0013607F07F355E4386EA45054FEAD51909
:200CC00009F0013905F07F3603FB09F989EA46064FEAD61A0AF0013A06F07F3903FB0AFA6A
:200CE0008AEA490989EA070787EA050B754089EA050587EA060A85EA3B6585EA3A454FEA43
:200D0000DC1685EA372906F001360CF07F355E4386EA4505EF0907F0013705F07F365F4367
:200D200087EA46064FEAD61A0AF0013A06F07F3703FB0AFA8AEA470787EA0C0C8CEA050B19
:200D400075407D408CEA060A85EA3B6585EA3A45103885EA3C2C521E7FF4EDAECEF30743F6
:200D60004FEA18621B5D125D1B0443EA0262CCF30723C8F307451B5D2D5D42EA03225FFA8D
:200D800089F32D041B5D1A4343695A404FEA1963C9F307461B5D365D45EA0363CEF3072540
:200DA00036042D5D43EA05235FFA8CF5CCF307472D5D3F5D2B4385696B404FEA1C653F0409
:200DC0002D5D46EA0565C8F30726365D45EA06255FFA8EF6365D3543C669006975404FEAAC
:200DE0001E66365D47EA0666C9F307273F5D46EA07265FFA88F73C5D3443604008604A60C2
:200E00008B60CD60BDE8F08F2DE9F0470368146855689668A64F634044686C408568C068A2
:200E20007540D66886EA000902F1100009221B26C4F3074E4FEA136C1EF807E01CF807C03B
:200E40004FEA0E4E4EEA0C6CC5F3072EC5F307481EF807E018F807804CEA0E2C5FFA89FE75
:200E60004FEA08481EF807E04EEA0C0C4FEA146EC9F3074A1EF807E01AF807A048EA0E6E70
:200E8000C9F307284FEA0A4A18F807804EEA082E5FFA83F84FEA196918F8078019F8079007
:200EA00048EA0E0E4FEA156818F807804AEA0868C3F3072AC3F307431AF807A0DB5D48EAE9
:200EC0000A285FFA84FAC4F307241B04E45D1AF807A043EA096343EA0423ECB24AEA08083F
:200EE000E45D44EA03094FEADC1303F0013373430CF07F34CCF3066A83EA44058CEA4A6AB4
:200F000083EA0A0A8CEA440463401B0243EA1A636B4083EA3C4350F8044B83EA3C2363408B
:200F20004FEADE1404F0013474430EF07F35CEF3066A84EA450C8EEA4A6A84EA0A0A8EEADE
:200F400045056C40240244EA1A6484EA0C0484EA3E4450F8045B84EA3E246C404FEAD81512
:200F600005F00135754308F07F3CC8F3066A85EA4C0E88EA4A6A85EA0A0A88EA4C0C85EA05
:200F80000C052D0245EA1A6585EA0E0585EA384550F804CB85EA38258CEA05054FEAD91C64
:200FA0000CF0013C06FB0CFC09F07F3EC9F3066A8CEA4E0889EA4A6A8CEA0A0A89EA4E0EC1
:200FC0008CEA0E0C4FEA0C2C4CEA1A6C8CEA080C8CEA394C50F804EB8CEA392C8EEA0C0930
:200FE000521E7FF425AFC5F30746220EF65DD25D360446EA0262C9F30726C9F3074CF65D6A
:201000001CF807C042EA0622DEB24FEA0C4CF65D3243466872402E0EC3F3074EF65D1EF8A8
:2010200007E04CEA0666C3F3072C4FEA0E4E1CF807C046EA0C265FFA84FC1B0E1CF807C08F
:20104000DB5D4CEA0606D0F808C08CEA06064FEA196C1CF807C04EEA0C6CC4F3072EC4F318
:201060000744E45D1EF807E0240444EA03634CEA0E2CC5F307245FFA85FEE45D1EF807E0BE
:2010800043EA04234EEA0C0C5FFA89F4D0F80CE0E45D00682343584008604A608EEA0C0CD9
:2010A0008E60C1F80CC0BDE8F08700006402002000000020000100202DE9F04F93B080467C
:2010C00002AE002014461D460291B0610DF1300A0AE014F8011B0298C0470290002800F04A
:2010E000B481B069401CB061207808B9B069AEE12528EED10020F0603061706101E040F045
:20110000010014F8011F2029F9D023290DD02B2904D02D2906D030290AD00CE040F00200C2
:2011200080B2EEE740F00400FAE740F00800F7E740F01000F4E72A290DD129680A1D2A60EF
:2011400009683162002904D5494240F00400316280B2641C13E0002131620BE0316A6FF0F9
:201160000043994205D001EB810302EB430130393162641C2278A2F130010A29EED3217874
:201180002E2903D04FF0FF31F1611EE014F8011F2A2906D129680A1D2A60641C0968F1618B
:2011A00013E00021F1610BE0F1696FF00043994205D001EB810302EB43013039F161641C56
:2011C0002278A2F130010A29EED3B0840FF28030217800F0C1F908B114F8010B8DF82E0011
:2011E0009DF82E00682804BF2078682803D162208DF82E00641C0CA8B0602278252A13D098
:20120000582A34D0632A00F0A580642A18BF692A68D06F2A2BD0702A20D0732A09D0752A43
:2012200018BF782A23D09FE0F068411CF160252197E02868011D29600068F2697060002A0C
:2012400002D500F0A5F907E0002100F0C1F900281ABF7168401AF069306191E02868011D3A
:2012600029607821006801900CA870606EE09DF82E306C2B08BF286811D0712B08BF2868CC
:2012800002D028686A2B0AD1C01D20F007002860014601F108002860D1E9000102E0011D7C
:2012A000296000680190682B02D101A8008803E0622B02D101A80078019096F82400000767
:2012C0003FD5019800283CD042F02000782838D1F068302100F80A10401C411CF16000F875
:2012E0000A202EE09DF82E00622802D0682806D00BE02868011D296090F9000009E028680D
:20130000011D2960B0F9000003E02868011D296000680190002804D5F068411CF1602D2115
:201320000DE0B08C810704D5F068411CF1602B2105E0C00705D5F068411CF160202100F80C
:201340000A10F0680CA940187060114601A800F081F815E0F068411CF16029680A1D2A6098
:20136000096800F80A100BE0F068411CF160252100F80A1022B1F068411CF16000F80A20A6
:20138000306AF168401A7169401A3169A0EB010996F82400641C40070FD420208DF800007C
:2013A000002708E0012300AA01A9404600F0B9F800284AD17F1C4F45F4DBF7680DF1300BA6
:2013C0000AE01BF8011B0298C047029000283CD0B069401CB0617F1E002FF2D130208DF8A3
:2013E00000004FF0000B776908E0012300AA01A9404600F096F840BB0BF1010BBB45F4DB8D
:201400003769D6F804B009E01BF8011B0298C0470290D0B1B069401CB0617F1E002FF3D1C8
:2014200096F8240040077FF55FAE20208DF8000000E07F1C4F45BFF657AE012300AA01A92C
:20144000404600F06EF80028F3D04FF0FF3013B0BDE8F08FF0B4C2686F2908BF082405D042
:2014600041F02003782B14BF0A241024066818233746642918BF692902D1002E48BF7F425B
:201480005FB9056A4DB9082C27D190F82810090723D530211723D1751FE0B7FBF4F604FB60
:2014A000167730375D1EFFB22B463A2FA4BFA1F1510C6744AF54370003D085689E18B5428E
:2014C000EBD3082C09D190F82810090705D5995C302902D05B1E30219954C3F11801416150
:2014E0009A188260026A914208DA511A81614FF6EF72018D11400185F0BC7047002A0ED56F
:2015000090F8282002F01402102A08D1426A0369D21A8369D21A531A012BA8BF8361F0BC74
:201520007047F8B504460D4616461F46002004E0E869401CE8617F1E002047B116F8011B10
:201540006868A04768600028F2D14FF0FF30F2BD686C747A4C0000000278C9B28A421AB16A
:201560001CBF10F8012FF9E718BF0020704750F8041B61B150F8042BD30744BFA9F101035F
:201580009A18002342F8043B091FFAD1EFE7704700F10103810704D010F8011B89B1810746
:2015A000FAD10268B2F10131914311F0803F04BF50F8042FF6E710F8011B11B110F8011B68
:2015C000FBE7C01A70470268531C036011707047C9B2830706D0521E22D310F8013B9942C5
:2015E000F7D11FE0083A13D302F1040241EA012141EA014150F8043B121F21BF4B40A3F192
:20160000013C2CEA030C1CF0803FF3D0C9B2001F083210F8013B521E28BF91EA030FF8D80E
:2016200018BF0120401E704780B500F0C1F9CA49087001BD2DE9F84304460D46A04615F09C
:20164000030F0BD04FF6FC702840001D854205D2411BC248FF22281800F06EFA0026C04F75
:201660000DB97E8213E0DFF8F49259F8041B204600F0BDF9241D361DAE42F6D30020788271
:20168000788A18F8011B081878826D1EF8D1788A398A88420CBF00200320F872BDE8F1838E
:2016A000AF48022181720021C172AE480170704730B5AD484178491E8BB0092900F243818E
:2016C000DFE811F037004101A700F80013012B011A000A001F0028001422A44905A800F0BF
:2016E0006FFAA34800788DF818001422A02105A8FFF7A9F9142104E19948072101730BB0F3
:2017000030BD81784129A8BF4021924800F013FB0BB030BD01A8002100220B460C461EC0C4
:201720004FF004500190102101A800F004FB0BB030BD8B4CA17A022918BF05295FD18279C7
:20174000002A04BFC17900290BD1012060620620A072E07A207000206070608006202071D1
:20176000F4E084490B78A3B9C378857845EA03232362C37942EA0322A2614279007940EAE9
:2017800002202082A069E0610020E0810120087026E0206A784D98B9002100F029FB2878A6
:2017A000E97820730904287941EA0060A97840EA01206978084360610320A0722071C5E038
:2017C000E089A2690019412A11D340222946283000F0E6F9E0894030E081A0694038A06179
:2017E0004FF440510220FFF779F80BB030BD2946283000F0D5F90320A0722071A6E00A20E9
:20180000A0720F2020700020607060800A2020719CE0534CA07A032814D0042802D00628FC
:2018200041D03AE0607BC1073DD50521A172217100F0FE000021617061806073E17A21707D
:2018400000210DE0607BC1070ED500F0FE0005216073A17221710021E07A617061802070AB
:20186000012000F0C5FA1EE00421A1722171217B412916BF512950210021009140F0020026
:201880009DF80010617060739DF80110A1709DF80210E170E17A217005E0207100206070FE
:2018A0006080E07A20700622A0212046FFF7CBF8062126E02A4CA07A0A2808D10220A0725A
:2018C0000020206002202071002060710BE00A20A0720E2020700020607060800A20207154
:2018E000002060710E20E07230E01D4CA07A60720222E07A2072A02104F10800FFF7A3F8B3
:2019000002210120FFF749F830210120FEF7D4FF1848032101700BB030BD114CA07A801E60
:20192000012884BFC01E012801D9001F0ED10220A072002020600220207100206071206262
:20194000A061E07202E0022000F01BFA00F00EFA0BB030BD303C0008D6140020740B00206E
:201960004C0300209D140020A0140020E0F7FF1F203C00089C14002028140020DFF898114E
:201980000A6802F03802FFE70A600A68104308607047DFF884110A6822F01002F4E7DFF8C1
:2019A0007C01DFF87C110160DFF878110160704770B5054640F6FF76304600F078F8042850
:2019C00014D1DFF86441206840F0020020606560206840F040002060304600F068F8012840
:2019E00004D0216841F6FD721140216070BD70B50E46054616F1010F01D1042070BD0F20B8
:201A000000F055F8042816D1474C206840F0010020602E800F2000F04AF8042804D1300C5E
:201A200068800F2000F043F8012804D0216841F6FE721140216070BD70B5044640F6FF751F
:201A4000284600F034F8042830D1384E3448306034483060B06840F02000B060B06840F071
:201A60004000B060284600F022F8042817D1B06841F6DF710840B060002CB06840F010000F
:201A8000B0602B4814BF0021A5210180284600F00EF801280AD0B16841F6EF7204E0012863
:201AA00004D0B16841F6DF721140B16070BD18B4204A13680421DB0748BF012108D41368EA
:201AC0005B0748BF022103D41368DB0648BF0321FF2304E01468E40648BF0321401E0129FD
:201AE00015D1A8B100210091009302E00099491E009100990029F9D104211468E40748BFD0
:201B00000121EBD414686407E4D50221E6E700B90521084612BC70470020024004200240DA
:201B200023016745AB89EFCD102002400820024000F8FF1F0C20024062F30F2262F31F4249
:201B4000401810F0030308D0C91A1FD3DB0748BF00F8012D28BF20F8022D130030B41446EC
:201B60001546103928BF20E93C00FAD8490728BF20E90C0048BF40F8042D890028BF20F87F
:201B8000022D48BF00F8012D30BC7047C91818BF00F8012DCB0728BF00F8012D70470000D2
:201BA00062B38B0708D0521E11F8013B00F8013B00F024808B07F6D1830740F0208000BFB7
:201BC000103A07D330B4B1E83810103AA0E83810F9D230BC530724BFB1E80810A0E80810BD
:201BE00044BF51F8043B40F8043BD20724BF31F8022B20F8022B44BF0B7803707047083A9A
:201C000007D3B1E80810083A40F8043B40F804CBF7D25307E4E7000000B55048017840780D
:201C200083B08DF8001000A948704D48027A8DF80220427ACA700622817AC07A8DF80410D7
:201C40008DF80500A02100A8FEF7FDFE06210120FEF7A3FE30210120FEF72EFE4148032183
:201C6000017003B000BD10B53E4C607882B000F50070ADF800000222A02100A8FEF7E3FEBD
:201C80000320207002210120FEF787FE30210120FEF712FE13BD33480178891E03D0491EB7
:201CA000012905D970470079F32802D1FFF700BD60E0704710B50220FEF792FE0446224636
:201CC000E0212948FEF7D5FE2648017811B1012904D007E02046BDE8104005E00079F32868
:201CE00001D119E01CE010BD10B51E4C20B11E490246201DFFF754FF2079F12804D0F3287A
:201D000005D0F52804D006E0BDE8104084E703E0BDE81040A7E703E0BDE81040FFF7C8BCFF
:201D200010210120FEF7C8FDBDE810404FF480510220FEF7D3BD10B50C462246A021FEF7B2
:201D400082FE21460120FEF728FE30210120FEF7B3FD04480321017010BD0000FE3F000856
:201D6000A82C00089C14002028140020004801E09C1400200021017002204FF44051FEF7E5
:201D8000ADBD80B518B1022807D00AD301BDBDE8044010210120FEF78FBD10210120FEF77C
:201DA0008BFDBDE80440C1E700B585B000F096F8454802210186018801F09F010180018847
:201DC00001806020ADF800000220ADF808000120ADF8020000A800F08EF8012000F0C6F8D9
:201DE000012000F0C0F8012000F0AAF805B000BD70B5364E0446307882B00D46844218D027
:201E00000021042000F0A0F8002000F095F8062C40D8DFE804F004121427181A2F002C482D
:201E2000016821F0F0010091009941F04001016030E07068A842EAD173BD502000E04020CD
:201E400000F08CF826E0502000E0402000F086F82048858248F6A04101820420012100F0A3
:201E600073F817E01B4864218182818A49080184642105E017488582690801844FF6FF71B9
:201E800001820188C9B20091009941F4D041009100990180012110480160307800281CBF1A
:201EA0000428052809D144B10948016821F0F0010091009941F0B001016034707560012037
:201EC000BDE8764000F038B8002C0140B014002004080140182C01408082254280B50121E4
:201EE0004FF4006000F0EDF8BDE8044000214FF4006000F0E6B8DFF88C10DFF88C300A8897
:201F00004FF0000CC3F800C0D2B2B0F800C042EA0C220A8042881A6082889A6002895A609E
:201F20004289DA608389DFF86420FFE71360C3895360C08808847047DFF8541008607047F8
:201F4000DFF8501008607047DFF84C20012911880CBF084321EA00001080704709490A88D9
:201F600040F67F7308E00D49086070470C49086070470A884FF2FF331A4042EA0020088035
:201F800070470000182C014010842542A880254200802542BC8825420C2C01401C8025426D
:201FA0002C8325425848594A0021C16001611421416100218161C161016841F0010101602B
:201FC000416811404160524A016811400160016821F480210160416821F4FE0141600021B0
:201FE0008160704748490A6822F480320A60B0F5803F0A6822F480220A6003D0B0F5802FF5
:020000040800F2
:2020000004D07047086840F4803002E0086840F4A020086070473F483B490A68520C02F0AF
:20202000010202704268521C4260027812B94268FF2AF2D10868800301D5012070470020D5
:202040007047354A136823F47C1318430843106070473249086070472F490A68920840EA14
:202060008200086070472C48006800F00C00704729490A6822F0F00203E027490A6822F46D
:20208000E06210430860704723490A6822F4605242EAC00008607047214908607047214AE7
:2020A0000029116814BF084321EA0000106070471D4A0029116814BF084321EA000010608C
:2020C00070471A4A0029116814BF084321EA00001060704716490870704741090A4A01299D
:2020E00008BF116803D002290CBF116A516A00F01F0021FA00F000F0010070470D48016821
:2021000041F0807101607047001002400000FFF8FFFFF6FEB8140020041002406000424224
:20212000D8004242181002401C1002400C100240071002402410024000B59248816843681B
:20214000026889B001A800910FF2742100F040F98D4901A8062210F8013B01F8023B521E52
:2021600010F8013B01F8023B10F8013B01F8023B10F8013B01F8023BEDD109B000BD8348F2
:202180000068807A00B9704780B50120FEF7DFFB0220FEF7CCFB7E480021017001BD000054
:2021A00038B5FFF7C9FF794C20680021817200F029F900217748784A784D41604FF4044171
:2021C0001180016076492068C979417208E02878012804D14FF4FA710420FFF709FE00BFBD
:2021E0002068807A0028F2D005216E48017031BD10B56D48002181720020FEF74FFB4FF408
:2022000000710020FEF751FB20210020FEF754FB20210020FEF7B2FB644C94F82C100020AC
:20222000FEF7C2FB60210020FEF7A7FB0020FEF773FB0020FEF766FB00210120FEF735FB54
:20224000A0210120FEF799FB20210120FEF734FB00210120FEF742FB00210220FEF725FBC1
:20226000E0210220FEF78AFB94F82C100220FEF79BFB4FF440510220FEF730FB00210220F3
:20228000FEF71AFB00210320FEF70FFB4FF480710320FEF772FB20210320FEF70DFB0021B6
:2022A0000320FEF71BFB94F82C100020FEF77CFB0020FEF727FB0020FEF7A2FA3448002117
:2022C000017010BD7047704780B5304909680A7802F07F02212A08BFFE280BD14888002832
:2022E00001BF88880028C888012803D10FF28100020001D1022002BD88610020488200F09F
:2023000037F8002002BD80B5204909680A7802F07F02212A08BFFF2815D14888002804BFD1
:20232000888800280FD1C88868B90120FEF70FFB0220FEF7FCFA0320FEF709FB144800214E
:202340000170002002BD022002BD00290CBF0028022070471649FEF719B81649FEF716B810
:202360000A49154A0968C97802EBC101FEF70EB828B90648006801210182002070470F4825
:2023800070470000E8F7FF1F02020020841400209C140020405C0040D4140020CC140020F9
:2023A0008C020020D814002068140020340200203803002040030020B4020020D0140020D9
:2023C000253038582530385825303858000000000CB41CB5044604A801900A46009401ABA6
:2023E00000A9074878441830FEF766FE009900220A7000285CBF0098001B16BC5DF80CFB2F
:20240000C7F1FFFF80B5012000F0F1F80C480D4A012101600021016041604FF4044111806D
:202420000160002002BD10B5054C012020600020606000F0DCF803202060002010BD000071
:20244000405C0040D414002010B582B000F01BF86C4C4FF40041204600F080F94FF4004010
:20246000ADF8000000A914208DF8030001208DF80200204600F012F900F0CEF8FFF794FC0D
:2024800000F07CF813BD80B5FFF78CFD4FF48030FFF7A8FDFFF7BFFD012828D11020FFF7CC
:2024A00078FA0220FFF76AFA0020FFF7E1FD4FF48060FFF7E9FD4FF48060FFF7DEFD002027
:2024C000FFF7EAFD4FF4E0114FF48030FFF7B9FD0120FFF7BEFD3920FFF7FFFD0028FAD03D
:2024E0000220FFF7B9FDFFF7BEFD0828FBD1FFF756FA01214FF40000FFF7DAFD012140F691
:202500000C20FFF7CCFD0620FFF7E4FD4FF48070ADF8000000A918208DF8030002208DF8EB
:202520000200384800F0BAF801BD10B5364C00224FF40041204600F015F9322000F034F9F9
:202540002046BDE810400122012100F00BB92F480068000701D400207047012070472C4948
:202560000A784FF0FF30502A07D128480068000701D4487870476FF00100704780B5002181
:202580004FF0006000F065F92248002101604FF4A06000F019F914208DF8000001208DF8BE
:2025A000010000208DF8020001208DF8030000A800F00FF913208DF8000000208DF80100CC
:2025C0008DF8020001208DF8030000A800F001F91B208DF8000000208DF801008DF802004C
:2025E00001208DF8030000A800F0F3F801BD054A00284FF40041104618BF00F0AFB800F082
:20260000AFB8000000080140000C0140080C0140303C0008445C004010B582B001210120DA
:20262000FFF73DFD0121094800F0A1F808480178462902D14078C00705D401224FF4004164
:20264000044800F08FF8034C06E000BF00023000443C0008000C014000220121204600F022
:2026600081F848F20100ADF8000000A914208DF8030001208DF80200204600F00FF808206F
:20268000ADF8000000A948208DF8030001208DF80200204600F002F813BD00002DE9F041ED
:2026A000CC78002204F00F03E40644BF8C7823430C88E5B22DB3D0F800C001250F2605FA6A
:2026C00002F7BE460EEA0408F04515D14FEA820E06FA0EF82CEA080C03FA0EFE4EEA0C0C8C
:2026E00091F803E0BEF1280F08BF476191F803E0BEF1480F08BF0761521C082ADFD3C0F86E
:2027000000C0FF2C28DDD0F804C0002201250F2602F1080705FA07F7BE460EEA0408F04584
:2027200015D14FEA820E06FA0EF82CEA080C03FA0EFE4EEA0C0C91F803E0BEF1280F08BF48
:20274000476191F803E0BEF1480F08BF0761521C082ADDD3C0F804C0BDE8F0810161704735
:20276000416170470AB1016170474161704770B40C4A1368C0F3034485B2860248BF23F00B
:20278000E06306D4C60243BF032606FA04F4A343AB4321B180024CBF43EA05432B431360A8
:2027A00070BC70470400014041F27C51484381B0002102E000BF0099491C00910099814288
:2027C000F8D301B070470000274908432749086070472DE9F0410578C278012182B3234ABA
:2027E000204C126825F0030302F4E0621F5990F801C0C2F5E062120AC2F1040E0CFA0EFCF5
:2028000090F802E04FF00F0828FA02F202EA0E0205F0030542EA0C02ED00FF261201AE409C
:20282000AA40B74332403A431A510078104B420900F01F0001FA00F043F82200BDE8F081CF
:2028400005F01F03064A6809994042F82010BDE8F081084A114008430749086070470000EA
:2028600080E100E000E400E00000FA050CED00E000E100E080FFFF1F08ED00E02DE9F84FEB
:2028800040F68F7448F60F784BF68F7B654F664DDFF89891DFF898A121E0300404D52868DA
:2028A00020402860FDF73BFF286839880BEA0000CA0448BF80F48050890448BF80F400504B
:2028C000286048F6BF71286808407988CA0648BF80F01000890648BF80F020002860686C50
:2028E000AAF80000000460D547F6FF706864BAF8000010F00F0089F8000035D148F6BF71CF
:20290000286800F440503880286800F03000788028680BEA000080F400502860286808409A
:2029200080F020002860BAF80000C00628680FD408EA00002860FDF7CBFE4FF40841286841
:202940000842B1D0286820402860FDF78DFEABE786B2300605D5286808EA00002860FDF7DD
:20296000B7FE300599D5EDE755F820108EB231040AD555F82010214045F820102D4901EBAD
:20298000800050F8040C80473006A8D599F8000055F8201008EA010145F82010264901EB1B
:2029A000800050F8040C804799E7BDE8F18F2DE9F84FDFF88090DFF870B01C4F1C4CDFF8EE
:2029C0007CA040F68F7547F6FF7824E0CAF80080208800F00F0038705BF820108EB2310460
:2029E00009D55BF8201029404BF8201009EB800050F8040C804730060DD538785BF82010BC
:202A000048F60F7211404BF820100B4901EB800050F8040C8047DAF8000020800004D5D435
:202A2000BDE8F18FC8140020005C0040D7140020CE1400201C03002000030020445C00408A
:202A400080B50120C046C0467B20FFF746FB08B900F018F8FFF752FB3A483B49008880022E
:202A600050F8040C884202D100F082F801E000F009F8002002BD80B5FFF7E6FC00F082F8CF
:202A8000BDE801402DE9F8434FF4FA610420FFF7AFF9FFF7C8FC0A20FFF786FEFFF757FDF7
:202AA0000446012C08BFFFF740FDFFF758FD0546012D02DB0CB92548057200F077F8012DCE
:202AC00002DB0CB9FFF731FD00210120FFF790F9FEF7E6FD1E4C1F4DDFF87C80DFF87C900B
:202AE0001F4E204F1AE0D9F8002092B24146284600F078F8D9F800102068FEF79BFD3878D0
:202B000000F0FD0040F0010038703078072805D1FFF70BFDFFF787FC00F02AF83878800782
:202B2000F3D53078212808D0412802D05128DAD0E5E72068FEF778FDE1E751203070DEE74A
:202B400000000000E0F7FF1FD32700A58C0200206003002074030020740B002068030020EF
:202B6000580300205903002000400008000000085FF80C00016881F3088800F104000168E0
:202B80000847000010B5074979441831064C7C44163404E00A68081D511888470146A14292
:202BA000F8D110BD000200002002000010B50A4C0A49E461022020726162094820620068F6
:202BC00080474FF40070E0624FF48010A0624FF40060206310BD00BF68140020DC02002018
:202BE00034020020F0B5054617460F2085B00E46074200D107B942E0244C207800283BD142
:202C00002348244A01788DF8001041788DF801108178C0788DF802108DF8030001A9042060
:202C2000135C01F8013B401C135C01F8013B401C135C01F8013B401C135C01F8013B401C94
:202C40001028EDDB211D0FF25000FDF723FF221D00A900A8FEF7D8F8211D00A8FDF751FF50
:202C60000120207008E0221D31462846FDF74AFF103F10351036BFB23800F4D102E001200F
:202C800005B0F0BD002005B0F0BD000074130020E0F7FF1FE4F7FF1F4920616D206B65791B
:202CA0002C20776177617761120100020000004083044837000101020301000004030904C9
:202CC0002603530054004D006900630072006F0065006C0065006300740072006F006E00CE
:202CE00069006300730000001A03530054004D00330032002000530054004C0069006E0035
:202D00006B00000010035300540020004C0069006E006B00FFF74BBE00F020B80C4881B094
:202D200001884FF6FB72114001800A480168491C0160C9070848026822F0F002009200994C
:202D40004CBF41F0400141F0B001016001B07047102C0140C01400200408014038B50D484B
:202D60000D4C01680D4D618061882A881140490505D54FF6FF3101600948406880476088C4
:202D800029880840000403D5FFF778FD0120207031BD00BF445C0040CC140020D4140020AD
:202DA00034020020CBE7FFFF901100004C03002000000000BBDAFFFF4C03000044010000D6
:202DC000000000200000000000F00BF8002801D0FFF7D8FE0020C046C046FFF731FE00F0DA
:202DE00002F80120704700F001B800000746384600F002F8FBE7000080B5C046C046024A34
:202E000011001820ABBEFBE7260002000148804701480047492400081D2E0008C046C04682
:202E2000C046C046FFF7D0FFFEF735BFFEF742BFFFF7FEBFFFF7FEBFFFF7FEBFFFF7FEBF16
:202E4000FFF7FEBFFFF7FEBFFFF7FEBFFFF7FEBFFFF7FEBFFFF7FEBFFFF7FEBFFFF7FEBFDA
:202E6000FFF7FEBFFFF7FEBFFFF7FEBFFFF7FEBFFFF7FEBFFFF7FEBFFFF7FEBFFFF7FEBFBA
:202E8000FFF7FEBFFFF7FEBFFFF7FEBFFFF7FEBFFFF7FEBFFFF7FEBFFFF7FEBFFFF7FEBF9A
:202EA000FFF738BFFFF738BFFFF7FEBFFFF7FEBFFFF7FEBFFFF7FEBFFFF7FEBFFFF7FEBF06
:202EC000FFF72CBFFFF7FEBFFFF7FEBFFFF7FEBFFFF7FEBFFFF7FEBFFFF7FEBFFFF7FEBF2C
:202EE000FFF7FEBFFFF7FEBFFFF7FEBFFFF7FEBFFFF7FEBFFFF7FEBFFFF7FEBFFFF7FEBF3A
:202F0000637C777BF26B6FC53001672BFED7AB76CA82C97DFA5947F0ADD4A2AF9CA472C036
:202F2000B7FD9326363FF7CC34A5E5F171D8311504C723C31896059A071280E2EB27B275FC
:202F400009832C1A1B6E5AA0523BD6B329E32F8453D100ED20FCB15B6ACBBE394A4C58CF25
:202F6000D0EFAAFB434D338545F9027F503C9FA851A3408F929D38F5BCB6DA2110FFF3D2B3
:202F8000CD0C13EC5F974417C4A77E3D645D197360814FDC222A908846EEB814DE5E0BDB03
:202FA000E0323A0A4906245CC2D3AC629195E479E7C8376D8DD54EA96C56F4EA657AAE08E5
:202FC000BA78252E1CA6B4C6E8DD741F4BBD8B8A703EB5664803F60E613557B986C11D9EFB
:202FE000E1F8981169D98E949B1E87E9CE5528DF8CA1890DBFE6426841992D0FB054BB169B
:2030000052096AD53036A538BF40A39E81F3D7FB7CE339829B2FFF87348E4344C4DEE9CB44
:20302000547B9432A6C2233DEE4C950B42FAC34E082EA16628D924B2765BA2496D8BD1254E
:2030400072F8F66486689816D4A45CCC5D65B6926C704850FDEDB9DA5E154657A78D9D8410
:2030600090D8AB008CBCD30AF7E45805B8B34506D02C1E8FCA3F0F02C1AFBD0301138A6B2E
:203080003A9111414F67DCEA97F2CFCEF0B4E67396AC7422E7AD3585E2F937E81C75DF6E76
:2030A00047F11A711D29C5896FB7620EAA18BE1BFC563E4BC6D279209ADBC0FE78CD5AF4B6
:2030C0001FDDA8338807C731B11210592780EC5F60517FA919B54A0D2DE57A9F93C99CEF64
:2030E000A0E03B4DAE2AF5B0C8EBBB3C83539961172B047EBA77D626E169146355210C7D20
:203100003203300030003000300030003000300030003000300030003000300030003000AA
:203120003000300030003000300030003000300031000000A1210008F1210008C52200080B
:20314000C7220008C9220008072300084B230008552300085B230008612300080000000051
:20316000400000000000000100000002000000040000000800000010000000200000004090
:20318000000000800000001B000000360902270001010080320904000003FFFFFF0407055B
:2031A0008102400000070502024000000705830240000000BC2C000804000000C02C000843
:2031C00026000000E82C00081A0000000002002032000000042D0008100000006D08000879
:2031E0007F2100086D0800086D0800086D0800086D0800086D0800086D0800086D080008BC
:20320000292E00086D0800086D0800086D0800086D0800086D0800086D0800086D080008E4
:203220002D2E00086D0800086D0800086D0800086D0800086D080008A82C000812000000CC
:203240008C0200202700000004010000FFFFFFFFFFFFFFFFFFFFFFFFFFFFFFFFFFFFFFFFA8
:20326000FFFFFFFFFFFFFFFFFFFFFFFFFFFFFFFFFFFFFFFFFFFFFFFFFFFFFFFFFFFFFFFF6E
:20328000FFFFFFFFFFFFFFFFFFFFFFFFFFFFFFFFFFFFFFFFFFFFFFFFFFFFFFFFFFFFFFFF4E
:2032A000FFFFFFFFFFFFFFFFFFFFFFFFFFFFFFFFFFFFFFFFFFFFFFFFFFFFFFFFFFFFFFFF2E
:2032C000FFFFFFFFFFFFFFFFFFFFFFFFFFFFFFFFFFFFFFFFFFFFFFFFFFFFFFFFFFFFFFFF0E
:203C00001271BDA710FAAFD92D50D2BE0EBDA9D1FFFFFFFFFFFFFFFFFFFFFFFFFFFFFFFFE9
:203C200042FFFFFFFFFFFFFFFFFFFFFFFFFFFFFFFFFF565543545F53544C494E4B20FFFFBF
:203C4000FFFFFFFFFFFF4456FFFFFFFFFFFFFFFFFFFFFFFFFFFFFFFFFFFFFFFFFFFFFFFFE8
:203C6000FFFFFFFFFFFFFFFFFFFFFFFFFFFFFFFFFFFFFFFFFFFFFFFFFFFFFFFFFFFFFFFF64
:203C8000FFFFFFFFFFFFFFFFFFFFFFFFFFFFFFFFFFFFFFFFFFFFFFFFFFFFFFFFFFFFFFFF44
:203CA000FFFFFFFFFFFFFFFFFFFFFFFFFFFFFFFFFFFFFFFFFFFFFFFFFFFFFFFFFFFFFFFF24
:203CC000FFFFFFFFFFFFFFFFFFFFFFFFFFFFFFFFFFFFFFFFFFFFFFFFFFFFFFFFFFFFFFFF04
:203CE000FFFFFFFFFFFFFFFFFFFFFFFFFFFFFFFFFFFFFFFFFFFFFFFFFFFFFFFFFFFFFFFFE4
:203D0000FFFFFFFFFFFFFFFFFFFFFFFFFFFFFFFFFFFFFFFFFFFFFFFFFFFFFFFFFFFFFFFFC3
:203D2000FFFFFFFFFFFFFFFFFFFFFFFFFFFFFFFFFFFFFFFFFFFFFFFFFFFFFFFFFFFFFFFFA3
:203D4000FFFFFFFFFFFFFFFFFFFFFFFFFFFFFFFFFFFFFFFFFFFFFFFFFFFFFFFFFFFFFFFF83
:203D6000FFFFFFFFFFFFFFFFFFFFFFFFFFFFFFFFFFFFFFFFFFFFFFFFFFFFFFFFFFFFFFFF63
:203D8000FFFFFFFFFFFFFFFFFFFFFFFFFFFFFFFFFFFFFFFFFFFFFFFFFFFFFFFFFFFFFFFF43
:203DA000FFFFFFFFFFFFFFFFFFFFFFFFFFFFFFFFFFFFFFFFFFFFFFFFFFFFFFFFFFFFFFFF23
:203DC000FFFFFFFFFFFFFFFFFFFFFFFFFFFFFFFFFFFFFFFFFFFFFFFFFFFFFFFFFFFFFFFF03
:203DE000FFFFFFFFFFFFFFFFFFFFFFFFFFFFFFFFFFFFFFFFFFFFFFFFFFFFFFFFFFFFFFFFE3
:203E0000FFFFFFFFFFFFFFFFFFFFFFFFFFFFFFFFFFFFFFFFFFFFFFFFFFFFFFFFFFFFFFFFC2
:203E2000FFFFFFFFFFFFFFFFFFFFFFFFFFFFFFFFFFFFFFFFFFFFFFFFFFFFFFFFFFFFFFFFA2
:203E4000FFFFFFFFFFFFFFFFFFFFFFFFFFFFFFFFFFFFFFFFFFFFFFFFFFFFFFFFFFFFFFFF82
:203E6000FFFFFFFFFFFFFFFFFFFFFFFFFFFFFFFFFFFFFFFFFFFFFFFFFFFFFFFFFFFFFFFF62
:203E8000FFFFFFFFFFFFFFFFFFFFFFFFFFFFFFFFFFFFFFFFFFFFFFFFFFFFFFFFFFFFFFFF42
:203EA000FFFFFFFFFFFFFFFFFFFFFFFFFFFFFFFFFFFFFFFFFFFFFFFFFFFFFFFFFFFFFFFF22
:203EC000FFFFFFFFFFFFFFFFFFFFFFFFFFFFFFFFFFFFFFFFFFFFFFFFFFFFFFFFFFFFFFFF02
:203EE000FFFFFFFFFFFFFFFFFFFFFFFFFFFFFFFFFFFFFFFFFFFFFFFFFFFFFFFFFFFFFFFFE2
:203F0000FFFFFFFFFFFFFFFFFFFFFFFFFFFFFFFFFFFFFFFFFFFFFFFFFFFFFFFFFFFFFFFFC1
:203F2000FFFFFFFFFFFFFFFFFFFFFFFFFFFFFFFFFFFFFFFFFFFFFFFFFFFFFFFFFFFFFFFFA1
:203F4000FFFFFFFFFFFFFFFFFFFFFFFFFFFFFFFFFFFFFFFFFFFFFFFFFFFFFFFFFFFFFFFF81
:203F6000FFFFFFFFFFFFFFFFFFFFFFFFFFFFFFFFFFFFFFFFFFFFFFFFFFFFFFFFFFFFFFFF61
:203F8000FFFFFFFFFFFFFFFFFFFFFFFFFFFFFFFFFFFFFFFFFFFFFFFFFFFFFFFFFFFFFFFF41
:203FA000FFFFFFFFFFFFFFFFFFFFFFFFFFFFFFFFFFFFFFFFFFFFFFFFFFFFFFFFFFFFFFFF21
:203FC000FFFFFFFFFFFFFFFFFFFFFFFFFFFFFFFFFFFFFFFFFFFFFFFFFFFFFFFFFFFFFFFF01
:203FE000FFFFFFFFFFFFFFFFFFFFFFFFFFFFFFFFFFFFFFFFFFFFFFFFFFFFFFFFFFFF2B5F55
:020000040800F2
:20400000404D0020814501089D450108A1450108A5450108A9450108AD4501080000000065
:20402000000000000000000000000000B1450108B545010800000000B9450108AD4301087E
:20404000AF430108B1430108B3430108B5430108B7430108B9430108BB430108BD43010850
:20406000BF430108C1430108C3430108C5430108C7430108CD430108D5430108DF43010890
:20408000E3430108E7430108BD450108E9430108ED430108C1450108C5450108F1430108E6
:2040A000F3430108F54301082B4401082D440108814401088344010885440108874401084A
:2040C000894401088B4401088D4401088F44010891440108934401089544010897440108F8
:2040E000994401089B4401089D44010848480FF2281181610FF2505101630FF61C2181642F
:204100002D49794401F1B201424841662B497944AA3101602A497944A63141602949794452
:20412000A2318160284979449E31C160274979449A31016126497944963141612549794493
:2041400092318161244979448E31C161234979448A310162224979448631416221497944BF
:2041600082318162204979447E31C1621F4979447A3101631E497944763141631D497944EB
:20418000723181631C4979446E31C1631B4979446A3101641A497944663141641949794417
:2041A00062318164184979445E31C164174979445A310165704700BF8CE90000B8E4000020
:2041C000B8E40000CCE40000E8E4000024E5000080E50000D4E5000010E6000060E6000064
:2041E000A4E60000D0E60000F8E600001CE7000044E7000090E70000D4E7000010E8000049
:2042000048E800008CE80000BCE80000F8E80000BC190020981B0020280500201904002024
:20422000E5020020E7020020E9020020EB020020ED02002000000000000000000000000047
:2042400000000000F1020020EF02002000000000F3020020F5020020F7020020F9020020DA
:20426000FB020020FD020020FF020020010300200303002005030020070300200903002019
:204280000B0300200D0300200F030020110300201303002015030020170300201903002076
:2042A0001B0300201D0300201F0300202103002023030020250300202703002029030020D6
:2042C0002B0300202D0300202F030020310300203303002035030020370300203903002036
:2042E0003B0300203D0300203F030020410300204303002045030020470300204903002096
:204300004B0300204D0300204F0300205103002053030020550300205703002059030020F5
:204320005B0300205D0300205F030020610300206303002065030020670300206903002055
:204340006B0300206D0300202B482C4901602E490160704770B504000420F8210906611879
:20436000284A914219D2B0252D03280000F068F8042812D1224E30680221014331607460AD
:204380003068402101433160280000F059F8012803D031681D4A0A40326070BDF8B505002F
:2043A0000C000420F82109066918164A914222D2C702380000F044F804281CD1104E3068C1
:2043C0000121014331602C80380000F039F804280BD1200C6880380000F032F801280AD070
:2043E0003168BA1E0A403260F2BD012803D03168BA1E0A403260F2BD042002402301674593
:2044000010200240FFFF0700AB89EFCDFD1F00000A490860704704210420084A1368DB07AF
:2044200001D50120704713680B4201D0022070471168C90600D50320704700000C200240F7
:2044400010B50400FFF7E7FF04E0002C06D0FFF7E2FF641E0128F8D0002C00D1052010BD98
:2044600070B5224C25001435214E0420307000F024F83520FFF7CCFF09E0FFF76BFF3070FD
:204480003078042818D160682168401860606068A1688842F1D3E068216988420BD229688D
:2044A000FFF77CFF30703078042805D1E068001DE0602D1DEFE7FEE7FEE780B50D48002107
:2044C000416083220260416081600022D243C260C16002610161142242618161C161064848
:2044E0000160FFF731FF01BD00000000EC0700202404002000100240002002407047FEE7CC
:20450000FEE7FEE7FEE77047704770477047704770477047704770477047704770477047A1
:2045200070477047704770477047704770477047704770477047704770477047704770470B
:204540007047704770477047704770477047704770477047704770477047704770477047EB
:204560007047704770477047704770477047704770477047704770477047704770477047CB
:20458000704770477047000010B5084979441C31074C7C441A34A14206D0081D0A68891884
:2045A00088470100A142F8D110BD00BF300000003C00000010B400210268001D002A0BD016
:2045C0000368001DDC0702D54C46641E1B1919601B1D121FFBD1EFE710BC7047D9FFFFFF74
:2045E00004000000240400200000000000F009F8002801D0FFF7C8FF0020FFF731FF00F092
:2046000002F80120704780B500F002F800BF00000746384600F002F8FBE7000080B5C04618
:20462000C046024A11001820ABBEFBE726000200C046C046C046C046FFF7D8FFCDCDCDCD53
:20464000CDCDCDCDCDCDCDCD464847490160494A026001640264704770B50400B0252D03CE
:20466000F820000620184249884218D2280000F099F804282BD13D4E3068022101433160B9
:2046800074603068402101433160280000F08AF801281CD03168384A0A40326070BD28007D
:2046A00000F0A4F8042812D1304E306C0221014331647464306C402101433164280000F083
:2046C00095F8012803D0316C2B4A0A40326470BDF8B505000C008027BF01F82000062818AF
:2046E000234988421BD2380000F05CF8042838D11E4E30680121014331602C80380000F017
:2047000051F8042804D1200C6880380000F04AF8012826D03168BA1E0A403260F2BD38007E
:2047200000F064F804281CD1104E306C0121014331642C80380000F059F804280BD1200CC6
:204740006880380000F052F801280AD0316CBA1E0A403264F2BD012803D0316CBA1E0A403D
:204760003264F2BD042002402301674510200240FFFF0700AB89EFCDFD1F00000849086082
:20478000704704210420064A1368DB0701D50120704713680B4201D00220704721E000004B
:2047A0000C20024010B50400FFF7EBFF04E0002C06D0FFF7E6FF641E0128F8D0002C00D1B1
:2047C000052010BD04210420024A1368DB0703D5012070474C20024013680B4201D00220DC
:2047E00070471168C90600D50320704710B50400FFF7E8FF04E0002C06D0FFF7E3FF641E25
:204800000128F8D0002C00D1052010BDD8050020C5040020910300209303002095030020B0
:204820009703002099030020000000000000000000000000000000009D0300209B03002084
:20484000000000009F030020A1030020A3030020A5030020A7030020A9030020AB030020E0
:20486000AD030020AF030020B1030020B3030020B5030020B7030020B9030020BB03002080
:20488000BD030020BF030020C1030020C3030020C5030020C7030020C9030020CB030020E0
:2048A000CD030020CF030020D1030020D3030020D5030020D7030020D9030020DB03002040
:2048C000DD030020DF030020E1030020E3030020E5030020E7030020E9030020EB030020A0
:2048E000ED030020EF030020F1030020F3030020F5030020F7030020F9030020FB03002000
:20490000FD030020FF03002001040020030400200504002007040020090400200B04002059
:204920000D0400200F040020110400201304002015040020170400201904002070B5224C63
:2049400025001435214E0420307000F024F83520FFF714FF09E0FFF77FFE3070307804287C
:2049600018D160682168401860606068A1688842F1D3E068216988420BD22968FFF7A8FEE0
:2049800030703078042805D1E068001DE0602D1DEFE7FEE7FEE780B50D480021416083224D
:2049A0000260416081600022D243C260C16002610161142242618161C16106480160FFF752
:2049C00043FE01BD00000000EC070020D004002000100240002002407047FEE7FEE7FEE7B7
:2049E000FEE770477047704770477047704770477047704770477047704770477047704719
:204A0000704770477047704770477047704770477047704770477047704770477047704726
:204A2000704770477047704770477047704770477047704770477047704770477047704706
:204A40007047704770477047704770477047704770477047704770477047704770477047E6
:204A60007047000010B5084979441C31074C7C441A34A14206D0081D0A688918884701003D
:204A8000A142F8D110BD00BF300000003C00000010B400210268001D002A0BD00368001D79
:204AA000DC0702D54C46641E1B1919601B1D121FFBD1EFE710BC7047D9FFFFFF0400000013
:204AC000D00400200000000000F009F8002801D0FFF7C8FF0020FFF731FF00F002F80120EA
:204AE000704780B500F002F800BF00000746384600F002F8FBE7000080B5C046C046024AFD
:204B000011001820ABBEFBE726000200C046C046C046C046FFF7D8FF300F00200508002068
:204B2000C7070020D30700200D0800200F08002011080020000000000000000000000000E8
:204B40000000000013080020150800200000000017080020190800201B0800201D080020D5
:204B60001F08002021080020230800202508002027080020290800202B0800202D080020C5
:204B80002F08002031080020330800203508002037080020390800203B0800203D08002025
:204BA0003F08002041080020430800204508002047080020490800204B0800204D08002085
:204BC0004F08002051080020530800205508002057080020590800205B0800205D080020E5
:204BE0005F08002061080020630800206508002067080020690800206B0800206D08002045
:204C00006F08002071080020730800207508002077080020790800207B0800207D080020A4
:204C20007F08002081080020830800208508002087080020890800208B0800208D08002004
:204C40008F08002091080020930800209508002097080020990800209B0800209D08002064
:204C60009F080020A1080020A3080020A5080020A7080020A9080020AB080020AD080020C4
:204C8000AF080020B1080020B3080020B5080020B7080020B9080020BB080020FEB5B04E58
:204CA00030001C300190AF4C666030680C300090E06030680C3020623068103060623068FA
:204CC000001DA062FF202061700B606180210906A1610120E061F3277268114003D0E021AC
:204CE000C9026161A04F71684B005B08736005020421012B42D1726981231B059A4202D323
:204D000032681543356032681032E26033681433236233680C33636233681B1DA362F723F6
:204D20005B0423616161A0613220E061A26000F027F98E4DF06810280AD2280000F03EFA91
:204D4000F06800F085F920702078082800D002E1280000F033FA019D7069B169884200D30F
:204D6000FCE07168202900D0C3E0296800F0F3F920707069001D70612D1DE8E0022B01D0EE
:204D8000042B1ED130682030E06031682031216231682831616231680831A162A06000F0E6
:204DA000EFF8F0686900884209D2F32000F006FAF06800F027F92070207808285DD1F320A2
:204DC000C7E70222032B31D1736981273F05BB4202D333682B43336033681033E3603768DB
:204DE0001437276237680C37676237683F1DA762D7277F0427616161A061E261A36000F02E
:204E0000BFF85B4FF068A8420ED2380000F0D6F9F068802801D38038F060F06800F040F9BB
:204E200020702078082828D1380092E7062B26D133682033E360376830372762376828378A
:204E4000676237683F1DA762FE273F0427616161A061E261A36000F093F8FF273F04F06850
:204E600044490140A942DFD2380000F0A7F9F06800F016F92070207808286CD1D4E7052B29
:204E800024D133681433A36033682433E36033682833236233681033636233681B1DA3620D
:204EA000354B23616161A061E26100F069F8334DF068082809D2280000F080F9F06800F0DB
:204EC000EFF820702078082845D141E70098A06000F056F8F068E9008842A5D2380000F0D5
:204EE0006DF9F06800F05AF820702078082832D19AE7402901D002290AD100230222290026
:204F000000F0F3F8207070690830706108351EE0032905D0042903D0052901D006290AD1FF
:204F200001230422290000F0E0F8207070691030706110350BE001290DD10123082229000D
:204F400000F0D3F8207070692030706120352078082800D100E700BF0020FEBDFEE700BFF9
:204F6000E40F0020000D0020FBC300000000EF1F0000AF1FFFFFFFFD00002E1700002F17D2
:204F80008A48006800688A490968014005D089480068894901608C4901607047F8B504000B
:204FA0000027FF43380000F03BF9082829D100947E480468F825ED438E4E009810282068BB
:204FC00001D3304000E02840206020680099C90002220A43024322602068802149020143EB
:204FE0002160380000F01CF9216802229143216000991029216802D30E402660F2BD0D40F1
:205000002560F2BD70B505000024E443200000F007F908281BD1280064490D68764E29681C
:20502000314029602968C000022202430A432A6028688021490201432960200000F0F0F8A4
:20504000296802229143296029680E402E6070BD70B505000024E443200000F0E1F8082816
:205060001DD12800082800D3083850490D68634E29683140296029680002042202430A4342
:205080002A602868802101432960200000F0C8F8296804229143296029680E402E6070BD0A
:2050A00070B505000024E443200000F0B9F808281AD128003D490D68514E29683140296052
:2050C00029688001042202430A432A602868202101432960200000F0A3F8296804229143A8
:2050E000296029680E402E6070BDF3B581B0040017001D000020C04300F092F8082828D1B6
:2051000068460570294D28683E4E016832680A43026068460078002801D0BFF34F8F002257
:205120002100029B6846007808E01C680C60040001D0BFF34F8F091D1B1D521CBA42F4DBB7
:205140000020C04300F06CF829680A6833689A430A60FEBD0000F8B505000C000026F6431B
:20516000300000F05DF808281ED1200029000F4C22681368244D1D40156013688025AD00E2
:205180001D4315601F4D13682F681F431760BFF34F8F0860BFF34F8F300000F041F8216879
:2051A0000A682B689A430A60F2BD0000240D0020180D0020280D002023016745134909686C
:2051C0000860704700000000AB89EFCD08201049096809680F4A12680A4001D00120704797
:2051E0000D49096809680D4A12680A4000D006207047000007C0FFFF07F0FFFFFFF8FFFF00
:205200003FE0FFFF1C0D0020FFFCFFFF200D0020080D0020140D00200C0D0020100D0020F6
:2052200010B50400FFF7D2FF04E0002C06D0FFF7CDFF641E0128F8D0002C00D1092010BDD0
:2052400070B40123002413E00168001D194202D04D466D1E49190C60091D121F042AFAD2FF
:205260000D00960701D50C80AD1C1A4000D02C700268001D002AE7D170BC704710B5074932
:2052800079441831064C7C44163404E0081D0A68891888470100A142F8D110BD080000003F
:2052A000140000009DFFFFFF2C000000000D00200000000000F00DF8002801D0FFF7DEFF26
:2052C00000BF00BF002000BF00BFFFF7E7FC00F002F80120704780B500F002F801BDFEE755
:2052E0000746384600F002F8FBE7FEE780B500BF00BF024A11001820ABBEFBE72600020077
:205300000548014603B4684680F3098800BF00BF00BF00BFFFF7CEFFA5EDF5FE00480047BD
:20532000E9070020FEE7FEE7FEE7FEE7FEE7FEE7FEE7FEE7FEE7FEE7FEE7FEE7FEE7FEE7D7
:20534000FEE7FEE7FEE7FEE7FEE7FEE7FEE7FEE7FEE7FEE7FEE7FEE7FEE7FEE7FEE7FEE7FD
:20536000FEE7FEE7FEE7FEE7FEE7FEE7FEE7FEE7FEE7FEE7FEE7FEE7FEE7FEE7FEE7FEE7DD
:20538000FEE7FEE7FEE7FEE7FEE7FEE7FEE7FEE7FEE7FEE7FEE7FEE7FEE7FEE7FEE7FEE7BD
:2053A000FEE7FEE7FEE7FEE7FEE7FEE7FEE7FEE7FEE7FEE7FEE7FEE7FEE7FEE7FEE7FEE79D
:2053C000FEE7FEE7FEE7FEE7FEE7FEE7FEE7FEE7FEE7FEE7CDCDCDCD9D480178422904BF1B
:2053E00041784D2909D18178532901BFC1784C2900794B2801D10120704700207047954877
:2054000000797047F0B5934930220A7037224A7039228A70CA7000220A718F4A537B422BBC
:205420007BD1937B312B00F01181937B977B0B7089600024D37B4B70137C8B70537CCB70EF
:205440000FF218231D4600E0641C15F8066BBE4201D2732CF8DB04EB44056D00977BEE5C89
:20546000BE420AD1ED18D67B6D78B54205D2732CB8BF641CEFDB00E0641C04EB44056D00E3
:20548000977BEE5CBE4201BFED186E78D77BBE4205D1AD78167CB54201D2732CECDB04EB07
:2054A00044056D00967BEF5CB74201BFEF1897F801C092F80FE0F4450ED197F802C092F85E
:2054C00010E0F44508D1FF7892F811C0674503D2732CB8BF641CE2DB732C80F2B780EC5C94
:2054E000B44201BFEF187B78D47BA34240F0AE80BB78147CA34202BFFB78527C934240F0BB
:20550000A580BA88904200F0A180302008703720487039208870C870F0BD1378562B1ED139
:2055200053784E2B04BF94784F2C07D1D478442C01BF1479452C54795F2C10D04E2B04BF17
:205540009378552B53D1D378432B04BF13794C2B4DD15379452B04BF93794F2B47D14FF41F
:205560008264031B18D05B1F3BD09B1E1DD01A3B29D09B1E1BD01B1F13D05B1E21D05B1E22
:205580000DD0DB1F17D09B1E23D01B1F1FD05B1E23D05B1E11D02AE030238B7024E0302303
:2055A00020E031238B7030231EE031231AE032238B70302318E0322314E033238B70302375
:2055C00012E033230EE034238B7030230CE0342308E035238B70302306E036238B70302392
:2055E00002E036238B703523CB7001230B711378562B04BF5378442B28D19378492B04BFFE
:20560000D278532A22D140F21542801A16D0801E04D0213808D011380AD0F0BD3820487044
:205620003020887035200EE038204870312008E03820487031208870352004E038204870F4
:20564000322088703020C87001200871F0BD00003F3C0008641D0020323C000830373030D0
:20566000100430373035390430373130370430373135170430373230330430373235400410
:20568000303732364004303732396004303733304804303733314804303733353804303722
:2056A0003430310430373431310430373432630430373433630430373434580430373435EC
:2056C000460430373436220430373437460430373530420430373535480430373630470426
:2056E000303736341504303736351504303737303504303737347004303737353804303712
:205700003736700430373737210430373738210430373739350430373830570430373831A9
:2057200070043037383261043037383347043037383545043037383834043037393025047D
:20574000303739314404303739351904303739361904303739371904303830351704303807
:2057600031303804303831315204303831325204303831335004303831345004303831353C
:20578000490430383136490430383137510430383138510430383230150430383231620441
:2057A00030383232610430383233610430383235410430383236410430383237150430380B
:2057C000323861043038323962043038333013043038333347043038333511043038333610
:2057E000500430383339950430383430210430383431690430383432500430383433500478
:2058000030383434500430383435640430383436640430383437500430383438600430382A
:2058200034396004303835306804303835316804303835326604303835333904303835340D
:205840007204303835357204303835365204303835374904303835385004303835398004BD
:20586000303836308004303836318004303836328004303836337104303836346904303842
:20588000363571043038363697043038363753043038363843043038363953043038373073
:2058A0006804303837318304303837326704303837339604303837348304303837358304C8
:2058C0003038373697043038373781043038373884043038373949043038383062043038DB
:2058E00038319704303838327904303838339404303838349504303838357004303838365E
:20590000820430383837820430383838810400002DE9F0410446884616461F46802586B14B
:2059200000224146204603F068FD802804D0802D02D107B13C600546641C761E08F101084F
:20594000EED12846BDE8F0812DE9F041160004460D461F464FF0800810D0297800222046D5
:2059600003F03DFE802805D0B8F1800F02D107B13C608046641C6D1C761EEED14046BDE8D0
:20598000F0810000F0B5DFF8684D20788FB010B905200FB0F0BD02F0A6FE0546802D04D1D1
:2059A00009A907A803F0E8F90546802D07D107980005000D40F27741884240F03B8504F198
:2059C000540002F03FFD0546802D02D1606D00050AD10020009002AB012204F15401DFF82C
:2059E000F80D03F0BBFB0546802D02D1606D00050AD10020009002AB012204F15401DFF8E0
:205A0000FC0D03F0ABFB0546802D02D1606D00050AD10020009002AB012204F15401DFF8CB
:205A2000E00D03F09BFB0546802D02D1606D00050AD10020009002AB012204F15401DFF8D7
:205A4000F80D03F08BFB0546802D02D1606D00050AD10020009002AB012204F15401DFF8AF
:205A6000DC0D03F07BFB0546802D02D1606D000509D102F05BFB18B102F058FB606502E060
:205A8000802D41F0C2810020A066A07040F212464FF6FF70A0670020E07020716071A07187
:205AA000606D0105090DB142616500F04484B1F5826F15D14FF4A0404FF400324FF4806351
:205AC00004F10801A06561670846DFF8741D63668842E26540F097844FF4007000F09ABC27
:205AE00040F21440814218BFB1F5856F06D14FF400404FF400224FF40063E1E7B1F5866F24
:205B000008D14FF4C0304FF480124FF4006304F12001D7E740F21147B9421CBF40F2134045
:205B2000814229D1DFF8B40D206702AB00200090012205A9DFF8A80D03F010FB0546802DD9
:205B400041F063810598C0F303100328059004D0042840F06F8440F213472020A06667654C
:205B60004FF48012DFF87C0DE0664FF400304FF4804304F13801A5E740F2194040F2344244
:205B800081421EBF914240F25140814217D1DFF84C0D20672020A0669142DFF8480DE066E2
:205BA0004FF4403008BF4FF4A02005D040F25142914208BF4FF400204FF40012D7E7B1F518
:205BC0008B6F0CD1DFF8140D20674FF400322020A066DFF8100DE0664FF40040C7E740F217
:205BE000234081420CD1DFF8F40C20674FF480222020A066DFF8EC0CE0664FF48030B6E774
:205C000040F2334040F23147814218BFB94207D040F2214081421CBF40F2524081421DD123
:205C2000DFF8B80C20674FF400222020A066B942DFF8B00CE0664FF480434FF4C03002D1B7
:205C40004FF4003095E740F22147B942F8D040F25247B9428DD14FF480208AE740F24140CD
:205C600081420ED1DFF8740C20674FF480122020A0664FF40043DFF86C0CE0664FF480208B
:205C800077E740F2634081420CD1DFF8500C20674FF4C0122020A066DFF8480CE0664FF468
:205CA000A02064E7B1F58C6F0FD1DFF83C0D20674FF40032DFF8340DA0664FF40063DFF8A1
:205CC000300DE0664FF4104053E740F2664040F25642814218BF914213D1DFF80C0D20670A
:205CE0009142DFF8080DA0664FF48032DFF8000DE0664FF400634FF4005008BF4FF400304D
:205D000037E740F2674081420FD1DFF8DC0C20674FF40022DFF8D40CA0664FF40063DFF804
:205D2000D00CE0664FF4103023E740F2075081420FD1DFF8B40C20674FF40032DFF8AC0C66
:205D4000A0664FF40063DFF8A80CE0664FF400400FE740F2434081421CBF40F25340814272
:205D60000AD040F2934081421FBF40F24C40814240F24D40814224D1DFF86C0C206740F2A3
:205D80009347DFF8680CA0664FF40043DFF8600CE066B9424FF440501A4604D14FF4C04083
:205DA0004FF400321DE240F24C47B94200F0178240F24D47B94240F0148218464FF480225C
:205DC0000FE240F27943B1F58D6F18BF994211D1DFF8140C20674FF400324020A06699427A
:205DE000DFF80C0CE0664FF4004040F0FA814FF4E030F6E140F2694081420ED1DFF8E80BCF
:205E000020674FF400224020A0664FF40063DFF8E00BE0664FF40030ABE640F272408142D7
:205E20000ED1DFF8F00D20674FF400220220A0664FF40063DFF8E00DE0664FF4802098E68A
:205E400040F2814040F27642814218BF914212D1DFF8C00D20674FF400530420A066914257
:205E6000DFF8B40DE0664FF480024FF41C1008BF4FF43C107DE640F2824081420ED1DFF8EA
:205E8000940D20674FF400120420A0664FF40053DFF8840DE0664FF440206AE640F254405E
:205EA00081420ED1DFF86C0D20674FF480120420A0664FF48053DFF8600DE0664FF48020E7
:205EC00057E640F2554081420ED1DFF8480D20674FF400220420A0664FF40053DFF8380D28
:205EE000E0664FF4802044E640F2924081420ED1DFF8200D20674FF480120420A0664FF4DC
:205F00000053DFF8140DE0664FF4003031E6B1F5966F0ED1DFF8FC0C20674FF400120420FD
:205F2000A0664FF40053DFF8F00CE0664FF400201FE6B1F58A6F0DD1DFF82C0D20674FF4ED
:205F400000330120A0664FF40012DFF8200DE06618460EE6B1F5906F0ED1DFF80C0D2067FB
:205F60004FF400120320A0664FF40053DFF8FC0CE0664FF40030FCE540F28440814218BF04
:205F8000B1F58F6F15D1DFF8E80C20674FF400120620A066B1F58F6FDFF8FC0DE0664FF497
:205FA00000534FF4202004BF4FF488204FF40022DFE540F2854081420ED1DFF8E00D206750
:205FC0004FF480320520A0664FF40053DFF89C0CE0664FF40030CCE540F2744081420ED19A
:205FE000DFF88C0C20674FF400320620A0664FF40053DFF8A40DE0664FF40040B9E540F253
:020000040800F2
:20600000834081420DD1DFF8600C20674FF400330120A0664FF48012DFF8500CE066184609
:20602000A7E540F2354081420ED1DFF8BC0920674FF480224020A0664FF40063DFF8B009E7
:20604000E0664FF4803094E540F2494081420ED1DFF8880820674FF480122020A0664FF4E5
:206060000043DFF88008E0664FF4A02081E540F2624081420ED1DFF8700920674FF400221D
:206080004020A0664FF40063DFF86409E0664FF420306EE540F2644081420ED1DFF84809E4
:2060A00020674FF400324020A0664FF40063DFF84009E0664FF420405BE540F2154040F2D6
:2060C0006142814218BF914212D1DFF81C0920674FF400634020A0669142DFF81409E06631
:2060E0004FF480124FF4C03008BF4FF4A02040E540F2954040F29643814218BF994211D140
:20610000DFF8900DDFF8E478DFF88CCD206799424FF480204FF4801242D14FF4C0304FF405
:2061200000223DE040F2944081420ED1DFF86C0D20674FF4A0224020A0664FF40063DFF8B9
:20614000580DE0664FF4404013E540F2974081420FD1DFF8480D20674FF48022DFF88C082A
:20616000A0664FF40063DFF8300DE0664FF48030FFE440F27143B1F58E6F18BF994215D122
:20618000DFF86408DFF868C8206740274FF420204FF40012994204BF4FF4A0204FF4801279
:2061A000C4F86CC0A7664FF48053E2E440F2594399421CBF40F28940814215D1DFF82808DF
:2061C00020679942DFF82408A0664FF48022DFF82008E0664FF4204003D14FF400504FF4DD
:2061E00080324FF40063C4E440F2164081420ED1DFF8AC0C2067DFF8EC06E0664FF480404D
:206200004FF400324FF48073DFF834165AE440F22940814208D1DFF8880C2067DFF8C406AA
:20622000E0664FF40040EBE740F2274081420AD1DFF86C0C20674FF48022DFF8A806E06606
:206240004FF40040DEE740F2364081420AD1DFF8500C20674FF4C022DFF88806E0664FF4E3
:206260004040CFE740F2374081420AD1DFF8300C20674FF40022DFF86C06E0664FF4A03000
:20628000C0E7B1F5836F06D14FF4A0404FF480224FF4006314E4B1F5846F08BF4FF400504F
:2062A0003FF40AAC40F22440814204D14FF420504FF4004202E440F2324081425AD040F2E6
:2062C0002240814207D14FF420404FF480224FF40063FFF7F5BBB1F5876F07D14FF44050A6
:2062E0004FF480324FF40063FFF7EABB40F23940814207D14FF480404FF480324FF4006384
:20630000FFF7DEBB40F24640814207D14FF480304FF400224FF40063FFF7D2BBB1F5886F7D
:2063200005D14FF400504FF48032FFF7C7BB40F24440814205D14FF480504FF40042FFF7AA
:20634000BDBBB1F5896F07D14FF480404FF400324FF40063FFF7B4BB40F24540814205D17C
:206360004FF4C0504FF40042FFF7A8BB40F24240814207D14FF400404FF480224FF400638F
:20638000FFF79EBB40F25740814208D1DFF88808E0664FF480424FF40060802334E740F204
:2063A0002540814208D1DFF87008E0664FF400424FF40050802327E740F21740814208D159
:2063C000DFF85408E0664FF480324FF4005080231AE740F24740814208D1DFF83C08E06662
:2063E0004FF440324FF4A04080230DE740F2864081421CBF40F2994081421BD10020E06579
:206400000FB08020F0BD04F1380188420CBFDFF8940A0020802D206508D10020009000233A
:20642000206F012203A902F099FE0546802D04D00120A07004200FB0F0BD676DB8B2FEF7B5
:20644000E1FFB7F5826F18BFB7420ED040F21440874218BFB7F5836F07D0B7F5846F1CBFFC
:20646000B7F5856FB7F5866F13D102AB022201A9DFF8340AFFF74CFA05460021DFF82C0AB2
:2064800000F0DBFC9DF80C00800740F1B28400F01ABC40F2224087421CBF40F2324087423B
:2064A0001CD0B7F5876F1CBF40F23940874215D0B7F5886F1CBF40F2424087420ED040F20F
:2064C000444087421CBF40F24540874206D040F24640874218BFB7F5896F12D102AB02228E
:2064E00001A9DFF8B00CFFF713FA05460021DFF8A80C00F0A2FC9DF80C00800740F1798481
:20650000E1E340F2434087421CBF40F25340874212D040F2594087421CBF40F289408742BB
:206520000AD040F2934087421FBF40F24C40874240F24D4087420FD102AB022201A9DFF894
:20654000C00CFFF7E5F905460021DFF8B80C00F074FC9DF80C00B3E340F21546B7421CBF9C
:2065600040F23540874240D040F25640874218BFB7F58C6F39D040F2614087421CBF40F2DA
:206580006240874231D040F2644087421CBF40F26640874229D040F26740874218BFB7F556
:2065A0008D6F22D040F26940874218BFB7F58E6F1BD040F2714087421CBF40F279408742A3
:2065C00013D040F2944087421CBF40F2954087420BD040F2964087421FBF40F29740874202
:2065E00040F20750874240F0C38002AB022201A9DFF8600CFFF78CF905460020009006ABF1
:2066000003220AA9DFF8500C02F0A8FD802806D10AA842680A9980685140484000E0002059
:2066200020669DF80C00AA2840F04D83802D04BFA078002840F0DD83606DB0421CBF40F255
:206640006141884227D103AEB078800640F1D183002000900023012204A9DFF8000C02F07A
:206660007DFD0546BDF80400B0F5007F05D19DF81300C00700F1BD8363E0B0F5807F40F0EB
:20668000B883B078800640F1B4839DF81300800700F1AF8355E0B0F58E6F1CBF40F27141C1
:2066A000884254D103AEB07840064DD54FF480506066002300200090012204A9DFF89C0BB0
:2066C00002F04CFD0546606DB0F58E6F21D1BDF80400B0F5806F0DD1B07800F060006028A8
:2066E00040F087839DF81300C00700F1828328E0BC190020B0F5007F02BFB07800F06000A1
:20670000602840F076839DF81300800700F1718317E040F27141884240F06B83BDF8040038
:20672000B0F5806F0DD0B0F5007F02BFB07800F06000602840F05D839DF81300C00700F193
:2067400058830120A07154E34FF400500EE040F26941884240F04D839DF80E00400643BFE3
:206760000120A0714FF400604FF48050606640E340F25446B74267D040F2554087421FBFDE
:2067800040F27240874240F2764087423AD040F2814087421CBF40F28240874207D040F234
:2067A000924087421AD0B7F5966F40F09D8002AB022201A9DFF8B00CFFF7AAF80546002045
:2067C000009006AB03220AA9DFF8A00C02F0C6FC802837D129E000BF002004E002AB02221C
:2067E00001A9DFF88C0CFFF793F805460020009006AB03220AA9DFF87C0C12E00058014091
:206800000010005C02AB022201A9DFF86C0CFFF77FF805460020009006AB03220AA9DFF87A
:206820005C0C02F09BFC80280CD10AA842680A998068514048400AE0004004E0004002444E
:20684000EC1B0020002002E00020ADF80400206640F272419DF80C00AA281CBF0120A0705C
:20686000606D88420BD19DF80E00400643BF0120A0714FF400604FF4805060660EE0B0422C
:206880001CBF40F25541884206D040F28241884218BFB0F5966F01D10120A0719DF80F00CD
:2068A000000619D50FF26851CCC90AA8802DCCC04F48E06607D1002304220AA9DFF8C00B57
:2068C00002F0CFFD0546802D40F09382002304220AA9DFF8C00C58E2CF485BE2143C0240FE
:2068E00000ED00E0003C024040F2114087421CBF40F2134087421ED040F2194087421CBFBB
:2069000040F22140874216D040F2234087421CBF40F2314087420ED040F2334087421CBF69
:2069200040F23440874206D040F24140874218BFB7F58B6F4AD102AB022201A9DFF8580C48
:20694000FEF7E6FF05460020009006AB03220AA9DFF8480C02F002FC802806D10AA84268E3
:206960000A9980685140484000E00020206603AE7078AA2840F0A781802D04BFA07800287A
:2069800040F03782606D40F2194188421CBF40F23441884240F02D820020009000230122CA
:2069A00004A9DFF8FC0B02F0D9FB0546BDF80400B0F5806F40F01D82F078400640F11982A5
:2069C0009DF81100000600F114821FE140F2634087420FD10020ADF80400009006AB0322D7
:2069E0000AA9DFF8B80B5CE120200240400000800420024040F2174087421CBF40F22540A1
:206A0000874207D040F2474087421CBF40F25740874229D102AB022201A9DFF8880BFEF713
:206A200077FF05460020009006AB02220AA9DFF8780B02F093FB802808D10020009006ABA1
:206A400001220CA9DFF8640B02F088FB802806D10AA842680A9980685140484000E0002024
:206A600020669DF80C002BE140F21640874229D102AB022201A9DFF8980CFEF749FF05461A
:206A80000020009006AB02220AA9DFF81C0B02F065FB802808D10020009006AB01220CA9B4
:206AA000DFF8080B02F05AFB802806D10AA842680A9980685140484000E0002020669DF80B
:206AC0000C00FDE040F2274087421FBF40F23640874240F23740874229D102AB022201A935
:206AE000DFF8300CFEF714FF05460020009006AB02220AA9DFF8200C02F030FB802808D157
:206B00000020009006AB01220CA9DFF8100C02F025FB802806D10AA842680A998068514040
:206B2000484000E0002020669DF80C00C8E040F2494087420FD102AB022201A9DFF8E00B5D
:206B4000FEF7E6FE05460020009006AB03220AA9DFF8D00BA5E040F2524087420FD102AB87
:206B6000022201A9DFF8C00BFEF7D2FE05460020009006AB03220AA9DFF8B00B91E040F227
:206B80005140874259D102AB022201A9DFF8900BFEF7BEFE05460020009006AB03220AA94F
:206BA000DFF8800B02F0DAFA802806D10AA842680A9980685140484000E00020206603AEF7
:206BC0007078AA2840F07F80802D04BFA078002840F00F81F078800600F10B810020009041
:206BE0000023012204A9DFF8480B02F0B7FA0546802D40F0FE80BDF80400B0F5806F0DD104
:206C00009DF8110000F0C000802813D101202071EFE000BF4020024000200240B0F5007F2A
:206C200002BF9DF8110000F0C000402802D101206071DEE00120E070DBE0B7F58A6F1CBFA6
:206C400040F28340874215D102AB022201A9DFF8E40AFEF75DFE05460020009006AB03222F
:206C60000AA9DFF8D40A1CE01C2000520020005250200250B7F5906F28D10020009002ABED
:206C8000012206A9DFF8B40A02F068FA05460698ADF8040008AB0020009003220AA9DFF895
:206CA000A00A02F05BFA802806D10AA842680A9980685140484000E0002020669DF80D003C
:206CC000AA2800F096800120A07092E040F28440874218BFB7F58F6F62D10020009002AB69
:206CE000012206A9DFF8540A02F038FA05460698ADF8040008AB0020009003220AA9DFF8C5
:206D0000400A02F02BFA802806D10AA842680A9980685140484000E0002020669DF80D006B
:206D2000ED281CBF0120A070802D09D10020009002AB012206A9DFF80C0A02F00FFA054649
:206D4000802D02BF069800F07F4010F1984F20D10FF2CC016CC90AA80AA96CC0606D042614
:206D6000B0F58F6FDFF8E009E06608BF012600233246DFF8200802F074FB0546802D38D180
:206D8000002332460AA9DFF8C40902F06AFB05462FE00148E0662CE00020025000220052CF
:206DA00040F28540874224D040F27440874220D10020009002AB012206A9DFF8800902F0FE
:206DC000CDF905460698ADF8040008AB0020009003220AA9DFF8680902F0C0F9802806D1AE
:206DE0000AA842680A9980685140484000E000202066802D09D1BDF80400102805DBE26D66
:206E0000B0EB922F3CBF8002E06528460FB0F0BDFFFFFFFFFFFFFFFFFFFFFFFFFFFFFFFF8A
:206E2000FFFFFFFFFFFFFFFFFFFFFFFFFFFFFFFFDFF81C19096E0160704710B5012986B0A2
:206E4000044611D10020009001AB022202A9204602F084F980280FD10020009001AB0122FF
:206E600004A904F1140005E00020009001AB032202A9204602F072F9802805D102980399D4
:206E800048400499484000E00020DFF8C418086606B010BD0080FF1F044000580078FF1FD1
:206EA0001C3C024000F8FFFFE0F7FF1FE8F7FF1F30B4DFF89C184C6FA0F10062002334B12B
:206EC000B0F1006F03D301F13800844203D030BC4FF0FF307047486D40F21544A0421CBFFB
:206EE00040F23545A8427CD040F24345A8421CBF40F24C45A84274D040F24D45A8421CBFB7
:206F000040F25345A8426CD040F25445A8421CBF40F25545A84264D040F26645A8421CBF65
:206F200040F26745A8425CD0B0F58D6F1CBF40F26945A84255D0B0F58E6F1CBF40F271458D
:206F4000A8424ED040F27245A8421CBF40F27445A84246D040F27645A84218BFB0F58F6F3F
:206F60003FD040F27945A8421CBF40F28145A84237D040F28245A8421CBF40F28945A842BC
:206F80002FD040F29245A8421CBF40F29345A84227D040F29445A8421CBF40F29545A84273
:206FA0001FD040F29645A8421CBF40F29745A84217D0B0F5966F1CBF40F20755A84210D054
:206FC000B0F58A6F18BFB0F5906F0AD040F28345A8421FBF40F28445A84240F28545A84231
:206FE00077D14B6EE3B94FF400634B66B0F58E6F1CBF40F27143984203D14FF480534B66C5
:2070000032E040F29543984206D14FF480504866486EB2FBF0F0AEE040F296439842F4D068
:2070200040F2544398421CBF40F2694398421BD040F2724398421CBF40F28243984213D0DF
:2070400040F25543984218BFA0420DD040F26143984218BFB0F58E6F06D040F27143984237
:2070600018BFB0F5966F0ED18B79012B0BD1CB6DB2EB530F07D3A2EB53004A6EB0FBF2F06E
:2070800000F5807077E040F2674398420BD1C86DB2EB500FBCD3A2EB50004A6EB0FBF2F040
:2070A00000F5806067E040F2744398421EBFB0F58F6F40F284439842AAD1C86DB2EB500FF2
:2070C000A6D3A2EB50004A6EB0FBF2F000F1007051E040F24944A04208BF4FF480243BD029
:2070E00040F25144A0421ED1C87801284FF4802405D1B2F5801F4FF400342DD320E0087994
:20710000012805D1B2F5002F4FF4003424D320E04879012820D1B2F5802F4FF400341BD396
:20712000A2F5802217E040F21945A8421CBF40F23445A8424FF400340ED1B2F5801F02D3C4
:20714000A2F5801207E0B2F5002F05D3087901280DD1A2F500221023A24208D2B2EB540F3F
:207160002FBF181DE008B2FBF0F0C01803E0B2FBF4F0C018001D8A6F4FF6FF739A4201D0D9
:20718000824202D0886730BC704730BC6FF0010070470000CCF7FF1FACF7FF1F38B5DFF85E
:2071A000B055686F08B9062032BD41698A0301690023120C4FF0005002F053F980281DD1D8
:2071C000002000900023686FDFF8884540698203120C21464FF0005001F0C0FF80280DD1E9
:2071E0006A6F002100E0491C5369994206D2136914F8015BCB5CAB42F5D00D2032BD000008
:20720000A075FF1F5075FF1F10B5040082B001D1062016BD00202070002200A9DFF88C0DA7
:2072200001F0B9FC802813D10099890148BF04210DD40099890348BF012108D4009909031D
