:020000040800F2
:2000000000080020652700084522000847220008492200084B2200084D22000800000000E5
:20002000000000000000000000000000512200084F220008000000005322000855220008D0
:2000400057220008592200085B2200085D2200085F22000861220008632200086522000860
:2000600067220008692200086B2200086D2200086F220008712200087322000875220008C0
:2000800077220008792200087B2200087D2200088122000885220008872200088922000812
:2000A0008B2200088D2200088F22000891220008D1220008D3220008D5220008D722000868
:2000C000D9220008DB220008DD220008DF220008E1220008E3220008E5220008E7220008D0
:2000E000E9220008EB220008ED22000810B5DFF89C47002800D12FE0DFF8940700680068F8
:20010000804720680A3010BD80B5DFF880070068C178DFF8802752788A420DD38278002A3D
:200120000AD18288002A07D18172DFF86407006840688047002002BD022002BD10B5DFF870
:200140004C47002800D107E0DFF8440700688068804720680C3010BD206801210182002015
:2001600010BD10B5DFF824472068C1784079DFF8282712689269904721688A7A002A07D031
:20018000002805D10879002802D18878002801D0022010BDDFF8F8060068C0688047206849
:2001A0004179C1722068C1780173002010BD10B5DFF8D8160968002803D10220088200206D
:2001C00010BDDFF8D8460020208008787F22104216D1487A810603D5002141F0020121703C
:2001E0004006207809D540F001002070DFF8A006006800698047204610BD00F0FE00F4E771
:2002000000F07F02012AF6D000F07F000228D6D1487900F00F01DFF88826000652F8210085
:2002200005D500F030001028E0D10020DBE700F44050B0F5805FD9D10020D4E770B5DFF870
:200240004C060068017811F07F0102BF417A01F0DF01417254D0022905D14188002902D100
:200260000179002901D0022070BD417921F08005DFF82C460A0654F825204CBF02F0300252
:2002800002F44052DFF80C361B789D42EBD2002AE9D0807A0028E6D0080654F825000BD574
:2002A00000F03000102826D1284601F021FA3021284601F0D0F91EE000F44050B0F5805FF6
:2002C00019D14BF68F7665B9DFF8D80590F82C10002001F03AFA2068304080F44050206097
:2002E00009E0284601F0F4F954F82500304080F4405044F82500DFF8980500684069804737
:20030000002070BD38B5DFF884050268537923F08000DFF88C151C0651F820404CBF04F038
:20032000300404F44054DFF86C552D78A84207D25588002D04D1002C02D0927A002A01D118
:20034000022032BD1A0651F8202042BF48F6BF731A4082F0100204D44BF68F731A4082F4A9
:20036000805241F82020DFF82805006880698047002032BD80B5DFF814050068417A41F08E
:2003800020014172DFF808050068C0698047002002BDDFF8F8241268538A20B98888C01A61
:2003A000108200207047086818187047F8B5DFF8DC54286800F110042688A168080015D090
:2003C000A6B1A088864288BF06463046884707462088801B2080608830186080002001F0AD
:2003E000A6F932460146384602F0AAF8208860B1DFF8B4044FF4405101800021002001F0BE
:200400009DF9DFF8A8043021018028682188A288914202D303210172F1BD002901D0052181
:20042000F9E706210172DFF88804006880B2DFF88414002241F81020DFF87004302101802E
:20044000F1BD38B5DFF844442068457801787F2211422CD1092D02D1FFF756FE38E0052D56
:200460000BD1C178802906D2817821B9818811B9807A002839D0082045E0032D0AD1C17884
:20048000012926D1818821BB407A800621D5FFF771FF1DE0012D1CD1C178012919D181884C
:2004A000B9B9407A800614D5FFF7C8FE10E001F07F00012804D10B2D0BD1FFF752FE07E046
:2004C000022806D1012DEFD0032D02D1FFF71AFF58B12846DFF8C0130968496988470328DE
:2004E00008BF09200FD00028C5D10620DFF8C013096889B2DFF8BC23002342F81130DFF8C8
:20050000AC1330220A802168087231BD2DE9F041DFF8784320684178062919D101787F2202
:20052000114236D18078012802BFDFF86C030068C16979D0022802BFDFF85C030068016A6A
:2005400072D0032825D1DFF850030068416A6BE0002945D14188E1B9C188022919D1017936
:20056000B9B901787F22114204D1828812B9DFF8481359E001F07F02012A16D10021407929
:20058000C54A12689269904718B92068807A0028EDD120684078C0490968096988470328A1
:2005A0004BD12068092101729BE001F07F010229EFD1407900F00F0100F07002B84B0006FF
:2005C00053F821004CBF00F0300000F44050B14B1B789942DDD2002ADBD10028C7D1D8E792
:2005E000082905D100787F210842D2D1B3491BE00A29CED1017801F07F010129C9D1817A7D
:200600000029C6D041880029C3D101790029C0D1C1880129BDD1002140799F4A1268926928
:2006200090470028B5D1A6490800B2D0206800224282816100208847002021680A8A4FF6FB
:20064000FF739A4202D1092008724AE0022800D00AB90820F8E7087800063CD5C88890422F
:2006600038BF08828C48006890F82C00888201F11005288828B9097A042904BF0726102097
:2006800024D0AF88874205D30426B84288BF3846074600E00226B8B2A96888478046002020
:2006A00001F044F80146BAB2404601F035FFB9B2002001F043F82888C01B28806888381885
:2006C0006880302078494FF440520A80774908802068067205E00320087273484FF4405169
:2006E0000180BDE8F08138B576487149096889B2754A32F8111000EB4100644C21680A7A5F
:20070000092A14D010F8012B0A70216810F8012B4A70851C35F8040B01F060F82168488026
:20072000288801F05BF821688880A888C8802068012101722068C08810B9FFF782FE01E0AF
:20074000FFF7E4FEBDE831406FE02DE9F0414F4C2068017A022901D0042934D100F1100543
:20076000288820B9042904BF0726102024D0AF88874205D30426B84288BF3846074600E0C1
:200780000226B8B2A96888478046002000F0CEFFBAB20146404601F0BFFEB9B2002000F0E2
:2007A000CDFF2888C01B288068883818688030203D494FF440520A803C49088020680672D0
:2007C0002068007A14E0062911D1417805290AD101787F22114206D1C07800F040F82C4838
:2007E0000068006A80472C48006880688047082021680872BDE8F04117E010B5234C206821
:20080000007A032801D0052804D1FFF7CFFD2068007A06E0072803D11F480068C0688047F5
:20082000082021680872BDE8104080B51D4890F82C10002000F089FF14480068017A082932
:2008400006D119494FF480520A80184910220A80007A092801D1012002BD002002BDF0B4C3
:200860000C49097800220E4B59B11C4648F68F7526682E40D7B23E4344F8046B521C8A428E
:20088000F6D340F08000D864F0BC70474C1C0020541C0020100B0020501C0020941C002091
:2008A000005C0040000A00209C1C00209E1C0020505C004004600040AF010008ED00000883
:2008C0003D010008006000400860004070470000F0B5046842688368C0680C604A608B6004
:2008E000C860DFF8BC550A26DFF8B875C0F3074C1CF807C0C0F3072E1EF807E04FEA0E4E59
:200900004EEA0C6C5FFA80FE1EF807E04CEA0E2C4FEA106E1EF807E04EEA0C0C55F804EBA3
:200920008EEA0C0C8CEA040462405340584041F8104F4A608B60C860761ED7D1F0BDC7E7F0
:200940002DE9F04F02F2A002036852F8044B84EA030E436852F8044B84EA0308836852F837
:20096000044B84EA0309C06852F82C3983EA000C09201B23DFF830454FEA1E652D5DCCF3A6
:200980000746365D360446EA0565C9F30726365D45EA06255FFA88F6365D354316697540B7
:2009A0004FEA1866365DCEF307473F5D3F0447EA0666CCF307273F5D46EA07265FFA89F7A3
:2009C0003F5D3E4357697E404FEA19673F5DC8F3074A1AF804A04FEA0A4A4AEA0767CEF375
:2009E000072A1AF804A047EA0A275FFA8CFA1AF804A04AEA0707D2F818A08AEA07074FEA9A
:200A00001C6C1CF804C0C9F3074919F804904FEA094949EA0C6CC8F3072818F804804CEADB
:200A2000082C5FFA8EFE1EF804E04EEA0C0CD2F81CE08EEA0C0C05F07F3E25F07F384FEA46
:200A4000D81803FB08F888EA4E0E0EF07F382EF07F394FEAD91903FB09F989EA480808F069
:200A60007F3928F07F3A4FEADA1A03FB0AFA8AEA490989EA050585EA080A85EA0E0B88EA00
:200A80000E0E89EA0E0E8EEA3B6E8EEA3A4E8EEA352E06F07F3526F07F384FEAD81803FB11
:200AA00008F888EA450505F07F3825F07F394FEAD91903FB09F989EA480808F07F3928F04B
:200AC0007F3A4FEADA1A03FB0AFA8AEA490989EA060686EA080A86EA050B88EA050589EAF8
:200AE000050585EA3B6585EA3A4585EA362807F07F3527F07F36F6095E4386EA450505F05C
:200B00007F3625F07F394FEAD91903FB09F989EA460606F07F3926F07F3A4FEADA1A03FBC1
:200B20000AFA8AEA490989EA070787EA060A87EA050B754089EA050585EA3B6585EA3A4539
:200B400085EA37290CF07F352CF07F36F6095E4386EA450505F07F3625F07F37FF095F43CC
:200B600087EA460606F07F3726F07F3A4FEADA1A03FB0AFA8AEA470787EA0C0C8CEA060A3D
:200B80008CEA050B75407D4085EA3B6585EA3A4585EA3C2C103A401E7FF4EEAE4FEA186021
:200BA000005DCEF307431B5D1B0443EA0060CCF307231B5D40EA03205FFA89F31B5D184353
:200BC000536958404FEA19631B5DC8F307452D5D2D0445EA0363CEF307252D5D43EA052371
:200BE0005FFA8CF52D5D2B4395696B404FEA1C652D5DC9F30746365D360446EA0565C8F30B
:200C00000726365D45EA06255FFA8EF6365D3543D66975404FEA1E66365DCCF307473F5DE5
:200C20003F0447EA0666C9F307273F5D46EA07265FFA88F73C5D3443126962400A604860DA
:200C40008B60CD60BDE8F08F2DE9F047036814686340446855686C40856896687540C068A4
:200C6000D66886EA000802F1100009221B268D4F4FEA136C1CF807C0C4F3074E1EF807E0D7
:200C80004FEA0E4E4EEA0C6CC5F3072E1EF807E04CEA0E2C5FFA88FE1EF807E04EEA0C0C89
:200CA0004FEA146E1EF807E0C5F3074919F807904FEA094949EA0E6EC8F3072919F80790FF
:200CC0004EEA092E5FFA83F919F8079049EA0E0E4FEA156919F80790C8F3074A1AF807A0B5
:200CE0004FEA0A4A4AEA0969C3F3072A1AF807A049EA0A295FFA84FA1AF807A04AEA0909E5
:200D00004FEA186818F80780C3F30743DB5D1B0443EA0863C4F30724E45D43EA0423ECB27F
:200D2000E45D44EA03082CF07F33DB0973430CF07F348CEA44055D4093EA440383EA3563FD
:200D400083EA3C4383EA3C2350F8044B63402EF07F34E40974430EF07F358EEA450C84EA43
:200D60000C0C94EA450484EA3C6484EA3E4484EA3E2450F8045B6C4029F07F35ED097543F8
:200D800009F07F3C89EA4C0E85EA0E0E85EA4C0585EA3E6585EA394585EA392550F804CBA4
:200DA0008CEA050528F07F3C4FEADC1C06FB0CFC08F07F3E88EA4E098CEA09098CEA4E0CD0
:200DC0008CEA396C8CEA384C8CEA382C50F804EB8EEA0C08521E7FF44BAF220ED25DC5F36D
:200DE0000746F65D360446EA0262C8F30726F65D42EA0622DEB2F65D3243466872402E0E02
:200E0000F65DC8F3074C1CF807C04FEA0C4C4CEA0666C3F3072C1CF807C046EA0C265FFAE4
:200E200084FC1CF807C04CEA0606D0F808C08CEA06064FEA186C1CF807C0C3F3074E1EF84A
:200E400007E04FEA0E4E4EEA0C6CC4F3072E1EF807E04CEA0E2C5FFA85FE1EF807E04EEAFC
:200E60000C0CD0F80CE08EEA0C0C1B0EDB5DC4F30744E45D240444EA0363C5F30724E45D92
:200E800043EA04235FFA88F4E45D23430068584008604A608E60C1F80CC0BDE8F0870000E1
:200EA000300A0020000800200009002080B500F0B5FCC049087001BD2DE9F04106460C468D
:200EC000B04614F003000BD04FF6FC702040001D844205D2FF22011BB748201801F0C4FA4C
:200EE000002744B1B44D7959304600F0B5FC361D3F1DA742F7D3B1480021418234B1418AFD
:200F000018F8012B51184182641EF8D1418A028A91420CBF00210321C172BDE8F081A748AC
:200F2000022181720021C172A5480170704710B5A4484168A44C216061600068083801F00D
:200F40003FFA6068BDE810400047000030B587B09E484178491E072900F22581DFE811F0A2
:200F6000260023019100E60001010E01220008001422974901A801F04CFA964800788DF8A4
:200F800008001422A02101A801F0C6FA1421012000F0D4FB3021012000F05DFB8E4803212F
:200FA000017005E185480721017301E1834CA17A022901D005295BD182796AB9C17959B9E5
:200FC000012060620620A072E07A207000206070608006202071E9E07F490B78CBB9C378B2
:200FE000857845EA03232362C37942EA0322A2614279007940EA02202082A069E0610020FE
:20100000E081012008704FF44051022000F035FBCEE0724D206A90B9002100F029FF2878A7
:2010200020732879E978090441EA0060A97840EA01206978084360610320A072CAE7E089DB
:201040000019A269412A0BD340222946283001F0D3F9E0894030E081A0694038A061D2E7C8
:201060002946283001F0C8F90320A07220719DE00A20A0720F2020700020607060800A20BF
:20108000A8E74E4CA07A032818D0042802D0062845D03EE0607BC00741D50520A07220711B
:2010A000002060706080E07A2070607B00F0FE0060730021012000F0DBFE30E0607BC1071C
:2010C0000CD50520A0722071002060706080607B00F0FE006073E07A2070EAE70421A17208
:2010E0002171217B412901D0512901D1502100E0002100919DF8001061709DF80110A1700B
:201100009DF80210E170E17A217040F00200607305E02071002060706080E07A207006228E
:20112000A021204601F0F8F9062130E7234CA07A0A2808D10220A07200202060022020714D
:20114000002060710BE00A20A0720E2020700020607060800A202071002060710E20E072BD
:2011600024E0164CA07A6072E07A20720222A02104F1080001F0D0F9022108E70F4CA07A0E
:20118000801E012804D9C01E012801D9001F0DD10220A07200202060022020710020607155
:2011A0002062A061DBE7022000F01CFE00F009FE07B030BDA61C00203C130020140B002093
:2011C000651C002000400008881C0020681C0020E0F7FF1F203C0008641C0020F01B00209A
:2011E00010B49348016842688068D9B1914B9970C1F307241C71C1F307449C71090E1972CC
:201200009A72C2F307211973C2F307419973110E19749874C0F307211975C0F30741997526
:20122000000E187610BC704780B583480068807A40B1012000F05CFA022000F049FA7F48B9
:201240000021017001BD000038B5FFF7C9FF7A4C20680021817201F0CFF9794800214160F5
:201260004FF40441774A1180016020687649C9794172764D2068807A60B92878012804D1FB
:201280004FF4FA71042000F0F3FD00BF2068807A0028F2D06E480521017031BD10B56D48BC
:2012A00000218172002000F0C7F94FF40071002000F0C9F92021002000F0CDF9202100204C
:2012C00000F02DFA644C94F82C10002000F03DFA6021002000F022FA002000F0EDF9002075
:2012E00000F0E0F90021012000F0ADF9A021012000F014FA2021012000F0ADF90021012033
:2013000000F0BBF90021022000F09DF9E021022000F005FA94F82C10022000F016FA4FF421
:201320004051022000F0A9F90021022000F093F90021032000F087F94FF48071032000F0AE
:20134000EDF92021032000F086F90021032000F094F994F82C10002000F0F7F9002000F03B
:20136000A1F90020FFF77BFA34480021017010BD7047704780B5304909680A7802F07F02EB
:20138000212A0DD1FE280BD14888002808D18888002805D1C888012802D13048020001D1AB
:2013A000022002BD88610020488200F037F8002002BD80B5204909680A7802F07F02212A2C
:2013C00018D1FF2816D14888002813D18888002810D1C88800280DD1012000F089F9022016
:2013E00000F076F9032000F083F9144800210170002002BD022002BD01B900B1022070470D
:201400001749FEF7C6BF1749FEF7C3BF0A490968C978154A02EBC101FEF7BBBF002805D19B
:201420000548006801210182002070470F487047E8F7FF1FA40A00204C1C0020641C00207A
:20144000405C0040A41C002050260008A01C0020A81C0020301C0020000A00201D140008C3
:20146000F80A0020000B0020580A0020981C00202DE9F84F4BF68F78684D48F60F7B40F671
:201480008F77674CDFF89C91DFF89CA123E0300404D5206838402060FFF7AFF9206808EAD3
:2014A00000002988CA0448BF80F48050890444BF80F4005080B22060206848F6BF7108401E
:2014C0006988CA0648BF80F01000890644BF80F0200080B22060606CAAF80000000460D549
:2014E00047F6FF706064BAF8000010F00F0089F8000035D1206800F440502880206800F008
:2015000030006880206808EA000080F400502060206848F6BF71084080F020002060BAF8F5
:201520000000C00620680FD40BEA00002060FFF70CF920684FF408410842AFD0206838402D
:201540002060FFF7D0F8A9E786B2300605D520680BEA00002060FFF7F8F8300597D5EDE71D
:2015600054F820108EB231040AD554F82010394044F820102D4901EB800050F8040C804739
:201580003006A8D599F8000054F820100BEA010144F82010264901EB800050F8040C80472E
:2015A00099E7BDE8F18F2DE9F84FDFF8809040F68F75DFF86CB01B4F47F6FF781A4CDFF8BA
:2015C00074A024E0CAF80080208800F00F0038705BF820108EB2310409D55BF820102940A0
:2015E0004BF8201009EB800050F8040C804730060DD538785BF8201048F60F7211404BF847
:2016000020100B4901EB800050F8040C8047DAF8000020800004D5D4BDE8F18F9C1C00209F
:20162000005C0040A71C0020A21C0020DC0A0020C00A0020445C00404FF6F8710840DFF8B0
:2016400084110860704710B4DFF87C2152F8203048F68F145CE010B4DFF86C2152F8203025
:2016600048F6BF742340CC0648BF83F01003890644BF83F020039BB210E010B4DFF84821CE
:2016800052F820304BF68F742340CC0448BF83F48053890444BF83F400539BB242F82030B7
:2016A00010BC7047DFF8201151F820204BF68F731A4082F4405208E0DFF80C1151F820200C
:2016C00048F68F6300E000001A4041F820207047DFF8F41051F82020520408D551F8202050
:2016E00048F68F731A4042F4804241F820207047DFF8D41051F82020520608D551F8202026
:2017000048F68F731A4042F0400241F8202070472340194342F8201010BC704738E0294A54
:20172000126892B202EBC000284A37E03BE02549096889B201EBC00024493AE0214A126868
:2017400092B202EBC000224A2AE01E4A126892B202EBC0001F4A02EB40003F2909D34A0922
:201760001F23194204BF521E92B2910241F4004105E04A08C90744BF521C92B2910201609C
:2017800070471049096889B201EBC000114914E00C4A126892B202EBC0000F4A49084900DF
:2017A00042F8101070470749096889B201EBC000094951F8100080B2704751F810008005FE
:2017C000800D7047505C0040005C004008600040046000400C600040006000400106090C89
:2017E00041EA102070470000DFF854110A6802F03802FFE70A600A68104308607047DFF8F2
:2018000040110A6822F01002F4E7DFF83801DFF838110160DFF834110160704770B50546D1
:2018200040F6FF76304600F09BF8042813D1484C206840F0020020606560206840F0400069
:201840002060304600F08CF8012804D0216841F6FD721140216070BD70B505460E4616F128
:20186000010F01D1042070BD0F2000F079F8042816D1374C206840F0010020602E800F20F9
:2018800000F06EF8042804D1300C68800F2000F067F8012804D0216841F6FE721140216050
:2018A00070BD70B5044640F6FF75284600F058F8042830D1274E2448306024483060B06882
:2018C00040F02000B060B06840F04000B060284600F046F8042817D1B06841F6DF71084079
:2018E000B060B06840F01000B0601B48002C14BF0021A5210180284600F032F801280AD01B
:20190000B16841F6EF7204E0012804D0B16841F6DF721140B16070BD10480168C90701D59E
:20192000012070470168490701D5022070470068C00601D5032070470420704700000000AE
:20194000002002400420024023016745AB89EFCD102002400820024000F8FF1F0C2002409F
:2019600038B50546FFF7D8FFFF2408E00098401E009000980028F9D1FFF7CEFF6D1E0128D0
:2019800004D125B1002000900094F2E705B9052032BD000058480021C16001611421416192
:2019A00000218161C161016841F0010101604168524A114041600168514A114001600168AF
:2019C00021F480210160416821F4FE01416000218160704748490A6822F480320A600A6832
:2019E00022F480220A60B0F5803F03D0B0F5802F04D07047086840F4803002E0086840F4D5
:201A0000A0200860704710B53E4C312000F05DF820706068401C6060207810B96068FF283E
:201A2000F3D1312000F051F8401E8041C043C00F10BD354A136823F47C13184308431060E4
:201A400070473249086070472F490A68920850EA8200086070472C48006800F00C00704747
:201A600029490A6822F0F00203E027490A6822F4E06210430860704723490A6822F4605249
:201A800042EAC00008607047214908607047214A0029116814BF084321EA00001060704755
:201AA0001D4A0029116814BF084321EA0000106070471A4A0029116814BF084321EA00009E
:201AC0001060704716490870704741090A4A012908BF116803D002290CBF116A516A012227
:201AE00000F01F0002FA00F00840401EFFE78041C043C00F70470000001002400000FFF8CC
:201B0000FFFFF6FE801C00200410024060004242D8004242181002401C1002400C1002404B
:201B20000710024080B50620FFF7CCFF4FF48070ADF8000018208DF8030003208DF80200EE
:201B400000A94948A6E080B5FFF724FF4FF48030FFF740FFFFF757FF012828D11020FFF7BB
:201B60004EFE0220FFF740FE0020FFF779FF4FF48060FFF781FF4FF48060FFF776FF0020EE
:201B8000FFF782FF4FF4E0114FF48030FFF751FF0120FFF756FF3920FFF797FF0028FAD01E
:201BA0000220FFF751FFFFF756FF0828FBD1FFF72CFE01212020FFF76AFF01214FF4000030
:201BC000FFF76EFF01214FF40170FFF760FFBDE80140A7E780B500F04DF8BDE8014000F0C3
:201BE00019B980B500214FF0006000F0C1FA1F48002101604FF4A06000F076FA14208DF82E
:201C0000000001208DF8010000208DF8020001208DF8030000A800F06CFA13208DF8000017
:201C200000208DF801008DF8020001208DF8030000A800F05EFA1B208DF8000000208DF879
:201C400001008DF8020001208DF8030000A800F050FA01BD064A00284FF48071104601D0E0
:201C600000F0DEB900F0DAB900080140445C00400014014080B54FF48070ADF8000014209B
:201C80008DF8030003208DF8020000A9004801E00014014000F062F901BD000000B583B0FA
:201CA0004C4801788DF8001040788DF801004A48017A8DF80210417A8DF80310817A8DF8CD
:201CC0000410C07A8DF80500062100A800F067F803B000BD10B582B0404C607800F2001041
:201CE000ADF800000222A02100A800F015FC0320207002210120FFF721FD30210120FFF73E
:201D0000AAFC13BD80B535480178022906D0032901D0042907D1BDE8014052E00079F32873
:201D200008BFFFF713F901BD10B50220FFF729FD04462246E0212A4800F002FC274801781E
:201D400011B1012904D007E02046BDE8104007E00079F32803D11EE0022000F043F810BD1A
:201D600010B51E4C20B102461D49201D00F044FB2079F12804D0F32805D0F52804D006E0FC
:201D8000BDE810408AE706E0BDE81040A2E70220BDE8104026E0BDE81040FFF7D7B810B51D
:201DA0000C462246A02100F0B7FB21460120FFF7C5FC30210120FFF74EFC08480321017030
:201DC00010BD0648002101704FF440510220FFF754BC0000FE3F00081C270008641C00202A
:201DE000F01B002080B518B1022807D00AD301BD10210120BDE80440FFF72DBC10210120B2
:201E0000FFF729FC4FF480510220BDE80440FFF734BC000000B585B001214FF40060FFF7FD
:201E200036FE01210420FFF732FE00F0FBF8464802210186018801F09F0101800188018042
:201E40006020ADF800000220ADF808000120ADF8020000A800F0F3F8012000F02AF90120EE
:201E600000F024F9012000F00EF905B000BD000070B582B004460D46344E3078844207D010
:201E80000021042000F003F9002000F0F8F802E07068A84257D0062C3DD8DFE804F0040E32
:201EA000122314212B002A48016821F0F0010091009941F0400101602DE0502000F0F1F85D
:201EC00029E04020FAE7502000F0EBF82148858248F6A04101820121042000F0D8F81AE063
:201EE0004020F1E71B4864218182818A49080184642106E017488582C5F34F0101844FF63B
:201F0000FF7101820188C9B20091009941F4D041009100990180104801210160307818B163
:201F2000042801D0052809D144B10948016821F0F0010091009941F0B00101603470756006
:201F4000012000F09CF873BD002C0140781C002004080140182C0140808225422DE9F04109
:201F6000CB7803F00F02DB0644BF8B781A430B88DCB22CB3D0F800C0002401250F2605FAD0
:201F800004F707EA0308B84515D14FEA840E06FA0EF82CEA080C02FA0EFE4EEA0C0C91F88B
:201FA00003E0BEF1280F08BF476191F803E0BEF1480F08BF0761641C082CE0D3C0F800C069
:201FC0004FF48074A34227D3D0F804C0002401250F2604F1080705FA07F707EA0308B845E6
:201FE00015D14FEA840E06FA0EF82CEA080C02FA0EFE4EEA0C0C91F803E0BEF1280F08BF8F
:020000040800F2
:20200000476191F803E0BEF1480F08BF0761641C082CDED3C0F804C0BDE8F0810161704767
:202020004161704780B501214FF40060FFF741FD00214FF40060BDE80440FFF73ABD10B4BB
:20204000DFF884100A88DFF8843000241C60D2B2048842EA04220A8042881A6082889A6024
:2020600002895A604289DA60DFF86420FFE783891360C3895360C088088410BC7047DFF829
:20208000541008607047DFF8501008607047DFF84C20012911880CBF084321EA00001080B0
:2020A000704709490A8840F67F7308E00C49086070470C49086070470A884FF2FF331A402E
:2020C00042EA002008807047182C014010842542A880254200802542BC8825420C2C01405B
:2020E0001C8025422C832542264908432649086070472DE9F04105780121C2787AB3224AC6
:20210000126802F4E062C2F5E062120AAB10DFF8708058F8237005F00305ED00FF26AE4096
:20212000B7434478C2F1040E04FA0EFC90F802E00F2424FA02F202EA0E0242EA0C02120124
:20214000AA4032403A4348F82320007842110F4B00F01F0001FA00F043F8220006E0681148
:20216000064A05F01F03994042F82010BDE8F081074A1140084307490860704780E100E002
:2021800000E400E00000FA050CED00E000E100E080FFFF1F08ED00E070B5FFF7D4FCFFF78F
:2021A00019FDFFF71EFD4FF4FA610420FFF760FE0120C046C04600F0D3F900210120FFF7C1
:2021C00057FEFEF7ACFE1848184C194D194E01780529FCD12878800720D52078212809D030
:2021E000412802D0512808D012E013480068FEF75DFE0DE0512020700AE0326892B20F4940
:202200000F4800F075F831680B480068FEF754FE287800F0FD0040F0010028702078072852
:20222000D8D1FEF784FED5E7A81C0020200B0020210B0020300B0020280B00203C1300202A
:202240003C0B00207047FEE7FEE7FEE7FEE77047704770477047704770477047704770475D
:2022600070477047704770477047704770477047704770477047704770477047FFF793B91A
:2022800000F026B970477047704770477047704781B00C48018821F0040101800A480168C5
:2022A000491C01600948026822F0F0020092C90700994CBF41F0400141F0B001016001B02D
:2022C00070470000102C0140901C00200408014070477047704770477047704770477047F9
:2022E00070477047704770477047704770470000F0B585B005460E4617460F20074200D1BE
:202300000FB901202FE0194C2078F8B900A9184A135C01F8013B401C0428F9DB042001A93E
:20232000144A135C01F8013B401C1028F9DB211D1148FEF7CDFA221D00A900A8FEF784FCDB
:20234000211D00A8FEF7FBFA0120207057B1221D31462846FEF7F4FA10351036103FBFB2A2
:20236000002FF4D1002005B0F0BD00003C1B0020E0F7FF1FE4F7FF1F4427000830BF704769
:2023800020BF704740BF7047BFF36F8F7047BFF34F8F7047BFF35F8F704701DF7047EFF373
:2023A0001480704780F31488BFF36F8F7047EFF30980704780F309887047EFF3088070475E
:2023C00080F30888704762B6704772B67047EFF31080704761B6704771B67047EFF313804B
:2023E000704780F311887047EFF31280704740BA704700BA704700004AB38B0707D011F8A7
:20240000013B00F8013B521E21D08B07F7D183071ED1103A07D330B4B1E83810103AA0E85D
:202420003810F9D230BC530724BFB1E80810A0E8081044BF51F8043B40F8043BD20724BF51
:2024400031F8022B20F8022B44BF0B7803707047083A07D3B1E80810083A40F8043B40F873
:2024600004CBF7D25307E4E762F30F2262F31F42401810F0030308D0C91A1FD3DB0748BF6F
:2024800000F8012D28BF20F8022D130030B414461546103928BF20E93C00FAD8490728BFBE
:2024A00020E90C0048BF40F8042D890028BF20F8022D48BF00F8012D30BC7047C91818BF58
:2024C00000F8012DCB0728BF00F8012D7047000038B50D4C0D48016861800D4D61882A8866
:2024E0001140490505D54FF6FF310160094840688047608829880840000403D5FEF7B8FF64
:202500000120207031BD00BFA01C0020445C0040A41C0020000A002010B4104B03EB410148
:20252000521C52100AD010F8013B10F8014B43EA042321F8023B891C521EF4D110BC704752
:20254000064B03EB4101521C521005D051F8043B20F8023B521EF9D17047000000600040E7
:2025600010B50A4CE461022020720948206209496162006880474FF40070E0624FF4801068
:20258000A0624FF40060206310BD00BF301C0020000A0020800A002080B500F0EFF8020039
:2025A0000023DB431068984204D011000220ABBE002010605068984204D0111D0220ABBE69
:2025C0000020506001BD000010B40FE001680918001D50F8042BD40744BFA9F10104A21865
:2025E00051F8044B42F8044B1B1FF9D150F8043B002BEBD110BC704780B50120FFF72AFB54
:202600000648012101600021016041604FF40441034A11800160002002BD0000405C004044
:20262000A41C002010B5084979441C31074C7C441A34A14206D0081D0A685118884701466A
:20264000A142F8D110BD00BF7C0000009C0000000902270001010080320904000003FFFF36
:20266000FF04070581024000000705020240000007058302400000002603530054004D004A
:202680006900630072006F0065006C0065006300740072006F006E006900630073000000F2
:2026A0000BE050F8041BCB0744BFA9F101035918002341F8043B121FFAD150F8042B002AAC
:2026C000EFD17047DDFFFFFF98110000140B002000000000F5FEFFFF14030000C0000000F9
:2026E00000080020000000001A03530054004D00330032002000530054004C0069006E0052
:202700006B00000000F048F8002801D0FFF78AFF0020FFF741FD00F039F80000120100021C
:202720000000004083044837000101020301000080B5FFF731FF024A11001820ABBEFBE710
:20274000260002004920616D206B65792C2077617761776110035300540020004C0069004E
:202760006E006B00C046C046C046C046FFF7CAFF07463846FFF7DCFFFBE70000004870472C
:20278000080B0020FFF7BEBAFFF7CEBA80B5FFF7EFBF00000403090401207047637C777B84
:2027A000F26B6FC53001672BFED7AB76CA82C97DFA5947F0ADD4A2AF9CA472C0B7FD932602
:2027C000363FF7CC34A5E5F171D8311504C723C31896059A071280E2EB27B27509832C1AFF
:2027E0001B6E5AA0523BD6B329E32F8453D100ED20FCB15B6ACBBE394A4C58CFD0EFAAFBFB
:20280000434D338545F9027F503C9FA851A3408F929D38F5BCB6DA2110FFF3D2CD0C13ECA6
:202820005F974417C4A77E3D645D197360814FDC222A908846EEB814DE5E0BDBE0323A0AEC
:202840004906245CC2D3AC629195E479E7C8376D8DD54EA96C56F4EA657AAE08BA78252E1D
:202860001CA6B4C6E8DD741F4BBD8B8A703EB5664803F60E613557B986C11D9EE1F8981165
:2028800069D98E949B1E87E9CE5528DF8CA1890DBFE6426841992D0FB054BB1652096AD5EA
:2028A0003036A538BF40A39E81F3D7FB7CE339829B2FFF87348E4344C4DEE9CB547B9432B1
:2028C000A6C2233DEE4C950B42FAC34E082EA16628D924B2765BA2496D8BD12572F8F66487
:2028E00086689816D4A45CCC5D65B6926C704850FDEDB9DA5E154657A78D9D8490D8AB0029
:202900008CBCD30AF7E45805B8B34506D02C1E8FCA3F0F02C1AFBD0301138A6B3A9111418B
:202920004F67DCEA97F2CFCEF0B4E67396AC7422E7AD3585E2F937E81C75DF6E47F11A7137
:202940001D29C5896FB7620EAA18BE1BFC563E4BC6D279209ADBC0FE78CD5AF41FDDA83309
:202960008807C731B11210592780EC5F60517FA919B54A0D2DE57A9F93C99CEFA0E03B4D9A
:20298000AE2AF5B0C8EBBB3C83539961172B047EBA77D626E169146355210C7D491200082C
:2029A0009D120008711300087313000875130008B3130008F9130008011400080714000894
:2029C0000D140008000000004000000000000001000000020000000400000008000000106F
:2029E0000000002000000040000000800000001B0000003694270008040000007826000839
:202A000026000000E82600081A000000A40A00201A0000005427000810000000CD08000808
:202A200029120008CD080008CD080008CD080008CD080008CD080008CD080008CD08000848
:202A40001A0330003000300030003000300030003000300030003000310000008527000864
:202A6000CD080008CD080008CD080008CD080008CD080008CD080008CD0800088927000893
:202A8000CD080008CD080008CD080008CD080008CD0800081C27000812000000502600080A
:202AA00027000000FFFFFFFFFFFFFFFF0401000000010020412B0008652B0008652B00082D
:202AC000652B0008652B0008652B000800000000000000000000000000000000652B000896
:202AE000652B000800000000652B0008652B000810B5084979441C31074C7C441A34A142AA
:202B000006D0081D0A68511888470146A142F8D110BD00BF080000000400000000F020F87D
:202B2000002801D0FFF7E4FF002000F017F800F012F8000001491820ABBEFBE726000200B5
:202B4000C046C046C046C046FFF7E8FF07463846FFF7F0FFFBE780B5FFF7F8BF0020704735
:202B600001207047FEE7FFFFFFFFFFFFFFFFFFFFFFFFFFFFFFFFFFFFFFFFFFFFFFFFFFFFB2
:202B8000FFFFFFFFFFFFFFFFFFFFFFFFFFFFFFFFFFFFFFFFFFFFFFFFFFFFFFFFFFFFFFFF55
:202BA000FFFFFFFFFFFFFFFFFFFFFFFFFFFFFFFFFFFFFFFFFFFFFFFFFFFFFFFFFFFFFFFF35
:202BC000FFFFFFFFFFFFFFFFFFFFFFFFFFFFFFFFFFFFFFFFFFFFFFFFFFFFFFFFFFFFFFFF15
:202BE000FFFFFFFFFFFFFFFFFFFFFFFFFFFFFFFFFFFFFFFFFFFFFFFFFFFFFFFFFFFFFFFFF5
:203C00004A849A306FC0FE8724AD1546729B4374FFFFFFFFFFFFFFFFFFFFFFFFFFFFFFFF78
:203C20004AFFFFFFFFFFFFFFFFFFFFFFFFFFFFFFFFFFFFFFFFFFFFFFFFFFFFFFFFFFFFFF59
:203C4000FFFFFFFFFFFFFFFFFFFFFFFFFFFFFFFFFFFFFFFFFFFFFFFFFFFFFFFFFFFFFFFF84
:203C6000FFFFFFFFFFFFFFFFFFFFFFFFFFFFFFFFFFFFFFFFFFFFFFFFFFFFFFFFFFFFFFFF64
:203C8000FFFFFFFFFFFFFFFFFFFFFFFFFFFFFFFFFFFFFFFFFFFFFFFFFFFFFFFFFFFFFFFF44
:203CA000FFFFFFFFFFFFFFFFFFFFFFFFFFFFFFFFFFFFFFFFFFFFFFFFFFFFFFFFFFFFFFFF24
:203CC000FFFFFFFFFFFFFFFFFFFFFFFFFFFFFFFFFFFFFFFFFFFFFFFFFFFFFFFFFFFFFFFF04
:203CE000FFFFFFFFFFFFFFFFFFFFFFFFFFFFFFFFFFFFFFFFFFFFFFFFFFFFFFFFFFFFFFFFE4
:203D0000FFFFFFFFFFFFFFFFFFFFFFFFFFFFFFFFFFFFFFFFFFFFFFFFFFFFFFFFFFFFFFFFC3
:203D2000FFFFFFFFFFFFFFFFFFFFFFFFFFFFFFFFFFFFFFFFFFFFFFFFFFFFFFFFFFFFFFFFA3
:203D4000FFFFFFFFFFFFFFFFFFFFFFFFFFFFFFFFFFFFFFFFFFFFFFFFFFFFFFFFFFFFFFFF83
:203D6000FFFFFFFFFFFFFFFFFFFFFFFFFFFFFFFFFFFFFFFFFFFFFFFFFFFFFFFFFFFFFFFF63
:203D8000FFFFFFFFFFFFFFFFFFFFFFFFFFFFFFFFFFFFFFFFFFFFFFFFFFFFFFFFFFFFFFFF43
:203DA000FFFFFFFFFFFFFFFFFFFFFFFFFFFFFFFFFFFFFFFFFFFFFFFFFFFFFFFFFFFFFFFF23
:203DC000FFFFFFFFFFFFFFFFFFFFFFFFFFFFFFFFFFFFFFFFFFFFFFFFFFFFFFFFFFFFFFFF03
:203DE000FFFFFFFFFFFFFFFFFFFFFFFFFFFFFFFFFFFFFFFFFFFFFFFFFFFFFFFFFFFFFFFFE3
:203E0000FFFFFFFFFFFFFFFFFFFFFFFFFFFFFFFFFFFFFFFFFFFFFFFFFFFFFFFFFFFFFFFFC2
:203E2000FFFFFFFFFFFFFFFFFFFFFFFFFFFFFFFFFFFFFFFFFFFFFFFFFFFFFFFFFFFFFFFFA2
:203E4000FFFFFFFFFFFFFFFFFFFFFFFFFFFFFFFFFFFFFFFFFFFFFFFFFFFFFFFFFFFFFFFF82
:203E6000FFFFFFFFFFFFFFFFFFFFFFFFFFFFFFFFFFFFFFFFFFFFFFFFFFFFFFFFFFFFFFFF62
:203E8000FFFFFFFFFFFFFFFFFFFFFFFFFFFFFFFFFFFFFFFFFFFFFFFFFFFFFFFFFFFFFFFF42
:203EA000FFFFFFFFFFFFFFFFFFFFFFFFFFFFFFFFFFFFFFFFFFFFFFFFFFFFFFFFFFFFFFFF22
:203EC000FFFFFFFFFFFFFFFFFFFFFFFFFFFFFFFFFFFFFFFFFFFFFFFFFFFFFFFFFFFFFFFF02
:203EE000FFFFFFFFFFFFFFFFFFFFFFFFFFFFFFFFFFFFFFFFFFFFFFFFFFFFFFFFFFFFFFFFE2
:203F0000FFFFFFFFFFFFFFFFFFFFFFFFFFFFFFFFFFFFFFFFFFFFFFFFFFFFFFFFFFFFFFFFC1
:203F2000FFFFFFFFFFFFFFFFFFFFFFFFFFFFFFFFFFFFFFFFFFFFFFFFFFFFFFFFFFFFFFFFA1
:203F4000FFFFFFFFFFFFFFFFFFFFFFFFFFFFFFFFFFFFFFFFFFFFFFFFFFFFFFFFFFFFFFFF81
:203F6000FFFFFFFFFFFFFFFFFFFFFFFFFFFFFFFFFFFFFFFFFFFFFFFFFFFFFFFFFFFFFFFF61
:203F8000FFFFFFFFFFFFFFFFFFFFFFFFFFFFFFFFFFFFFFFFFFFFFFFFFFFFFFFFFFFFFFFF41
:203FA000FFFFFFFFFFFFFFFFFFFFFFFFFFFFFFFFFFFFFFFFFFFFFFFFFFFFFFFFFFFFFFFF21
:203FC000FFFFFFFFFFFFFFFFFFFFFFFFFFFFFFFFFFFFFFFFFFFFFFFFFFFFFFFFFFFFFFFF01
:203FE000FFFFFFFFFFFFFFFFFFFFFFFFFFFFFFFFFFFFFFFFFFFFFFFFFFFFFFFFFFFF2B4074
:020000040800F2
:20400000C83700208DC90008B5C90008B9C90008BDC90008C1C90008C5C90008000000005D
:20402000000000000000000000000000C9C90008CDC9000800000000D1C90008F1C50008E8
:20404000F3C50008F5C50008F7C50008F9C50008FBC50008FDC50008FFC5000801C6000827
:2040600003C6000805C6000807C6000809C600080BC6000811C6000819C6000823C6000860
:2040800027C600082FC60008D5C9000831C6000835C60008D9C90008DDC9000839C6000827
:2040A0003BC600083DC6000873C6000875C60008C9C60008CBC60008CDC60008CFC6000800
:2040C000D1C60008D3C60008D5C60008D7C60008D9C60008DBC60008DDC60008DFC60008B0
:2040E000E1C60008E3C60008E5C6000838B50C46DFF8881C8978034680200129154604D1AF
:204100002146184603F035FE40E013B1012B03D006E01F210A2001E01F210B2004F03DFA0A
:20412000802805D129462046BDE8344004F0E1BA32BD10B5FFF7DAFF0446802C18BF00F044
:2041400063F8204610BD38B50C46DFF8301C8978034680200129154604D12146184603F073
:2041600034FE13E013B1012B03D006E01F210A2001E01F210B2004F010FA802805D12946D0
:204180002046BDE8344004F087BA32BDBDE83240BFE010B5FFF7D7FF0446802C18BF00F078
:2041A00033F8204610BD10B582B004460020009000AA0121FFF7BDFF802802BFDFF8BC1B1B
:2041C0008978002904D100AA03210020FFF7B1FF802818D1DFF8A41B8978012903D1009A8C
:2041E000120648BF1820009A9206009A48BF1920920748BF1A20012908BF012C03D10099F7
:20420000490658BF182016BD80B50020009000AA0121FFF76BFF802802BFDFF8601B897860
:20422000002904D100AA03210020FFF75FFF802814D1DFF8481B8978009B01290CBFB22212
:20424000322213420AD0012903D11E220021002002E01A4601210020FFF775FF02BD38B5C2
:204260000C46FFF7A0FF0546802D08D0FFF7CCFF142C18BF102C02D0072C18BF2C462046BF
:2042800032BD38B50446DFF8F40A807801280D4601D1082032BD11210F2004F07EF9802852
:2042A00005D129462046BDE8344004F035B932BD38B51446DFF8C42A9278012A1D4601D1F3
:2042C000082032BD012811D101F01F010F2004F064F9802804D100222146202004F0EAF80F
:2042E000802815D10022294620200CE002280ED101F01F010F2004F050F9802808D105F077
:204300000F0221462420BDE8384004F0D3B8062032BD012108B9802070474FF6F872024005
:20432000082A04D0302A04D0382A04D005E0092129E0062127E00A2125E0102A18BF182A4A
:2043400000F007000DD1012804D0022804D0042804D005E0142104E0152102E0172100E05F
:204360001621202A18BF282A0DD1012804D0022804D0042804D005E0102104E0112102E0AC
:20438000132100E012210846704710B5044682B080200CB9062016BD00212170DFF8DC19B4
:2043A0008978012929D100A800F028F8802821D1009940F27442914218BFB1F58F6F16D0D1
:2043C00040F2844291421CBF40F2854291420ED040F2864291421CBF40F29242914206D036
:2043E00040F29942914218BFB1F5966F05D10121217016BD432808BF802016BD38B5040069
:2044000001D1062032BD00202060DFF870098078012822D100AA00210020FFF78AFE0546FD
:20442000802D1BD10098C0F30330022815D3022000F0E5FA0546802D05D100AA01210020A8
:20444000FFF777FE0546802D03D10098C0F30B402060002000F0D3FA00E04325284632BD8D
:204460002DE9F846824600208DF800000D46DFF80C790120002438707C7016469946BC6597
:2044800004F0C0FB012808BF04F06FFCDFF8240C03214FF0FF3240F8042B40F8042B491E4E
:2044A00040F8042BF7D1022E08BF01244FF6F070014607F1100203234FF0FF0C42F804CB42
:2044C00042F804CB5B1E42F804CBF7D1FA6E092AB8BF40EA0261B878F96001280BD124B187
:2044E00003F0E2FDFFF715FF08E0002003F02AFDFFF70FFF02E0284604F072FA0546802D12
:2045000009D0B878012803D1204603F0FCFD06E004F082FA03E014B900F03FF80546802D1E
:2045200008BF012E03D100A8FFF72FFF0546802D0FD1002E18BF012E0BD19DF8000000F078
:2045400080F90546802D04D100F0A9F80EB901207871802D1ED1B97801290AEB070017D1D8
:20456000022E13D10321C170786F10F1010F11D119F1010F0ED0484603F01BFDFFF7C9FEAA
:204580000546802D06D1C7F8749003E0022100E00121C1702846BDE8F28638B50020009028
:2045A00000AA0121FFF7C5FD0446802C2ED1009800F0704010F1805F01D1802032BD4FF0CA
:2045C000A04201210020FFF7E4FD0446802C18D1002500AA01210020FFF788FD0446802C7F
:2045E00018BFFFF711FE802C10D1009800F0704010F1805F02D0022DA8BF0B246D1C032DEA
:20460000E7DB802C02D1FFF7FFFD0446204632BD2DE9F04383B080460D461F46802000210D
:204620000024019118F1010F16468946396033D000910023012201A908F6E47000F040FDE4
:2046400080280ED10198C0F3031900F00F000002386000940023012201A908F6E87000F008
:204660002FFD802818D1019800F00F0049EA00102860A02808BF0124002000900023012270
:2046800001A908F57E6000F01BFD802804D1019A3968D2B251183960347001F0FFBC2DE9E8
:2046A000F04786B000208DF804004FF0FF3003900020DFF8C846E56E0490207800281EBF5A
:2046C000DFF8F09959F8250010F1010F06D06078012805D104F0E4FB012801D1802087E071
:2046E00059F8250004AB01AA03A9FFF791FF0746802F3BD19DF80400012808D10498A06574
:2047000000206070207004F030FB384670E00398B8B9029000900023012202A94FF040206E
:2047200000F0CEFC0746802F20D10298C0F30B3040F6A81188420290E2D0B0F51B6F15D138
:20474000DEE7BB2812D10020029000900023012202A9DFF8640900F0B3FC0746802F01BFFC
:20476000029800090001B0F5887FC9D000208DF80000804605900290002604F1340A9DF8D0
:20478000000058EA00001BD1AE4212D0F0B200F058F8802804BFDAF80000B0F1004F08D131
:2047A000D9F8000002AB00AA05A9FFF731FF4FF00108761C052E09F104090AF1040ADEDB27
:2047C0002567F02000F0EFF89DF80000002897D104F066FB08B1039838B104F066FA04F067
:2047E000A3FA0020607020708FE7012060708CE706B0BDE8F087DFF88405816D1E291CBF80
:20480000816D272905D0816D28291CBF806D322801D10120704700207047092806DA00EBA7
:204820004003DFF898289900895C31B9002802BFDFF848054079012801D1802070471D20E1
:20484000704730B5044685B00020092C039001900090029080F28080FFF79FFEDFF81C5555
:2048600005EB8402FF2111612C67802804BFF02000F099F8802804D103AA03210120FFF73C
:2048800058FC802804D101AA02210120FFF751FC802804D100AA03210020FFF74AFC8028C6
:2048A00004BF002000F07FF8802804D103AA00210120FFF73EFC802804D102AA03210020A5
:2048C000FFF737FCE96E05EB81024FF00C535363019B03F00F03012B0BD1019C14F0F00F48
:2048E0001CD1029C240254BF4FF096444FF0306413E0042B08BFDFF8CC4B0ED0022B14BF53
:20490000062B4FF0004408D0052B07D1029C24024CBF4FF040744FF086445463802802BF18
:20492000DFF8902752F8214014F1010F15D1022B1EBF019BDFF8A84CA34206D0009BDB079A
:204940000BD5009B13F1010F07D0009B9B089B0042F8213005B030BD1D2005B030BD10B547
:20496000DFF8C84CA2780021012A08D10019C078032808BF0121084603F0C5FB01E004F0D2
:204980004BF84FF6F070E060032104F11000FF2240F8042B40F8042B491E40F8042BF7D141
:2049A0000020607110BD70B5DFF8D043236FE56E0146802000229D4207D0092BAFBF1D20A7
:2049C000E26863F31F62E2600122E3684FF6F07503F07F4629400E4380280FD1B34208BFA6
:2049E000002A0BD0324602210020FFF7D2FB802801D0E56070BD216FE660E16670BD70B5DA
:204A0000DFF87843DFF8C06CE26801464FF6F075802005EA0203AB4212BF1346E36E1B06A9
:204A2000334001F00F0141EA0306B2420BD0324602210020FFF7ADFB802801D0E56070BDBB
:204A4000310EE660E16670BDF8B5DFF83023136F04468020092B28BF002302EB83056A6B92
:204A6000160A360200291FBF0B0A1B02120AB3EB022F02D00E0A360202E02969A14223D04E
:204A8000CCB1022C03D013D3032C16D018E046F012070020FFF787FF802815D13A4600218B
:204AA0000120FFF776FB80280CD0FF212961F2BD46F00107EDE73746EBE746F00207E8E722
:204AC0000620F2BD2C616E63F2BD10B5040018BF022C05D100220121DFF8F00B04F05CFAF0
:204AE000022C03D10A2004F0E7FB01E0012C05D101220121DFF8D40B04F04EFA802010BD2C
:204B000080B500920023012200F0DAFA02BD00F05AFC02BD38B504460D4604F0DFFC002186
:204B20000220FFF791FF802804BF0020FFF73BFF802805D1DFF8982B01210120FFF729FB9D
:204B4000802804BF1020FFF72EFF802812D100AA00210120FFF7EDFA802804D100AA0321F8
:204B60000020FFF7E6FA802804D10099890301D4082032BD802804D1224602210120FFF792
:204B800008FB802805D145F4803201210120FFF700FB802804D1DFF83C1B284600F01CF858
:204BA000802818D10F2DDFF8840A06D1C06D400840006108B0EB410F09E0102DC06D05D1BA
:204BC000400A4002610AB0EB412F00E0A04201D1802032BD0D2032BD70B582B006460C469F
:204BE00004F07CFC00210220FFF72EFF0546802D03D10020FFF7D7FE0546802D06D1DFF886
:204C0000D02A01210120FFF7C4FA0546802D03D11020FFF7C8FE0546802D12D100AA002145
:204C20000120FFF786FA0546802D05D100AA03210020FFF77EFA0546802D02D100988003CD
:204C400030D5802D05D1324601210120FFF7A1FA0546802D28D10026802D25D10A2E23DA91
:204C6000761C00AA00210120FFF740FA0546802D18BFFFF7C9FA802D0DD10A2E00AA07BFCB
:204C80000321002000210120FFF730FA0546802D18BFFFF7B9FA802DDED10098C00303D468
:204CA0000A2ED9D1082515E0802D05D1224602210120FFF73EFA0546802D05D12246032139
:204CC0000020FFF736FA0546802D03D10020FFF76AFE0546284676BD2DE9F041274F06464F
:204CE000B878802501280C4605D1DFF8800C0068306000201AE0DFF8F88C0121404603F023
:204D0000B1FB054608F1010003F01AFBF865802DF86D30600BD10021404603F0A3FB05463C
:204D200008F1010003F00CFBF865F86D20602846BDE8F081F8B5044604F0D0FB00210220C0
:204D4000FFF782FE012C03D121244025002602E0152400250026DFF89C7C802806D1202EEA
:204D600039460CBF2120E8B2FFF736FF761C3F1D6D1CA642F1DBF2BD0000000020100020B9
:204D800038B504460020207004F0A8FB00210220FFF75AFE802812D1002000900023DFF8CF
:204DA0008C58DFF82C09012205F15C0100F088F9802804D1E96D890344BF0121217032BD18
:204DC00070B582B006460FF26800009114461D4650F826000023012200A900F0F4FA802896
:204DE0000AD10698009000230FF25400012250F8260000A900F0E7FA802817D10FF2500145
:204E00000FF2600051F82520079950F82600802906D10FF2600151F824101143009100E071
:204E200000920023012200A900F0CDFA76BD0000201000E0301000E0401000E0501000E067
:204E4000241000E0341000E0441000E0541000E0040000000500000006000000070000008C
:204E600000000000281000E0381000E0481000E0581000E000000000000400000008000066
:204E8000000C000038B50C46DFF86C1B084012B940F0804505E0012A0CBF40F0004540F0E1
:204EA000404545F0010504F019FB00210220FFF7CBFD80280AD10B48784428300095002387
:204EC00050F82400012200A900F07DFA802808D1032000900023012200A9DFF8080D00F034
:204EE00072FA32BD34260000F8B504460025257004F0F4FA00210220FFF7A6FD802808BF1F
:204F000000F09CF8802808D1012000900246002300A9DFF83C0C00F056FA802809D1DFF80F
:204F2000340C00900023012200A9DFF82C0C00F04AFA8028DFF8F46609D1002000900023E9
:204F4000012206F15C01DFF8D40C00F0B9F8F16D490E6D1C01F00101802808BF002902D1E6
:204F6000B5F57A7FE5DB802808BF002928D00025DFF8A87C002000900023012206F15C01D4
:204F8000384600F09DF8F16D6D1C890104D5802802D1B5F57A7FEDDBF16D89030ED5802869
:204FA00008D1DFF87C0C00900023012200A9384600F009FA802803D1012100E00021217099
:204FC000F2BD70B5044682B00020207004F086FA00210220FFF738FD802809D1DFF8440C46
:204FE00000900023012200A9DFF8E40600F0EBF9802822D100200090DFF83056DFF8D066E8
:205000000023012205F15C01304600F059F8E96DDFF8C42C114209D176BD002000900023F0
:20502000012205F15C01304600F04AF8802802D1E96DC901F1D40121217076BD70B582B0B5
:20504000002404F04BFA00210220FFF7FDFC8028DFF8D86520D1DFF8C80BDFF8C05B0090E8
:205060000023012200A9284600F0ADF9802808D1002000900023012206F15C01284600F014
:205080001FF8F16D641C890302D5F16D090303D5C82C01DA8028DED0802809D1002000901F
:2050A00000230122DFF82C16DFF8700B00F008F876BD0000B81300201C009040741200209F
:2050C0002DE9F84F0646884692461D46002705B12F6004F003FA0A990220FFF7B5FCAAF1BA
:2050E000010929E080280AD1424603210020FEF7FDFF0446802C18BFFFF786F8204604466C
:205100000120FFF750F88346BBF1800F08D0FFF77BF8142C18BF102C02D0072C18BF5C461A
:205120002046002D18BF802802D0296801B92E607F1C08F10408361D574530D280282ED17A
:205140000FB1B1051CD10020FFF72DFC80280AD1324601210120FEF7F6FF0446802C18BFB8
:20516000FFF752F8204680280AD100AA03210120FEF7BCFF0446802C18BFFFF745F8204601
:205180004F45AFD28028CCD1424603210120FEF7ADFF0446802CC3D0FFF736F8C0E7BDE84E
:2051A000F28F2DE9F04B82B08046894616461F46002407B13C6004F091F90A990320FFF7E3
:2051C00043FC0546802D03D10020FFF7ECFB0546802D05D1424601210120FEF7DAFF054615
:2051E000802D29D100AA03210120FEF7A2FF054622E003210020FEF779FF0546802D18BFB6
:20520000FFF702F80120FEF7CEFF8346BBF1800F08D0FEF7F9FF142D18BF102D02D0072D97
:2052200018BF5D46002F18BF802D04D0386810B908EB84003860641CB44210D2802D0ED111
:20524000701E844209EB8402D3D203210120FEF74DFF0546802DE5D0FEF7D6FFE2E72846A7
:20526000BDE8F68B2DE9F84F40080E4691461D464FF0000A47000DB1C5F800A004F02EF90F
:205280000A990120FFF7E0FBA9F101081DE0318004460120FEF787FF8346BBF1800F08D066
:2052A000FEF7B2FF142C18BF102C02D0072C18BF5C462046002D18BF802802D0296801B948
:2052C0002F600AF1010AB61CBF1CCA4545D2802843D10020FFF767FB80280AD13A4601210D
:2052E0000120FEF730FF0446802C18BFFEF78CFF204680280AD100AA03210120FEF7F6FE5B
:205300000446802C18BFFEF77FFF2046C24512D28028CFD100AA03210120FEF7E7FE0446A1
:20532000802C18BFFEF770FFB907009948BF090C20463180BEE78028AAD100AA0321002044
:20534000FEF7D4FE0446802C18BFFEF75DFFB907009920469BD5090C99E7BDE8F28F70B559
:2053600082B004460D46164604F0B8F831460020FFF76AFB802825D10020FFF714FB014662
:20538000802905D1224601210120FEF702FF0146802905D100AA03210120FEF7CAFE014634
:2053A000802905D100AA03210020FEF7C2FE0146009804F00302D20020FA02F32B70012056
:2053C000FEF74DFF76BD2DE9F04182B004460D4690461F46002604F081F839460220FFF7DE
:2053E00033FB074623E01EB104EB8600800510D10020FFF7D8FA0746802F0AD104EB86024F
:2054000001210120FEF79FFE0746802F18BFFEF7FBFE802F0DD155F8262003210120FEF79C
:2054200092FE0746802F18BFFEF7EEFE761C464501D2802FD7D02DE02DE9F04182B0044612
:205440000D4690461F46002604F048F839460320FFF7FAFA0746802F03D10020FFF7A3FA55
:205460000746802F12D1224601210120FEF791FE07460BE055F8262003210120FEF763FEB8
:205480000746802F18BFFEF7BFFE761C464501D2802FEFD0802F0ED164488078012804D1F9
:2054A00002F0F6FCFEF735FF04E000AA01210120FEF73FFE074639460020FEF7D0FEBDE888
:2054C000F6810000006000302DE9F041460882B00C4690461F460025760003F0FFFF394666
:2054E0000120FFF7B1FA074626E00020FFF75BFA0746802F0AD106EB450201210120FEF7E5
:2055000022FE0746802F18BFFEF77EFE802F15D106EB450134F8150001F00201C900884095
:205520000090024603210120FEF70DFE0746802F18BFFEF769FE6D1C454501D2802FD4D0E6
:20554000A8E770B582B004460D46164603F0C6FF31460020FFF778FA04F00301C90005FAF5
:2055600001F10091802804BF0020FFF71CFA802804D1224601210120FEF70BFE802804D16E
:20558000009A03210120FEF704FE80280ED1DFF8C0088078012804D102F07AFCFEF7B9FE05
:2055A00004E000AA01210120FEF7C3FD01460020FEF755FE76BD80B503F090FF0021022089
:2055C000FFF742FA802809D1DFF8880800900023012200A9DFF84406FFF7F5FE02BD000068
:2055E0001101172070B582B0044605200D461646ADF80000A3B9DFF86008007838B9DFF86D
:205600005008017800291CBF4078012808D03146284603F067FF00A8017829704178697072
:20562000012332462946204630E200002010002010B50C46DFF8241801EB041182B08A7838
:20564000C97842EA01210128084604D101F074FFFEF75FFE01E002F09DFDADF80000012383
:20566000022200A9204604F034F8BDF8000016BD00B583B000A900220A6008218DF8001074
:2056800000A94A70DFF8C827D36E8B700521ADF80410DFF8C417097829B9117800291CBF24
:2056A0005178012908D000A900220A6001A900AA0B7813704B7853700123042200A904F023
:2056C00008F803B000BD0000F0FF00FF000C0140F0ED00E07C1000202DE9F04F8146DFF8C3
:2056E0007C0700EB091783B00D46B878F97840EA012A3879797940EA0126B0084FF0000BAA
:2057000000F0030803F0EAFEDFF84C07007838B9DFF83C17087800281CBF4878012809D0B1
:205720004FF6FF7082451EBF4FF6F0703040F02840F0B9804FF0010B55B9B879F97940EA55
:205740000120397A40EA0140797A40EA016001904FF6FF70824547D1300900F00F00FFF73A
:205760004EF98028ADF8000040F09880012D19D101AA41460020FEF7DCFCADF800008028C9
:2057800002BFDFF8CC068078002822D101AA0321FEF7ACFC0446802C18BFFEF735FDADF887
:2057A000004016E0019A41460020FEF7F2FCB8F1020FADF800000CD18028DFF8941603D056
:2057C0004FF6F070C86004E00198C8600198000EC866BDF80000802860D116F0F0005DD0D1
:2057E0000020FFF70CF959E04FF6F070DFF86046C4F870A03040F02813D05FFA8AF00928F8
:2058000006DA00EB4003DFF858269900895C41B9002804BF6079012803D01D20ADF800000B
:205820003CE006F0F000FFF7BEF88028ADF8000034D1012D1AD101AA41460120FEF756FCB5
:205840000646802E18BFFEF7DFFC802EADF8006024D101AA03210020FEF748FC0646802EDD
:2058600018BFFEF7D1FCADF8006017E0019A41460120FEF78EFCADF800007EB9206F04EB77
:205880008000FF210161BDF80000802806D1E06E019904EB8000090A0902416300A8DFF83A
:2058A000C415027806E00520ADF80000052200A8DFF8B0150A704278BDF800004A7080282F
:2058C0000CBF0120002003F013FD012DDFF894650AD10020B070F070042201A9301D03F030
:2058E00059FF5B46082201E05B46022231464846FFF778FE03B0BDE8F08F10B5044682B056
:205900000F22C821062003F023FD8020ADF800000123022200A9204603F0DBFE13BD38B50F
:205920000446DFF84405324D0078562809D18020ADF800000B22DFF83415A81C03F02AFF3C
:2059400007E00820ADF8000020220B21A81C03F05DFF00206873012300A80E220178297009
:205960004178697020462946CCE00000E8130020F8B504468020ADF8000020461C4D03F0FB
:20598000CFFE01282CD18021284603F0ABFDDFF8DC64DFF8DC74307B422804D1042239469D
:2059A000A81C03F0F7FEB87C522805D11022DFF8C414E81D03F0EEFEDFF8AC040078562875
:2059C00005D10B22314605F1180003F0E3FE00A8002301782970402241786970294603E048
:2059E0000123402205F14001204603F072FEF1BD48140020A0100020FCFFFF1F7CB5044693
:205A00008020ADF804002421DFF85004DFF8545400EB04108678284603F064FD1EB106209A
:205A2000ADF8040029E04FF4FA600090042200A9281D03F0AFFE01200090042200A905F15D
:205A4000080003F0A7FE48F6A0400090042200A905F10C0003F09EFE12200090042200A907
:205A600005F1100003F096FE4FF6FF700090042200A905F1140003F08DFE01A801230178B8
:205A800029702422417869702046294603F021FE73BD38B50446DFF8C40300EB0415297903
:205AA0006A79A87841EA0221AA7941EA0241EA7941EA0261EA7812B9FEF7E3FB0EE02A7A81
:205AC0006B7A42EA0322AB7A42EA0342EB7A42EA03630A460146E878FEF7EAFBADF800008D
:205AE000BDF8000080280CBF0120002003F000FC00A8DFF8701302780A70012342784A70C0
:205B00002046022203F0E5FD31BD30B583B004468020ADF804004FF4006000903021DFF832
:205B20004453284603F0DEFC01A8042201782970417869700A20A87000A9281D03F02AFED5
:205B4000012330222946204603F0C3FD03B030BDFCED00E00100FA050CED00E0F8B504460E
:205B600003F0DEFD012817D1DFF8F002DFF8085300EB04108178C07841EA002040F6FF316A
:205B80008842B34928BF40F6FE308867002180002860696028B314E0B74DB8482F68B14EAA
:205BA00000EB8411412F686828BF40273A46801903F0F0FD6868381868602868C01B286003
:205BC00004D02046BDE8F24003F09CBDA048816F89B2304602F00EFA2046BDE8F24003F0B5
:205BE00098BDF1BD002000E0014680B58020092912DA9B4A01EB410302EB83025278012AEC
:205C00000BD19348016700239D49C16500A9C06D00900248FEF77BBF1D2002BDF0ED00E09E
:205C200003005FA005005FA0F0B5894C247931220A230CB9002321E0924D2E79A6B1067883
:205C40002F78BE4202BF46786F78BE420AD18678AF78BE4202BFC678EF78BE4202D10023DB
:205C6000802236E0012701E00027002301266D1DFFB2A74204D10A2B08BF3346302228E02A
:205C800095F804C0BCF1000F1BD090F800C095F800E07F1CF44502BF90F801C095F801E00B
:205CA000F44511D190F802C095F802E0F44502BF90F803C095F803E0F44505D18022334631
:205CC00007E00A2B08BF3346761C6D1DF6B20A2ECEDB0B701046F0BD0100030138B55C4AAD
:205CE0006849002002F58C73FF24002543F8045B43F8045B43F8045B0D710C704C708C7015
:205D0000CC70401C491D0A28F0DB15710024544D002028706870FF220A21A81C03F076FD37
:205D2000641C0C35092CF3DB31BD70B582B00C460A218DF800101546454EF17889B132790C
:205D4000022A0EDB022901D1A32C02E0032902D1A52C25D105E0012903D1A32C18BFA52C60
:205D60001ED000A9FFF760FF30280CD19DF800100A2908DA3079012804D1F078022806D138
:205D8000A32C0DD180209DF80010297076BD032802D1032C04D1F5E7012808BFA32CF1D1E6
:205DA0000E20F0E7F0B4134680220A2B28DA03EB8306344F264DF41994F804C0BCF1000F82
:205DC00008D195F804C0BCF10A0FBCBF0CF1010C85F804C090F800C006F807C0467866706C
:205DE0008678A670C078E07003EB430005EB800000F58C700023036043608360217100E0F7
:205E00003122F0BC104670470146802010B40A291BDA0F4A1379C3B101EB410302EB8303A7
:205E200003F58C7300241C605C609C6001EB8101144BC918FF230C710B704B708B70CB705A
:205E40001179491E117110BC704710BC312070472010002001005FA0792F0020642F0020AD
:205E60007412002048140020323C0008333C0008403C0008533C0008942F0020482E00207F
:205E800000005FA0C02E00202DE9F04383B0804600208DF8020000258020ADF800004FF063
:205EA000FF39764800EB0816F07800B1FF25012902D0022943D0EBE0B078A32803D0A5280E
:205EC0000CBF022500216E4FB9700121A42808BF0021022D09D13079727940EA0220B279DF
:205EE00040EA0240F27940EA02694B462A464046FEF7B6FAADF80000FFF7F0FEBDF80000CC
:205F0000802809D108EB07000022C17806F10C00FFF748FFADF80000BDF80000802806D191
:205F20005849022008700022002103F011FA7078202840F09B80534902200870ABE0B17880
:205F40000DF1020206F10C00FFF7EFFE8028ADF8000070D14A4F08EB0704E078032818D1C8
:205F60003179727941EA0221B27941EA0241F27941EA0269796F11F1010F08BF19F1010FC9
:205F800004D0494518BF19F1010F02D01E21ADF80010B178A32918BFA52909D1012804BF88
:205FA0004046FEF7DCFCB078A52808BF022502D0B078A32801D101210EE0A528FBD0E07814
:205FC000022804BF4046FEF7CAFC0020B8700121B078A42808BF0021387948B1012815D194
:205FE0009DF80220284802EB82021018007968B14B462A464046FEF733FAADF80000FFF70B
:020000040800F2
:206000006DFEBDF8000080280CD102E08020ADF800009DF80220E17806F10C00FFF7C2FEEB
:20602000ADF80000BDF80000802804D100220021022003F08DF9707820282CD0FF2D15D06E
:206040000520ADF804001148007830B90C4F387800281CBF7878012808D000A8002101806F
:2060600001A800A902780A7042784A700123022200A9404603F02DFB10E000BF642F002072
:2060800020100020BF2F0020C02E0020792F0020404603F053FB404603F03BFB03B0BDE8FE
:2060A000F08300002DE9F04F85B00446002004908DF80A000027DFF8106D3078012803D037
:2060C000022834D001F024BADFF8000D00EB04104078202818BF302800F0D2803C2801F01A
:2060E00090803F2801F00A81432800F0C080442800F0C380492801F00C814A2801F00D8193
:20610000532801F04080552800F09E83562801F00881572801F00981582801F0EB80204691
:2061200003F00CFB204603F0F4FA01F0F1B9FEF7B6FADFF8980CDFF8085E00EB041999F88D
:206140000100401E5A28EAD8DFE810F0FA00130123014A01CB014002BB046D068303E803A7
:206160003104D3051B077B048D02AE035B005B005B005B005B005B005B005B005B005B00A3
:206180005B005B005B005B005B009A00A0005C005B005B005B005B005B005B005B005B00CA
:2061A0005B005B005B005B005B009A006B002301CB0140028D020D03AE0331047B044A0192
:2061C000BA075B084A01EB07D80865089308A70891009700DC08E108BB046D06E308E708C6
:2061E000F30850095B005B005B006D06250829081D08BB047E03EB08EF08D4085B004A0891
:206200004E088CE705F5827605F584713046FEF763FD012304223146204603F05AFA01F0AA
:2062200077B905F5827605F5847529463046FEF753FDADF8080080280CBF0120002003F0CB
:2062400057F802A8DFF8FC7C01783970042241787970381D314603F09DFA0422294607F129
:20626000080003F097FA01230C223946D4E721460120FFF7DDF901F04BB921460020F8E757
:2062800031782046FFF700FE01F042B90DF10A0109F10C00FFF7C8FC8028ADF808007FF47E
:2062A00041AF287902289DF80A0044DAFFF7ACFDADF80800DFF8908C98F8000078B13846F0
:2062C000FFF792FCADF80800FF22002088F8000088F801000A2108F1020003F097FA7F1C06
:2062E000092F08F10C08E7DBBDF808006719802804BFF87803280AD101F06FFEFEF709F825
:20630000ADF80800802804BF4FF0FF30686701220121DFF8380C02F03FFE2046FEF71FFB24
:206320000020F870A87002460146012003F010F801203070F6E6FFF767FDADF80800F1E697
:20634000DFF80C0C0078002841F0A980287800281CBF6878012841F05D800DF10B00FEF79C
:206360000FFD9DF80B0000280CBF8020812001F094B8DFF8DC0B0078002840F075822878DB
:2063800000281CBF6878012840F06E82FEF756FE6AE2DFF8BC0B0078002841F0808028782D
:2063A00000281CBF6878012841F034804FF0FF33002201212046FEF753F8ADF8080099F853
:2063C0000100032841F06B800DF10B00FEF78CFD9DF80B0000280CBF8120802001F05DB814
:2063E0000420ADF80C0099F80100042808BFADF80C70204603F094F9012855D199F802104A
:20640000296799F801203D2A08BF882204D000203A2A0CBF582254222A81DFF8342B1278E4
:20642000DAB92A78002A1CBF6A78012A15D1092906DA01EB4106DFF8103BB200D25C2AB905
:20644000002906BF697901291D2004D18021ADF80810FEF76FFCADF8080099F80100DFF85C
:20646000E46A04280CD0BDF8080080280CBF0120002002F03DFF02A80178317041787170C9
:2064800005F18001BDF80C00C0F14002304403F081F928894128C0F27584403828810023E7
:2064A0004020E8800246B6E6BDF80C002A89E9884042412A0BDB4031E980403A89B22A813E
:2064C000491940180023402200F14001A4E649194018002300F180012046FFF783F801F0AA
:2064E00017B8DFF86C6A99F8030031782867002941D1297800291CBF697801293BD109282C
:2065000006DA00EB4003DFF8402A9900895C39BB002804BF6879012822D01D20ADF80800E9
:20652000002002F0E5FE99F80100052829D1ADF80000307828B9287800281CBF68780128D3
:2065400009D005F15C0005F15C01076000A802780A7042784A700123042205F15C015BE668
:206560008020ADF8080005F15C0199F80200FEF733FBADF80800BDF808008028D0D10120F1
:20658000CFE702A8DFF8BC7901783970042241787970381D05F15C0103F0FCF80520ADF84C
:2065A0000000307828B9287800281CBF6878012808D00821384602F095FF00A801783970D7
:2065C0004178797001230822394625E699F80700286799F8031099F8042041EA022199F8E2
:2065E000052041EA024199F8062041EA0261E965DFF85C19097881BB297800291CBF6978E6
:2066000001292AD1092806DA00EB4003DFF838299900895CB9B9002804BF6879012812D017
:206620001D20ADF80800002002F062FEBDF80800802800F0348799F80100062840F02F8748
:20664000812000F02ABF8020ADF8080099F80210E86DFEF75FFAADF80800BDF8080080281B
:20666000E1D10120E0E799F80A00286799F8021099F8032041EA022199F8042041EA02418E
:2066800099F8052041EA0261E96599F8072099F8061041EA022199F8082041EA024199F803
:2066A000092041EA0261296699F80B2052B1092808DA05EB8003DFF8306D5B6B334043EA75
:2066C000026200E00022AA66DFF88428127842BB2A78002A1CBF6A78012A22D1092806DA82
:2066E00000EB4006DFF86038B200D25C72BB002804BF6879012829D01D20ADF808000020F5
:2067000002F0F6FD3B4699F80100062804BF8020ADF80800022202A92046FEF763FF00F0C7
:20672000F7BEE86DDFF8C02D904209D1E86DAB6E0091012200A9FEF746FEADF80800012706
:20674000BDF808008028DAD10120D9E78020ADF808000122E86DAB6E009100A9FEF733FE0A
:20676000ADF80800ECE799F80600286799F8021099F8032041EA022199F8042041EA0241AB
:2067800099F8052041EA0261E96599F8082099F80710120442EA012199F8092041EA02615A
:2067A000DFF8AC271278A96652BB2A78002A1CBF6A78012A24D1092806DA00EB4006DFF8C7
:2067C0008837B200D25C8ABB002804BF687901282CD01D20ADF80800002002F089FD02A8B8
:2067E000DFF8606701783170042241787170301D05F1600102F0CEFF3B46082231466BE64B
:20680000E86DDFF8E82C90420AD1E86D00910023012205F16001FEF753FCADF808000127EF
:20682000BDF808008028D7D10120D6E78020ADF808000023E86D0091012205F16001FEF7A8
:206840003FFCADF80800EBE72046FFF722F900F05FBEDFF8FC06007830B9287800281ABF1F
:2068600068780128FEF7A7FE8020ADF808000520ADF80000DFF8D806007828B92878002888
:206880001CBF6878012807D002A802A9078000A802780A7042784A700123022202A92046F8
:2068A00002F017FF00F034BE99F8030099F8041040EA012099F8051040EA014099F80610B2
:2068C00040EA0160E865DFF888060078B0B9287800281CBF6878012810D199F80B000190E0
:2068E00099F80800009099F80A3099F80920E96D99F80700FEF764FAADF80800BDF808003F
:2069000080280CBF0120002002F0F2FC99F80100102840F0C485802000F0BFBDDFF8300687
:206920000078002840F0BB85287800281CBF6878012840F06F85DFF8B86B009700230122A0
:2069400005F15C013046FEF7BBFBE86DDFF8A41B0843E8653B46E86D0090012200A9304698
:20696000FEF731FD0DF10B00FEF72BFB9DF80B000097002814BF80208120ADF8080000238D
:20698000012205F15C013046FEF79AFBE86DDFF8681B20F00C000843E8653B46E86D0090B8
:2069A000012200A93046FEF70EFD00F078BD99F80800286799F8031099F8042041EA0221A1
:2069C00099F8052041EA024199F8062041EA0261E965DFF87C15097869BB297800291CBF4E
:2069E0006978012927D1092806DA00EB4003DFF858259900895C91B9002804BF6879012844
:206A00000DD01D20ADF80800002002F071FC99F801000B2840F04385802000F03EBD802048
:206A2000ADF8080099F8072099F80210E86DFEF729FAADF80800BDF808008028E4D10120F9
:206A4000E3E7DFF80C1599F803000978286791BB297800291CBF697801292CD1092806DAC6
:206A600000EB4003DFF8E0249900895C91B9002804BF687901280DD01D20ADF80800002069
:206A800002F036FC99F801000E2840F00885802000F003BD8020ADF8080000970FF678207C
:206AA00099F8026050F826000023012200A9FEF78AFCADF80800BDF808008028DFD1012028
:206AC000DEE799F8080028670426DFF8040A784400F6FE10019099F80100472806D1DFF8BA
:206AE000F419794401F6EE1101910226542805D1DFF8E409784400F51E600190204602F0EE
:206B00000FFE012840F0DF8099F8020099F8031040EA012099F8041040EA014099F8051078
:206B200040EA0160686699F8071099F8060040EA0120B0F5C05FC8BF4FF4C050288199F89A
:206B40000A1099F80900090441EA002099F80B10EF8040EA0160A86600A92889ADF80C006A
:206B600009F10C00FFF760F8802808D19DF8002002EB420305EB830202F58C7701E005F50F
:206B80008677ADF8080004D0302038608046686E85E0286FC0B2092806DA00EB4003DFF86F
:206BA000A8239900895C59B9002804BF6879012806D01D20ADF8080038608046686E6EE043
:206BC0008020ADF80800386080464FF4006090FBF6F0ADF80E00DFF80099F94409F6FA0994
:206BE000DFF860A3DFF868B31CE002F081FBE88800F50060E880BDF80C00A0F50060ADF8D7
:206C00000C000198484503D0686E00F5006068663868802806D1C7F80080B8F1800F1CBF05
:206C200004987860BDF80C109BF80000B1F5006F19DD90B9287800281CBF687801280CD19F
:206C4000A86EBDF80E20DDF804C0009004ABE88800EB0A01686EE0478046B8F1800F0CBF37
:206C600001200020C1E788B9287800281CBF687801280BD1A86E009091FBF6F2E988686E01
:206C8000019E04AB92B25144B04780463868802806D1B8F1800FC7F8008001D00498786035
:206CA000B8F1800F0CBF0120002002F021FB2889412867DB4021E9804038288100234022B6
:206CC000A049FFF7A9BA2A89E8889E4E412A0CDB4030E880A2F14001298180B230440023F2
:206CE0004022A0F14001FFF797BA00238119FFF7F3BB99F80800286799F8031099F8020059
:206D000040EA012099F8041040EA014099F8051040EA0160686699F8071099F8060040EAB0
:206D200001204128A8BF4020288199F80A1099F80900090441EA002099F80B1040EA016085
:206D4000A86600A909F10C00FEF76EFF802808D19DF8002002EB420305EB830202F58C773D
:206D600001E005F58677ADF8080010D030203860002002F0BDFA686E78602889012804BFB2
:206D8000022028812A896F490023FFF7A5BB286FC0B2092805DA00EB40036B4A9900895CCA
:206DA00041B9002804BF6879012803D01D20ADF80800DCE78020ADF8080038600026DFF882
:206DC00084A1DFF88CB113E0BF2F0020642F002002F08EFA3868802806D1C7F80080B8F145
:206DE000800F1CBF686E7860686E401C6866761C2989F0B28842C0D09BF8000068B92878E7
:206E000000281CBF6878012807D1AA6E686EF6B206EB0A01FEF7A3FA8046B8F1800F0CBFA1
:206E200001200020D4E799F80100DFF8B0B6FB440BF2AA6B0426482805D1DFF8A4B6FB4456
:206E40000BF29E6B0226502804D1DFF898B6FB440BF2926B00A909F10C00FEF7E5FE80282A
:206E600008D19DF8001001EB410205EB820101F58C7701E005F58677ADF80800204602F01C
:206E80004FFC012800F096802889396841283DDB302918BF1D2915D02D480078A0B9287864
:206EA00000281CBF687801280ED1402090FBF6F2DFF84806AB6E00EB8411686E92B2D8471D
:206EC000804601E01FFA81F8B8F1800F0CBF0120002002F00DFA3868802806D1C7F80080DE
:206EE000B8F1800F1CBF686E7860DFF8F805784400F2F250834502D0686E403068662889AE
:206F000040382881204602F0FDFB01E3302918BF1D291FD00E490978F1B9297800291CBF90
:206F20006978012918D190FBF6F2DFF8D005AB6E00EB8411686E92B2D84780460CE000BFFB
:206F4000201000204814002074120020000C0140792F00201FFA81F8B8F1800F0CBF0120F4
:206F6000002002F0C5F9386880287FF4DBA8B8F1800FC7F800803FF4D5A8686E7860FFF738
:206F8000D1B800A909F10C00FEF74EFE802808D19DF8001001EB410205EB820101F58C77B7
:206FA00001E005F58677ADF80800204602F0B8FB012847D199F80810296799F8020099F8A3
:206FC000032040EA022099F8042040EA024099F8052040EA02626A6699F8060099F80730AE
:206FE00099F80A6040EA032099F80930360446EA032399F80B6043EA0663AB66BDF808305F
:20700000802B04D030213960696E796079E7092907DA01EB410CDFF8E8644FEA8C039B5DC8
:207020004BB9002904BF6979012904D01D21ADF808107A6002E08021ADF80810BDF808109E
:2070400039605EE73868302818BF1D2833D0DFF8AC04DFF8B0B4002600EB84190FE002F0EA
:2070600047F93868802806D1C7F80080B8F1800F1CBF686E7860686E401C6866761C29896D
:20708000F0B28842BFF44EA89BF8000068B9287800281CBF6878012807D1F6B2AA6E16F8D5
:2070A0000910686EFEF74DFA8046B8F1800F0CBF01200020D3E7002002F01AF9FFF732B8DC
:2070C00000A909F10C00FEF7AFFD802808D19DF8002002EB420305EB830202F58C7701E0A8
:2070E00005F58677ADF808001CBF302038600520ADF80000DFF80C04007828B92878002857
:207100001CBF6878012807D000203870787000A80178397041787970012302223946FFF7DB
:207120007BB800A909F10C00FEF77EFD802808D19DF8002002EB420305EB830202F58C7726
:2071400001E005F58677ADF808001CBF302038600520ADF80000DFF8AC03007828B928789E
:2071600000281CBF6878012808D00C21384602F0B9F900A8017839704178797001230C221E
:207180003946FFF749B84020ADF800000123022200A9FFF7C1BA204602F0ECFBB8E12046D4
:2071A00002F0BEFA012806D105F17C0105F1080002F029FCEF80E86FE9882A890918412A27
:2071C0003B46FFF689A94022204602F082FAE8884030E88005B0288940382881BDE8F08FDE
:2071E0002046FEF7BBFC93E1A86FC74EEE674000001DADF80C000123BDF80C203146FFF708
:207200006BB9C24800EB04108078FDF75EFCADF80800FFF741BBA87801283CD199F8020073
:2072200099F8031040EA0120ADF80C0099F8051099F8040040EA012099F8061040EA014016
:2072400099F8071040EA0160E865AE480078002840F02581287800281CBF6878012840F066
:20726000D980BDF80C10E86D02F0BFFCFDF751F813E1A878012802BFA248007800280AD142
:20728000287800281CBF6878012804D102F00DFDFDF73FF801E12020FFE0A878012802BF3B
:2072A0009848007800280AD1287800281CBF6878012804D102F051FDADF80C0001E0ADF87B
:2072C0000C700520ADF800008E48007828B9287800281CBF6878012807D003A803A90780D8
:2072E00000A802780A7042784A700123022203A9FFF7D5BA2046FEF708FC09E12046FEF761
:20730000B7F905E101212046FEF7E6F900E10021F9E72046FEF7F1FAFAE02046FEF7FFFA25
:20732000F6E02046FEF724FBF2E02046FEF766FBEEE00DF10A0109F10C00FEF775FC802884
:20734000ADF8080040F0AB80DFF8B8B19BF8000028B9287800281CBF6878012803D0287852
:20736000012840F09C8099F8026099F80370092E05DA06EB460262499000405C40B930460C
:20738000FDF75FFAADF80800802808BFFDF787F9BDF80800802804BF9BF80000002840F0FD
:2073A0007E80287800281CBF6878012832D11D20092EBCBF9DF80A100A2911DA06EB46002D
:2073C00082004F48165C131806B95F70C9188B78FF2B04D1731C13549DF80A008870802059
:2073E000ADF8080016E000BF00FFFF000DF10A0109F10C00FEF718FCADF80800802802BFFF
:207400004048007800284AD1287800281CBF6878012803D00520ADF8000046E099F80260C7
:207420009DF80A20092EB8BF0A2A18DA06EB4600810033480B18D2189278FF2A1CBF095C06
:2074400000290CD0092E0ADA06EB46029100085C012804D13046FEF7C7FBADF80800BDF851
:20746000080080281BD11D20092EBCBF9DF80A200A2A12DA06EB4600810021480B18D21874
:207480009678FF2E05D00E5C2EB1761E0E54FF269670085C00B95F708020ADF80800052014
:2074A000ADF800001748007830B9287800281CBF687801283FF4F0A902A80021018000A8FB
:2074C00002A902780A7042784A70FFF7E5B900BFF1DBFFFF91DDFFFFCBDCFFFFEBDEFFFFA4
:2074E000E9DFFFFF55DFFFFF004104E0044104E0F0ED00E008005FA000005FA0482E0020ED
:2075000074120020792F002048140020642F002005B0BDE8F08F0000082000E00C2000E0E1
:20752000102000E0142000E0182000E01C2000E0202000E0242000E0DFF8181C086100201B
:20754000704738B54FF40050ADF8000010208DF8030001208DF8020000A9DFF8FC5B2846AA
:2075600001F0B8FC4FF4A040ADF8000000A904208DF80300284601F0ADFC2020ADF800005C
:2075800004208DF8030001208DF8020000A9DFF8CC4B204601F09EFC1020ADF8000000A991
:2075A00004208DF8030001208DF80200284601F091FC1020ADF800008DF8030000A9012064
:2075C0008DF80200204601F085FC00221021204601F0E2FC0220ADF8000000A910208DF89F
:2075E000030001208DF80200204601F073FC00220221204601F0D0FC31BD10B582B00420A9
:207600008DF8030000A94FF4E040ADF80000DFF8480B01F05FFC0120FDF757FADFF83C4BF7
:2076200004208DF8030000A91220ADF80000204601F050FC4FF48460ADF8000000A92046A0
:2076400001F048FC13BD78B400244FF480454FF40052DFF80C3B20FA04F61A61F6074CBF83
:20766000DD601D61641C082CDA60F4DBDFF8F44A022020600124186820F0706040F0806046
:2076800018601A61D8680090DA60002008701A615D68DA60ED0404D50D7804FA00F6354320
:2076A0000D70401C0328F2DB71BC7047F8B50025DFF8A06ADFF8A83A4FF480474FF400520A
:2076C00020FA05F41A61E4074CBFDF601F6134690094DDF800C0BCF1010ECDF800E0F8D177
:2076E000DA600094DDF800C0BCF1010ECDF800E0F8D16D1C082DE3DBDFF8685A022028603E
:20770000186820F0706040F0806018601A6100940098401E0090FBD1D8680090DA60009482
:207720000098401E0090FBD1087001251A610094009E761E0096FBD15E68DA60360B06F07F
:2077400001060094009F7F1E0097FBD126B105FA00F70E783E430E70401C0328E6DBF1BDA7
:207760002DE9F54F81B08A460025DFF8F469DFF8F4B94FF480484FF001094FF400540020C6
:2077800000270CE058B1CBF80410316821F0706141F0407131603461F1680091F460002114
:2077A00034619DF8042022FA01F3DA074CBFC6F80C80C6F81080491C0829F460F0DB02210F
:2077C000CBF80010316821F0706141F0806131603461F1680091F46000210A463461736804
:2077E000F460DB0444BF09FA02F31943521C032AF4DB401CC9B2022902D1C0B26428C1DB26
:20780000012922D10020CAF80000014634617268F460D20408D5DAF8002009FA01F31A4366
:20782000CAF8002080F00100491C2029EEDB3461C2B27168F460090B01F0010102B911B9BC
:20784000C0B250B149B9042707E0022908BF012703D004290CBF022703270220CBF8040080
:20786000306820F0706040F0407030603461F0680090F460FFB1012F1DD09DF80800D0B95C
:20788000DFF8D008007A002D0CBF03256D1E70B9DFF8C018C8604EF29E7000F00CFBDFF8F8
:2078A000B408DFF8C4180078012200F05AFAEDB2002D7FF464AF38464CE12DE9F54F83B0F0
:2078C0008A460025DFF88CB8DFF89478DFF89C884FF400564FF0000900241AE0B9F1000F02
:2078E00017D0C8F80000386820F0706040F0407038603E61DBF8100000900099491E009146
:20790000FBD1F9680091FE6000900098401E0090FBD101A99DF80C00FFF7C8FE9DF80400C9
