:020000040800F2
:100000000008002065270008452200084722000854
:10001000492200084B2200084D2200080000000081
:100020000000000000000000000000005122000855
:100030004F2200080000000053220008552200084B
:1000400057220008592200085B2200085D220008A0
:100050005F22000861220008632200086522000870
:1000600067220008692200086B2200086D22000840
:100070006F22000871220008732200087522000810
:1000800077220008792200087B2200087D220008E0
:1000900081220008852200088722000889220008A2
:1000A0008B2200088D2200088F2200089122000870
:1000B000D1220008D3220008D5220008D722000848
:1000C000D9220008DB220008DD220008DF22000818
:1000D000E1220008E3220008E5220008E7220008E8
:0C00E000E9220008EB220008ED220008D5
:1000EC0010B5DFF89C47002800D12FE0DFF894070B
:1000FC0000680068804720680A3010BD80B5DFF8C2
:10010C0080070068C178DFF8802752788A420DD3C7
:10011C008278002A0AD18288002A07D18172DFF8FE
:10012C006407006840688047002002BD022002BDC1
:10013C0010B5DFF84C47002800D107E0DFF8440782
:10014C0000688068804720680C3010BD2068012151
:10015C000182002010BD10B5DFF824472068C1785B
:10016C004079DFF8282712689269904721688A7ACB
:10017C00002A07D0002805D10879002802D18878F8
:10018C00002801D0022010BDDFF8F8060068C06816
:10019C00804720684179C1722068C17801730020C2
:1001AC0010BD10B5DFF8D8160968002803D102205D
:1001BC000882002010BDDFF8D84600202080087887
:1001CC007F22104216D1487A810603D5002141F0D6
:1001DC00020121704006207809D540F00100207002
:1001EC00DFF8A006006800698047204610BD00F0CB
:1001FC00FE00F4E700F07F02012AF6D000F07F0049
:10020C000228D6D1487900F00F01DFF888260006C5
:10021C0052F8210005D500F030001028E0D1002064
:10022C00DBE700F44050B0F5805FD9D10020D4E773
:10023C0070B5DFF84C060068017811F07F0102BF41
:10024C00417A01F0DF01417254D0022905D1418875
:10025C00002902D10179002901D0022070BD417919
:10026C0021F08005DFF82C460A0654F825204CBFF7
:10027C0002F0300202F44052DFF80C361B789D423B
:10028C00EBD2002AE9D0807A0028E6D0080654F890
:10029C0025000BD500F03000102826D1284601F09F
:1002AC0021FA3021284601F0D0F91EE000F440502C
:1002BC00B0F5805F19D14BF68F7665B9DFF8D805AC
:1002CC0090F82C10002001F03AFA2068304080F4AD
:1002DC004050206009E0284601F0F4F954F825005C
:1002EC00304080F4405044F82500DFF89805006851
:1002FC0040698047002070BD38B5DFF8840502687E
:10030C00537923F08000DFF88C151C0651F820403F
:10031C004CBF04F0300404F44054DFF86C552D78D5
:10032C00A84207D25588002D04D1002C02D0927A15
:10033C00002A01D1022032BD1A0651F8202042BFFA
:10034C0048F6BF731A4082F0100204D44BF68F7338
:10035C001A4082F4805241F82020DFF8280500680A
:10036C0080698047002032BD80B5DFF81405006835
:10037C00417A41F020014172DFF808050068C0693C
:10038C008047002002BDDFF8F8241268538A20B998
:10039C008888C01A108200207047086818187047A7
:1003AC00F8B5DFF8DC54286800F110042688A16841
:1003BC00080015D0A6B1A088864288BF06463046F4
:1003CC00884707462088801B208060883018608012
:1003DC00002001F0A6F932460146384602F0AAF890
:1003EC00208860B1DFF8B4044FF440510180002143
:1003FC00002001F09DF9DFF8A80430210180286865
:10040C002188A288914202D303210172F1BD0029F7
:10041C0001D00521F9E706210172DFF88804006894
:10042C0080B2DFF88414002241F81020DFF8700449
:10043C0030210180F1BD38B5DFF84444206845789F
:10044C0001787F2211422CD1092D02D1FFF756FEE3
:10045C0038E0052D0BD1C178802906D2817821B9DD
:10046C00818811B9807A002839D0082045E0032D05
:10047C000AD1C178012926D1818821BB407A800616
:10048C0021D5FFF771FF1DE0012D1CD1C178012989
:10049C0019D18188B9B9407A800614D5FFF7C8FE06
:1004AC0010E001F07F00012804D10B2D0BD1FFF7D8
:1004BC0052FE07E0022806D1012DEFD0032D02D108
:1004CC00FFF71AFF58B12846DFF8C01309684969CD
:1004DC008847032808BF09200FD00028C5D1062063
:1004EC00DFF8C013096889B2DFF8BC23002342F897
:1004FC001130DFF8AC1330220A802168087231BD4C
:10050C002DE9F041DFF8784320684178062919D1AC
:10051C0001787F22114236D18078012802BFDFF8A2
:10052C006C030068C16979D0022802BFDFF85C0354
:10053C000068016A72D0032825D1DFF850030068E7
:10054C00416A6BE0002945D14188E1B9C188022993
:10055C0019D10179B9B901787F22114204D182886D
:10056C0012B9DFF8481359E001F07F02012A16D1C5
:10057C0000214079C54A12689269904718B92068E1
:10058C00807A0028EDD120684078C0490968096953
:10059C00884703284BD12068092101729BE001F0A8
:1005AC007F010229EFD1407900F00F0100F07002B9
:1005BC00B84B000653F821004CBF00F0300000F49B
:1005CC004050B14B1B789942DDD2002ADBD1002878
:1005DC00C7D1D8E7082905D100787F210842D2D1AC
:1005EC00B3491BE00A29CED1017801F07F01012922
:1005FC00C9D1817A0029C6D041880029C3D101799B
:10060C000029C0D1C1880129BDD1002140799F4A60
:10061C001268926990470028B5D1A6490800B2D05B
:10062C0020680022428281610020884700202168D6
:10063C000A8A4FF6FF739A4202D1092008724AE0E7
:10064C00022800D00AB90820F8E7087800063CD543
:10065C00C888904238BF08828C48006890F82C00FB
:10066C00888201F11005288828B9097A042904BF69
:10067C000726102024D0AF88874205D30426B84221
:10068C0088BF3846074600E00226B8B2A9688847FA
:10069C008046002001F044F80146BAB2404601F011
:1006AC0035FFB9B2002001F043F82888C01B288020
:1006BC00688838186880302078494FF440520A8096
:1006CC00774908802068067205E003200872734899
:1006DC004FF440510180BDE8F08138B5764871493E
:1006EC00096889B2754A32F8111000EB4100644C6C
:1006FC0021680A7A092A14D010F8012B0A70216893
:10070C0010F8012B4A70851C35F8040B01F060F8C9
:10071C0021684880288801F05BF821688880A888C7
:10072C00C8802068012101722068C08810B9FFF7C9
:10073C0082FE01E0FFF7E4FEBDE831406FE02DE9F9
:10074C00F0414F4C2068017A022901D0042934D1A0
:10075C0000F11005288820B9042904BF07261020B1
:10076C0024D0AF88874205D30426B84288BF3846C8
:10077C00074600E00226B8B2A968884780460020E8
:10078C0000F0CEFFBAB20146404601F0BFFEB9B24E
:10079C00002000F0CDFF2888C01B288068883818FE
:1007AC00688030203D494FF440520A803C49088013
:1007BC00206806722068007A14E0062911D141786D
:1007CC0005290AD101787F22114206D1C07800F0A8
:1007DC0040F82C480068006A80472C480068806804
:1007EC008047082021680872BDE8F04117E010B579
:1007FC00234C2068007A032801D0052804D1FFF788
:10080C00CFFD2068007A06E0072803D11F48006856
:10081C00C0688047082021680872BDE8104080B588
:10082C001D4890F82C10002000F089FF1448006837
:10083C00017A082906D119494FF480520A801849C7
:10084C0010220A80007A092801D1012002BD002063
:10085C0002BDF0B40C49097800220E4B59B11C466C
:10086C0048F68F7526682E40D7B23E4344F8046B89
:10087C00521C8A42F6D340F08000D864F0BC70471A
:10088C004C1C0020541C0020100B0020501C00207D
:10089C00941C0020005C0040000A00209C1C0020DE
:1008AC009E1C0020505C004004600040AF0100081A
:1008BC00ED0000083D0100080060004008600040A9
:1008CC0070470000F0B5046842688368C0680C602B
:1008DC004A608B60C860DFF8BC550A26DFF8B87533
:1008EC00C0F3074C1CF807C0C0F3072E1EF807E036
:1008FC004FEA0E4E4EEA0C6C5FFA80FE1EF807E0D3
:10090C004CEA0E2C4FEA106E1EF807E04EEA0C0C67
:10091C0055F804EB8EEA0C0C8CEA0404624053404C
:10092C00584041F8104F4A608B60C860761ED7D192
:10093C00F0BDC7E72DE9F04F02F2A002036852F8B0
:10094C00044B84EA030E436852F8044B84EA030810
:10095C00836852F8044B84EA0309C06852F82C39B6
:10096C0083EA000C09201B23DFF830454FEA1E6593
:10097C002D5DCCF30746365D360446EA0565C9F3B2
:10098C000726365D45EA06255FFA88F6365D35435F
:10099C00166975404FEA1866365DCEF307473F5D22
:1009AC003F0447EA0666CCF307273F5D46EA072675
:1009BC005FFA89F73F5D3E4357697E404FEA1967FE
:1009CC003F5DC8F3074A1AF804A04FEA0A4A4AEAFC
:1009DC000767CEF3072A1AF804A047EA0A275FFA3A
:1009EC008CFA1AF804A04AEA0707D2F818A08AEA87
:1009FC0007074FEA1C6C1CF804C0C9F3074919F827
:100A0C0004904FEA094949EA0C6CC8F3072818F816
:100A1C0004804CEA082C5FFA8EFE1EF804E04EEAC5
:100A2C000C0CD2F81CE08EEA0C0C05F07F3E25F085
:100A3C007F384FEAD81803FB08F888EA4E0E0EF000
:100A4C007F382EF07F394FEAD91903FB09F989EA6F
:100A5C00480808F07F3928F07F3A4FEADA1A03FB8E
:100A6C000AFA8AEA490989EA050585EA080A85EA43
:100A7C000E0B88EA0E0E89EA0E0E8EEA3B6E8EEA9B
:100A8C003A4E8EEA352E06F07F3526F07F384FEA47
:100A9C00D81803FB08F888EA450505F07F3825F0DF
:100AAC007F394FEAD91903FB09F989EA480808F09C
:100ABC007F3928F07F3A4FEADA1A03FB0AFA8AEAFE
:100ACC00490989EA060686EA080A86EA050B88EAD5
:100ADC00050589EA050585EA3B6585EA3A4585EA17
:100AEC00362807F07F3527F07F36F6095E4386EA15
:100AFC00450505F07F3625F07F394FEAD91903FB00
:100B0C0009F989EA460606F07F3926F07F3A4FEA62
:100B1C00DA1A03FB0AFA8AEA490989EA070787EA1B
:100B2C00060A87EA050B754089EA050585EA3B65E7
:100B3C0085EA3A4585EA37290CF07F352CF07F366B
:100B4C00F6095E4386EA450505F07F3625F07F37CA
:100B5C00FF095F4387EA460606F07F3726F07F3AA7
:100B6C004FEADA1A03FB0AFA8AEA470787EA0C0CFF
:100B7C008CEA060A8CEA050B75407D4085EA3B65DC
:100B8C0085EA3A4585EA3C2C103A401E7FF4EEAEDD
:100B9C004FEA1860005DCEF307431B5D1B0443EA6C
:100BAC000060CCF307231B5D40EA03205FFA89F356
:100BBC001B5D1843536958404FEA19631B5DC8F31A
:100BCC0007452D5D2D0445EA0363CEF307252D5D06
:100BDC0043EA05235FFA8CF52D5D2B4395696B4039
:100BEC004FEA1C652D5DC9F30746365D360446EAAF
:100BFC000565C8F30726365D45EA06255FFA8EF6CD
:100C0C00365D3543D66975404FEA1E66365DCCF3CA
:100C1C0007473F5D3F0447EA0666C9F307273F5D78
:100C2C0046EA07265FFA88F73C5D34431269624056
:100C3C000A6048608B60CD60BDE8F08F2DE9F0470D
:100C4C00036814686340446855686C40856896680E
:100C5C007540C068D66886EA000802F110000922C7
:100C6C001B268D4F4FEA136C1CF807C0C4F3074EBC
:100C7C001EF807E04FEA0E4E4EEA0C6CC5F3072E39
:100C8C001EF807E04CEA0E2C5FFA88FE1EF807E00F
:100C9C004EEA0C0C4FEA146E1EF807E0C5F3074938
:100CAC0019F807904FEA094949EA0E6EC8F307296B
:100CBC0019F807904EEA092E5FFA83F919F8079094
:100CCC0049EA0E0E4FEA156919F80790C8F3074A5E
:100CDC001AF807A04FEA0A4A4AEA0969C3F3072A35
:100CEC001AF807A049EA0A295FFA84FA1AF807A049
:100CFC004AEA09094FEA186818F80780C3F3074352
:100D0C00DB5D1B0443EA0863C4F30724E45D43EA98
:100D1C000423ECB2E45D44EA03082CF07F33DB09D6
:100D2C0073430CF07F348CEA44055D4093EA440332
:100D3C0083EA356383EA3C4383EA3C2350F8044B53
:100D4C0063402EF07F34E40974430EF07F358EEA55
:100D5C00450C84EA0C0C94EA450484EA3C6484EA6D
:100D6C003E4484EA3E2450F8045B6C4029F07F3505
:100D7C00ED09754309F07F3C89EA4C0E85EA0E0EAD
:100D8C0085EA4C0585EA3E6585EA394585EA3925CB
:100D9C0050F804CB8CEA050528F07F3C4FEADC1CAC
:100DAC0006FB0CFC08F07F3E88EA4E098CEA090928
:100DBC008CEA4E0C8CEA396C8CEA384C8CEA382C68
:100DCC0050F804EB8EEA0C08521E7FF44BAF220E47
:100DDC00D25DC5F30746F65D360446EA0262C8F3F7
:100DEC000726F65D42EA0622DEB2F65D324346681D
:100DFC0072402E0EF65DC8F3074C1CF807C04FEA84
:100E0C000C4C4CEA0666C3F3072C1CF807C046EAE8
:100E1C000C265FFA84FC1CF807C04CEA0606D0F8D6
:100E2C0008C08CEA06064FEA186C1CF807C0C3F31E
:100E3C00074E1EF807E04FEA0E4E4EEA0C6CC4F358
:100E4C00072E1EF807E04CEA0E2C5FFA85FE1EF802
:100E5C0007E04EEA0C0CD0F80CE08EEA0C0C1B0EE2
:100E6C00DB5DC4F30744E45D240444EA0363C5F387
:100E7C000724E45D43EA04235FFA88F4E45D23432A
:100E8C000068584008604A608E60C1F80CC0BDE82C
:100E9C00F0870000300A0020000800200009002024
:100EAC0080B500F0B5FCC049087001BD2DE9F041DA
:100EBC0006460C46B04614F003000BD04FF6FC70FF
:100ECC002040001D844205D2FF22011BB748201888
:100EDC0001F0C4FA002744B1B44D7959304600F002
:100EEC00B5FC361D3F1DA742F7D3B1480021418206
:100EFC0034B1418A18F8012B51184182641EF8D183
:100F0C00418A028A91420CBF00210321C172BDE8C3
:100F1C00F081A748022181720021C172A54801709D
:100F2C00704710B5A4484168A44C2160616000680A
:100F3C00083801F03FFA6068BDE810400047000037
:100F4C0030B587B09E484178491E072900F22581AB
:100F5C00DFE811F0260023019100E60001010E01EB
:100F6C00220008001422974901A801F04CFA964877
:100F7C0000788DF808001422A02101A801F0C6FA0F
:100F8C001421012000F0D4FB3021012000F05DFB86
:100F9C008E480321017005E185480721017301E1A9
:100FAC00834CA17A022901D005295BD182796AB9D7
:100FBC00C17959B9012060620620A072E07A2070D4
:100FCC0000206070608006202071E9E07F490B787A
:100FDC00CBB9C378857845EA03232362C37942EA07
:100FEC000322A2614279007940EA02202082A069A2
:100FFC00E0610020E081012008704FF44051022094
:10100C0000F035FBCEE0724D206A90B9002100F063
:10101C0029FF287820732879E978090441EA0060CF
:10102C00A97840EA01206978084360610320A07226
:10103C00CAE7E0890019A269412A0BD3402229464C
:10104C00283001F0D3F9E0894030E081A0694038C4
:10105C00A061D2E72946283001F0C8F90320A0721C
:10106C0020719DE00A20A0720F202070002060707B
:10107C0060800A20A8E74E4CA07A032818D00428D8
:10108C0002D0062845D03EE0607BC00741D5052044
:10109C00A0722071002060706080E07A2070607B0C
:1010AC0000F0FE0060730021012000F0DBFE30E058
:1010BC00607BC1070CD50520A072207100206070E8
:1010CC006080607B00F0FE006073E07A2070EAE7DD
:1010DC000421A1722171217B412901D0512901D117
:1010EC00502100E0002100919DF8001061709DF8E6
:1010FC000110A1709DF80210E170E17A217040F0AE
:10110C000200607305E02071002060706080E07A5E
:10111C0020700622A021204601F0F8F9062130E7C4
:10112C00234CA07A0A2808D10220A072002020604B
:10113C0002202071002060710BE00A20A0720E20AA
:10114C0020700020607060800A2020710020607187
:10115C000E20E07224E0164CA07A6072E07A2072C5
:10116C000222A02104F1080001F0D0F9022108E7C5
:10117C000F4CA07A801E012804D9C01E012801D969
:10118C00001F0DD10220A0720020206002202071CF
:10119C00002060712062A061DBE7022000F01CFEE1
:1011AC0000F009FE07B030BDA61C00203C13002047
:1011BC00140B0020651C002000400008881C002037
:1011CC00681C0020E0F7FF1F203C0008641C002076
:1011DC00F01B002010B49348016842688068D9B1B4
:1011EC00914B9970C1F307241C71C1F307449C7196
:1011FC00090E19729A72C2F307211973C2F30741CF
:10120C009973110E19749874C0F307211975C0F3F2
:10121C0007419975000E187610BC704780B583484D
:10122C000068807A40B1012000F05CFA022000F0E6
:10123C0049FA7F480021017001BD000038B5FFF765
:10124C00C9FF7A4C20680021817201F0CFF97948EE
:10125C00002141604FF40441774A118001602068FD
:10126C007649C9794172764D2068807A60B92878C0
:10127C00012804D14FF4FA71042000F0F3FD00BFF3
:10128C002068807A0028F2D06E480521017031BDAB
:10129C0010B56D4800218172002000F0C7F94FF4A1
:1012AC000071002000F0C9F92021002000F0CDF9D8
:1012BC002021002000F02DFA644C94F82C10002012
:1012CC0000F03DFA6021002000F022FA002000F02E
:1012DC00EDF9002000F0E0F90021012000F0ADF95B
:1012EC00A021012000F014FA2021012000F0ADF91A
:1012FC000021012000F0BBF90021022000F09DF933
:10130C00E021022000F005FA94F82C10022000F0E5
:10131C0016FA4FF44051022000F0A9F900210220E6
:10132C0000F093F90021032000F087F94FF480714D
:10133C00032000F0EDF92021032000F086F90021B4
:10134C00032000F094F994F82C10002000F0F7F929
:10135C00002000F0A1F90020FFF77BFA34480021AF
:10136C00017010BD7047704780B5304909680A7824
:10137C0002F07F02212A0DD1FE280BD148880028CB
:10138C0008D18888002805D1C888012802D13048A6
:10139C00020001D1022002BD88610020488200F0C9
:1013AC0037F8002002BD80B5204909680A7802F0A0
:1013BC007F02212A18D1FF2816D14888002813D182
:1013CC008888002810D1C88800280DD1012000F091
:1013DC0089F9022000F076F9032000F083F9144813
:1013EC0000210170002002BD022002BD01B900B134
:1013FC00022070471749FEF7C6BF1749FEF7C3BF57
:10140C000A490968C978154A02EBC101FEF7BBBF4E
:10141C00002805D105480068012101820020704791
:10142C000F487047E8F7FF1FA40A00204C1C00204F
:10143C00641C0020405C0040A41C002050260008C6
:10144C00A01C0020A81C0020301C0020000A00203A
:10145C001D140008F80A0020000B0020580A002078
:10146C00981C00202DE9F84F4BF68F78684D48F604
:10147C000F7B40F68F77674CDFF89C91DFF89CA1CF
:10148C0023E0300404D5206838402060FFF7AFF922
:10149C00206808EA00002988CA0448BF80F48050FC
:1014AC00890444BF80F4005080B22060206848F664
:1014BC00BF7108406988CA0648BF80F010008906D1
:1014CC0044BF80F0200080B22060606CAAF800005D
:1014DC00000460D547F6FF706064BAF8000010F0A5
:1014EC000F0089F8000035D1206800F440502880A6
:1014FC00206800F030006880206808EA000080F462
:10150C0000502060206848F6BF71084080F0200031
:10151C002060BAF80000C00620680FD40BEA000067
:10152C002060FFF70CF920684FF408410842AFD057
:10153C00206838402060FFF7D0F8A9E786B2300663
:10154C0005D520680BEA00002060FFF7F8F830059D
:10155C0097D5EDE754F820108EB231040AD554F823
:10156C002010394044F820102D4901EB800050F830
:10157C00040C80473006A8D599F8000054F82010C8
:10158C000BEA010144F82010264901EB800050F8C9
:10159C00040C804799E7BDE8F18F2DE9F84FDFF88F
:1015AC00809040F68F75DFF86CB01B4F47F6FF78D4
:1015BC001A4CDFF874A024E0CAF80080208800F0F0
:1015CC000F0038705BF820108EB2310409D55BF82F
:1015DC00201029404BF8201009EB800050F8040C27
:1015EC00804730060DD538785BF8201048F60F721E
:1015FC0011404BF820100B4901EB800050F8040C03
:10160C008047DAF8000020800004D5D4BDE8F18FC3
:10161C009C1C0020005C0040A71C0020A21C002089
:10162C00DC0A0020C00A0020445C00404FF6F87130
:10163C000840DFF884110860704710B4DFF87C2193
:10164C0052F8203048F68F145CE010B4DFF86C21AF
:10165C0052F8203048F6BF742340CC0648BF83F0C4
:10166C001003890644BF83F020039BB210E010B432
:10167C00DFF8482152F820304BF68F742340CC040D
:10168C0048BF83F48053890444BF83F400539BB256
:10169C0042F8203010BC7047DFF8201151F82020A0
:1016AC004BF68F731A4082F4405208E0DFF80C11AD
:1016BC0051F8202048F68F6300E000001A4041F8F2
:1016CC0020207047DFF8F41051F82020520408D580
:1016DC0051F8202048F68F731A4042F4804241F8AA
:1016EC0020207047DFF8D41051F82020520608D57E
:1016FC0051F8202048F68F731A4042F0400241F80E
:10170C00202070472340194342F8201010BC70472A
:10171C0038E0294A126892B202EBC000284A37E03E
:10172C003BE02549096889B201EBC00024493AE045
:10173C00214A126892B202EBC000224A2AE01E4AE9
:10174C00126892B202EBC0001F4A02EB40003F2924
:10175C0009D34A091F23194204BF521E92B29102A7
:10176C0041F4004105E04A08C90744BF521C92B23B
:10177C009102016070471049096889B201EBC00001
:10178C00114914E00C4A126892B202EBC0000F4AE5
:10179C004908490042F8101070470749096889B296
:1017AC0001EBC000094951F8100080B2704751F8A4
:1017BC0010008005800D7047505C0040005C0040BC
:1017CC0008600040046000400C6000400060004075
:1017DC000106090C41EA102070470000DFF8541193
:1017EC000A6802F03802FFE70A600A6810430860D2
:1017FC007047DFF840110A6822F01002F4E7DFF8B6
:10180C003801DFF838110160DFF8341101607047DE
:10181C0070B5054640F6FF76304600F09BF804287C
:10182C0013D1484C206840F00200206065602068AD
:10183C0040F040002060304600F08CF8012804D0C5
:10184C00216841F6FD721140216070BD70B50546EE
:10185C000E4616F1010F01D1042070BD0F2000F0CF
:10186C0079F8042816D1374C206840F0010020602C
:10187C002E800F2000F06EF8042804D1300C688004
:10188C000F2000F067F8012804D0216841F6FE72A1
:10189C001140216070BD70B5044640F6FF752846B6
:1018AC0000F058F8042830D1274E244830602448E2
:1018BC003060B06840F02000B060B06840F040008C
:1018CC00B060284600F046F8042817D1B06841F6FD
:1018DC00DF710840B060B06840F01000B0601B4889
:1018EC00002C14BF0021A5210180284600F032F8FD
:1018FC0001280AD0B16841F6EF7204E0012804D047
:10190C00B16841F6DF721140B16070BD10480168DA
:10191C00C90701D5012070470168490701D502208C
:10192C0070470068C00601D503207047042070473B
:10193C000000000000200240042002402301674503
:10194C00AB89EFCD102002400820024000F8FF1FA9
:10195C000C20024038B50546FFF7D8FFFF2408E0FD
:10196C000098401E009000980028F9D1FFF7CEFF98
:10197C006D1E012804D125B1002000900094F2E7DF
:10198C0005B9052032BD000058480021C160016135
:10199C001421416100218161C161016841F00101A3
:1019AC0001604168524A114041600168514A11403E
:1019BC000160016821F480210160416821F4FE017D
:1019CC00416000218160704748490A6822F48032E6
:1019DC000A600A6822F480220A60B0F5803F03D0C6
:1019EC00B0F5802F04D07047086840F4803002E0D6
:1019FC00086840F4A0200860704710B53E4C3120B8
:101A0C0000F05DF820706068401C6060207810B9B0
:101A1C006068FF28F3D1312000F051F8401E80415E
:101A2C00C043C00F10BD354A136823F47C13184310
:101A3C000843106070473249086070472F490A68A4
:101A4C00920850EA8200086070472C48006800F049
:101A5C000C00704729490A6822F0F00203E027497C
:101A6C000A6822F4E06210430860704723490A6850
:101A7C0022F4605242EAC0000860704721490860B5
:101A8C007047214A0029116814BF084321EA00005D
:101A9C00106070471D4A0029116814BF084321EAE1
:101AAC000000106070471A4A0029116814BF0843DF
:101ABC0021EA000010607047164908707047410910
:101ACC000A4A012908BF116803D002290CBF116A08
:101ADC00516A012200F01F0002FA00F00840401E7B
:101AEC00FFE78041C043C00F704700000010024068
:101AFC000000FFF8FFFFF6FE801C002004100240DF
:101B0C0060004242D8004242181002401C100240B1
:101B1C000C1002400710024080B50620FFF7CCFFE6
:101B2C004FF48070ADF8000018208DF803000320EE
:101B3C008DF8020000A94948A6E080B5FFF724FF04
:101B4C004FF48030FFF740FFFFF757FF012828D1F3
:101B5C001020FFF74EFE0220FFF740FE0020FFF79B
:101B6C0079FF4FF48060FFF781FF4FF48060FFF73F
:101B7C0076FF0020FFF782FF4FF4E0114FF4803026
:101B8C00FFF751FF0120FFF756FF3920FFF797FFB2
:101B9C000028FAD00220FFF751FFFFF756FF082864
:101BAC00FBD1FFF72CFE01212020FFF76AFF01215A
:101BBC004FF40000FFF76EFF01214FF40170FFF7A7
:101BCC0060FFBDE80140A7E780B500F04DF8BDE827
:101BDC00014000F019B980B500214FF0006000F011
:101BEC00C1FA1F48002101604FF4A06000F076FAA2
:101BFC0014208DF8000001208DF8010000208DF8D4
:101C0C00020001208DF8030000A800F06CFA1320EC
:101C1C008DF8000000208DF801008DF802000120E5
:101C2C008DF8030000A800F05EFA1B208DF8000070
:101C3C0000208DF801008DF8020001208DF80300C2
:101C4C0000A800F050FA01BD064A00284FF480713C
:101C5C00104601D000F0DEB900F0DAB900080140FE
:101C6C00445C00400014014080B54FF48070ADF826
:101C7C00000014208DF8030003208DF8020000A949
:101C8C00004801E00014014000F062F901BD0000C1
:101C9C0000B583B04C4801788DF8001040788DF871
:101CAC0001004A48017A8DF80210417A8DF8031030
:101CBC00817A8DF80410C07A8DF80500062100A8F1
:101CCC0000F067F803B000BD10B582B0404C6078EE
:101CDC0000F20010ADF800000222A02100A800F0D4
:101CEC0015FC0320207002210120FFF721FD30217B
:101CFC000120FFF7AAFC13BD80B5354801780229F5
:101D0C0006D0032901D0042907D1BDE8014052E0D7
:101D1C000079F32808BFFFF713F901BD10B50220B5
:101D2C00FFF729FD04462246E0212A4800F002FC78
:101D3C002748017811B1012904D007E02046BDE8FD
:101D4C00104007E00079F32803D11EE0022000F0D8
:101D5C0043F810BD10B51E4C20B102461D49201D84
:101D6C0000F044FB2079F12804D0F32805D0F528A5
:101D7C0004D006E0BDE810408AE706E0BDE810405C
:101D8C00A2E70220BDE8104026E0BDE81040FFF7B6
:101D9C00D7B810B50C462246A02100F0B7FB21465F
:101DAC000120FFF7C5FC30210120FFF74EFC08484D
:101DBC000321017010BD0648002101704FF4405101
:101DCC000220FFF754BC0000FE3F00081C2700084F
:101DDC00641C0020F01B002080B518B1022807D02D
:101DEC000AD301BD10210120BDE80440FFF72DBC32
:101DFC0010210120FFF729FC4FF480510220BDE88F
:101E0C000440FFF734BC000000B585B001214FF44D
:101E1C000060FFF736FE01210420FFF732FE00F0D0
:101E2C00FBF8464802210186018801F09F010180E0
:101E3C00018801806020ADF800000220ADF8080098
:101E4C000120ADF8020000A800F0F3F8012000F02A
:101E5C002AF9012000F024F9012000F00EF905B058
:101E6C0000BD000070B582B004460D46344E30788B
:101E7C00844207D00021042000F003F9002000F078
:101E8C00F8F802E07068A84257D0062C3DD8DFE87D
:101E9C0004F0040E122314212B002A48016821F0AF
:101EAC00F0010091009941F0400101602DE05020BB
:101EBC0000F0F1F829E04020FAE7502000F0EBF8B0
:101ECC002148858248F6A04101820121042000F0BE
:101EDC00D8F81AE04020F1E71B4864218182818AFE
:101EEC0049080184642106E017488582C5F34F0137
:101EFC0001844FF6FF7101820188C9B200910099EB
:101F0C0041F4D041009100990180104801210160F9
:101F1C00307818B1042801D0052809D144B10948FA
:101F2C00016821F0F0010091009941F0B0010160CD
:101F3C0034707560012000F09CF873BD002C0140DA
:101F4C00781C002004080140182C01408082254296
:101F5C002DE9F041CB7803F00F02DB0644BF8B7800
:101F6C001A430B88DCB22CB3D0F800C00024012536
:101F7C000F2605FA04F707EA0308B84515D14FEA0E
:101F8C00840E06FA0EF82CEA080C02FA0EFE4EEA43
:101F9C000C0C91F803E0BEF1280F08BF476191F8D3
:101FAC0003E0BEF1480F08BF0761641C082CE0D3A6
:101FBC00C0F800C04FF48074A34227D3D0F804C0FB
:101FCC00002401250F2604F1080705FA07F707EA94
:101FDC000308B84515D14FEA840E06FA0EF82CEA20
:101FEC00080C02FA0EFE4EEA0C0C91F803E0BEF15E
:101FFC00280F08BF476191F803E0BEF1480F08BFF6
:10200C000761641C082CDED3C0F804C0BDE8F08165
:10201C00016170474161704780B501214FF4006048
:10202C00FFF741FD00214FF40060BDE80440FFF7CD
:10203C003ABD10B4DFF884100A88DFF8843000242D
:10204C001C60D2B2048842EA04220A8042881A60D8
:10205C0082889A6002895A604289DA60DFF86420CB
:10206C00FFE783891360C3895360C088088410BC60
:10207C007047DFF8541008607047DFF850100860A4
:10208C007047DFF84C20012911880CBF084321EA66
:10209C0000001080704709490A8840F67F7308E0F9
:1020AC000C49086070470C49086070470A884FF269
:1020BC00FF331A4042EA002008807047182C014078
:1020CC0010842542A880254200802542BC882542E8
:1020DC000C2C01401C8025422C83254226490843A8
:1020EC002649086070472DE9F04105780121C27836
:1020FC007AB3224A126802F4E062C2F5E062120A74
:10210C00AB10DFF8708058F8237005F00305ED0074
:10211C00FF26AE40B7434478C2F1040E04FA0EFC1D
:10212C0090F802E00F2424FA02F202EA0E0242EACC
:10213C000C021201AA4032403A4348F8232000789E
:10214C0042110F4B00F01F0001FA00F043F822007F
:10215C0006E06811064A05F01F03994042F820106A
:10216C00BDE8F081074A11400843074908607047F1
:10217C0080E100E000E400E00000FA050CED00E076
:10218C0000E100E080FFFF1F08ED00E070B5FFF7F5
:10219C00D4FCFFF719FDFFF71EFD4FF4FA61042084
:1021AC00FFF760FE0120FFF776FB00F0D3F900216A
:1021BC000120FFF757FEFEF7ACFE1848184C194DDE
:1021CC00194E01780529FCD12878800720D5207874
:1021DC00212809D0412802D0512808D012E01348F8
:1021EC000068FEF75DFE0DE0512020700AE03268B9
:1021FC0092B20F490F4800F075F831680B4800682F
:10220C00FEF754FE287800F0FD0040F00100287025
:10221C0020780728D8D1FEF784FED5E7A81C00202B
:10222C00200B0020210B0020300B0020280B00205D
:10223C003C1300203C0B00207047FEE7FEE7FEE756
:10224C00FEE770477047704770477047704770479C
:10225C0070477047704770477047704770477047BA
:10226C0070477047704770477047704770477047AA
:10227C00FFF793B900F026B9704770477047704765
:10228C007047704781B00C48018821F0040101802F
:10229C000A480168491C01600948026822F0F002F2
:1022AC000092C90700994CBF41F0400141F0B001C8
:1022BC00016001B070470000102C0140901C002000
:1022CC00040801407047704770477047704770476B
:1022DC00704770477047704770477047704770473A
:1022EC0070470000F0B585B005460E4617460F2026
:1022FC00074200D10FB901202FE0194C2078F8B912
:10230C0000A9184A135C01F8013B401C0428F9DBB6
:10231C00042001A9144A135C01F8013B401C10284D
:10232C00F9DB211D1148FEF7CDFA221D00A900A8EA
:10233C00FEF784FC211D00A8FEF7FBFA012020709B
:10234C0057B1221D31462846FEF7F4FA10351036E7
:10235C00103FBFB2002FF4D1002005B0F0BD00003B
:10236C003C1B0020E0F7FF1FE4F7FF1F4427000889
:10237C0030BF704720BF704740BF7047BFF36F8FAF
:10238C007047BFF34F8F7047BFF35F8F704701DF0C
:10239C007047EFF31480704780F31488BFF36F8F8E
:1023AC007047EFF30980704780F309887047EFF3AB
:1023BC000880704780F30888704762B6704772B621
:1023CC007047EFF31080704761B6704771B6704775
:1023DC00EFF31380704780F311887047EFF312808E
:1023EC00704740BA704700BA704700004AB38B0779
:1023FC0007D011F8013B00F8013B521E21D08B078E
:10240C00F7D183071ED1103A07D330B4B1E8381096
:10241C00103AA0E83810F9D230BC530724BFB1E809
:10242C000810A0E8081044BF51F8043B40F8043BE6
:10243C00D20724BF31F8022B20F8022B44BF0B78B3
:10244C0003707047083A07D3B1E80810083A40F80F
:10245C00043B40F804CBF7D25307E4E762F30F22B6
:10246C0062F31F42401810F0030308D0C91A1FD39F
:10247C00DB0748BF00F8012D28BF20F8022D130000
:10248C0030B414461546103928BF20E93C00FAD860
:10249C00490728BF20E90C0048BF40F8042D8900EB
:1024AC0028BF20F8022D48BF00F8012D30BC704722
:1024BC00C91818BF00F8012DCB0728BF00F8012D53
:1024CC007047000038B50D4C0D48016861800D4D0A
:1024DC0061882A881140490505D54FF6FF31016006
:1024EC00094840688047608829880840000403D563
:1024FC00FEF7B8FF0120207031BD00BFA01C0020EA
:10250C00445C0040A41C0020000A002010B4104BB6
:10251C0003EB4101521C52100AD010F8013B10F889
:10252C00014B43EA042321F8023B891C521EF4D1CF
:10253C0010BC7047064B03EB4101521C521005D0E6
:10254C0051F8043B20F8023B521EF9D170470000B1
:10255C000060004010B50A4CE4610220207209486A
:10256C00206209496162006880474FF40070E062A4
:10257C004FF48010A0624FF40060206310BD00BFC8
:10258C00301C0020000A0020800A002080B500F0DA
:10259C00EFF802000023DB431068984204D01100CE
:1025AC000220ABBE002010605068984204D0111D70
:1025BC000220ABBE0020506001BD000010B40FE043
:1025CC0001680918001D50F8042BD40744BFA9F169
:1025DC000104A21851F8044B42F8044B1B1FF9D10B
:1025EC0050F8043B002BEBD110BC704780B5012098
:1025FC00FFF72AFB064801210160002101604160C0
:10260C004FF40441034A11800160002002BD000018
:10261C00405C0040A41C002010B5084979441C31D2
:10262C00074C7C441A34A14206D0081D0A68511884
:10263C0088470146A142F8D110BD00BF7C000000C4
:10264C009C000000090227000101008032090400EF
:10265C000003FFFFFF04070581024000000705028D
:10266C0002400000070583024000000026035300CF
:10267C0054004D006900630072006F0065006C002F
:10268C0065006300740072006F006E0069006300E7
:10269C00730000000BE050F8041BCB0744BFA9F1FA
:1026AC0001035918002341F8043B121FFAD150F8CA
:1026BC00042B002AEFD17047DDFFFFFF98110000BB
:1026CC00140B002000000000F5FEFFFF14030000B7
:1026DC00C000000000080020000000001A03530096
:1026EC0054004D00330032002000530054004C00C5
:1026FC0069006E006B00000000F048F8002801D063
:10270C00FFF78AFF0020FFF741FD00F039F80000C9
:10271C00120100020000004083044837000101024E
:10272C000301000080B5FFF731FF024A11001820A9
:10273C00ABBEFBE7260002004920616D206B65797A
:10274C002C207761776177611003530054002000CF
:10275C004C0069006E006B00C046C046C046C046C7
:10276C00FFF7CAFF07463846FFF7DCFFFBE7000020
:10277C0000487047080B0020FFF7BEBAFFF7CEBA2F
:10278C0080B5FFF7EFBF0000040309040120704778
:10279C00637C777BF26B6FC53001672BFED7AB7612
:1027AC00CA82C97DFA5947F0ADD4A2AF9CA472C0BD
:1027BC00B7FD9326363FF7CC34A5E5F171D831152A
:1027CC0004C723C31896059A071280E2EB27B2754B
:1027DC0009832C1A1B6E5AA0523BD6B329E32F84C3
:1027EC0053D100ED20FCB15B6ACBBE394A4C58CFBB
:1027FC00D0EFAAFB434D338545F9027F503C9FA88F
:10280C0051A3408F929D38F5BCB6DA2110FFF3D25C
:10281C00CD0C13EC5F974417C4A77E3D645D197310
:10282C0060814FDC222A908846EEB814DE5E0BDB0A
:10283C00E0323A0A4906245CC2D3AC629195E47941
:10284C00E7C8376D8DD54EA96C56F4EA657AAE089B
:10285C00BA78252E1CA6B4C6E8DD741F4BBD8B8A36
:10286C00703EB5664803F60E613557B986C11D9E9C
:10287C00E1F8981169D98E949B1E87E9CE5528DF13
:10288C008CA1890DBFE6426841992D0FB054BB163F
:10289C0052096AD53036A538BF40A39E81F3D7FBC9
:1028AC007CE339829B2FFF87348E4344C4DEE9CB13
:1028BC00547B9432A6C2233DEE4C950B42FAC34E88
:1028CC00082EA16628D924B2765BA2496D8BD1253E
:1028DC0072F8F66486689816D4A45CCC5D65B692E2
:1028EC006C704850FDEDB9DA5E154657A78D9D8486
:1028FC0090D8AB008CBCD30AF7E45805B8B34506A6
:10290C00D02C1E8FCA3F0F02C1AFBD0301138A6BBF
:10291C003A9111414F67DCEA97F2CFCEF0B4E673EF
:10292C0096AC7422E7AD3585E2F937E81C75DF6E9D
:10293C0047F11A711D29C5896FB7620EAA18BE1B03
:10294C00FC563E4BC6D279209ADBC0FE78CD5AF4A9
:10295C001FDDA8338807C731B11210592780EC5FEF
:10296C0060517FA919B54A0D2DE57A9F93C99CEF4B
:10297C00A0E03B4DAE2AF5B0C8EBBB3C835399614C
:10298C00172B047EBA77D626E169146355210C7D8A
:10299C00491200089D1200087113000873130008F7
:1029AC0075130008B3130008F9130008011400088C
:1029BC00071400080D14000800000000400000007F
:1029CC0000000001000000020000000400000008EC
:1029DC0000000010000000200000004000000080FB
:1029EC000000001B000000369427000804000000C3
:1029FC007826000826000000E82600081A000000CF
:102A0C00A40A00201A00000054270008100000003F
:102A1C00CD08000829120008CD080008CD080008D0
:102A2C00CD080008CD080008CD080008CD08000826
:102A3C00CD0800081A0330003000300030003000A0
:102A4C003000300030003000300030003100000029
:102A5C0085270008CD080008CD080008CD0800081F
:102A6C00CD080008CD080008CD080008CD080008E6
:102A7C0089270008CD080008CD080008CD080008FB
:102A8C00CD080008CD0800081C2700081200000023
:102A9C005026000827000000FFFFFFFFFFFFFFFF8D
:042AAC000401000021
:040000050800276563
:00000001FF
